:020000040040BA
:10000000E82B4020DD054000D9054000D90540001F
:10001000D9054000D9054000D90540000000000086
:10002000000000000000000000000000D9054000B2
:10003000D905400000000000D9054000D905400066
:10004000D9054000D9054000D9054000D905400038
:10005000D9054000D9054000D9054000D905400028
:10006000D90540000000000055054000690540002A
:100070007D054000D9054000D9054000D905400064
:1000800091054000A5054000D9054000D905400074
:10009000D9054000D9054000D9054000D9054000E8
:1000A000D9054000D9054000D9054000D9054000D8
:1000B000D9054000D9054000D9054000D9054000C8
:1000C000D9054000D9054000D9054000D9054000B8
:1000D000D9054000D9054000D9054000B1034000D2
:1000E000D9054000D9054000D9054000D905400098
:1000F000D9054000D9054000D9054000D905400088
:10010000D9054000D9054000D9054000D905400077
:10011000D9054000000000000000000000000000C1
:10012000D9054000D9054000D9054000D905400057
:10013000D9054000D9054000D9054000D905400047
:10014000D9054000D9054000D9054000D905400037
:10015000D9054000D9054000D9054000D905400027
:10016000D9054000D905400010B5054C237833B9B6
:10017000044B13B10448AFF300800123237010BD7A
:1001800034044020000000004C0840000C4B43B1F8
:100190000C480D4910B5AFF300800C48036823B933
:1001A00010BD0A48036833B97047094B002BF7D0DC
:1001B000BDE810401847064B002BF5D0184700BF8C
:1001C000000000004C084000380440204C0840006B
:1001D00000000000038801339BB28B4228BF00233C
:1001E00003807047F0B5D0F800E001EB810300EB2D
:1001F000C3035A681E69DEF8004024F00804CEF8F4
:10020000004000241C85DC849B8CFBB13446002319
:100210004FF0004701EB810500EBC50046F83320A5
:1002200067600133858C02F2EE5208349D42F5D8A6
:1002300006EBC5054FF0404345F8043C41B126F0BC
:10024000030601F20F114EF82160F0BD0025EFE723
:1002500026F00306CEF81C60F0BD00002DE9F04347
:1002600085B007460D4606680C46002953D1736ACF
:100270000393336A029373690193316B039B494A79
:100280000A4323EA02030393039B13F0020F03D1F3
:10029000029B13F0020F14D0029B03F00403002B07
:1002A0000CBF02200620029B13F0010F18BF40F084
:1002B0000100306205EB850307EBC3035B6903B103
:1002C0009847039B13F0800F03D1019B13F0200F7D
:1002D00065D0019B13F0040F23D14FF02009019B3F
:1002E00013F0020F18BF49F00209C6F8149005EB8D
:1002F000850307EBC303DA8C1B8D9A4237D06E1C43
:1003000006EB860607EBC60604EB840407EBC40481
:10031000DFF898801CE001F1FF0356F823300393C7
:10032000A7E729463846204B9847336843F008032F
:1003300033604FF00409D2E7A18C3046C047E38C0C
:10034000228D9B1AA18C93FBF1F201FB123373B146
:10035000228DE169236903EBC2035B68002B06DA97
:1003600051F82230002BE7D048469847E4E705EBE8
:10037000850307EBC3031A8DD98C0131521A988C6F
:1003800092FBF0F100FB112293F82A309A4206DB2F
:1003900005EB850507EBC505AB6903B1984705B0CB
:1003A000BDE8F083000303F8E5014000D5014000FB
:1003B00008B500210148024B984708BDC40A4020F7
:1003C0005D024000F8B54FF40042464B5A60BFF35F
:1003D0004F8FBFF36F8F444B0021C3F85012BFF310
:1003E0004F8FBFF36F8F5A6942F400325A61BFF3E7
:1003F0004F8FBFF36F8FC3F88410BFF34F8FD3F8C5
:100400008070C7F34E35C7F3C9076E014FEA877C8A
:1004100043F6E07E1C4606EA0E0062463B4640EA92
:100420000201C4F86012013B02F14042B3F1FF3F08
:10043000F5D1013D203EB5F1FF3FECD1BFF34F8F29
:10044000294B5A6942F480325A61BFF34F8FBFF390
:100450006F8F264A26495160A1F580715160BFF324
:100460004F8FBFF36F8FD3F8902222F00102C3F8B1
:100470009022D3F8942222F00102C3F89422BFF311
:100480004F8FBFF36F8F0A201A4CA0470B20A04755
:100490000C20A0471020A0471120A047164B4FF476
:1004A00080721A61C3F8A0201A63A3F580634FF429
:1004B00000625A61C3F8A0205A66C3F890205A65BA
:1004C0001A62C3F88420196F21F400611967596F0B
:1004D00021F400615967C3F8C020C3F8D420C3F8E1
:1004E000B020F8BD50180E4000ED00E0000C0E40AA
:1004F0000C08005AB905400000120E40C06C70474D
:10050000806C70472DE9F041044688460E4B9847B1
:10051000054620460D4B9847054013D00C4C04F17E
:10052000600603E0B4420DD010345DB12068404550
:10053000F8D161682942F5D0E3689847636825EAF5
:100540000305EFE7BDE8F081FD0440000105400030
:100550005004402008B50A210148024B984708BDC5
:10056000000E0E400505400008B50B210148024B66
:10057000984708BD00100E400505400008B50C2145
:100580000148024B984708BD00120E400505400087
:1005900008B510210148024B984708BD00140E40D1
:1005A0000505400008B511210148024B984708BDD8
:1005B00000160E400505400000F07F00054BC3F813
:1005C0000C01D3F80C2142F01022C3F80C210020BA
:1005D000704700BF00060E40FEE7000000B583B084
:1005E000254B264A9A4210D0254B234A9A420CD2D8
:1005F000013B9B1A23F00303043313441F4951F8B2
:10060000040B42F8040B9A42F9D11E4B1E4A9A423F
:100610000AD2013B9B1A23F0030304331344002145
:1006200042F8041B9342FBD1184A194B23F07F0375
:100630009360EFF31083B3FA83F35B09019372B60F
:10064000BFF35F8F0022134B1A700199124A13688F
:1006500043F470031360BFF34F8FBFF36F8F29B163
:1006600001220C4B1A70BFF35F8F62B60B4B984799
:100670000B4B9847FEE700BF000040204C084000AD
:1006800034044020E80B40203404402000ED00E01A
:10069000000040000000402088ED00E0B50640006A
:1006A000A506400008B5024B9847002008BD00BFD2
:1006B000C503400070B50F4E0F4D761BB61018BF26
:1006C000002405D0013455F8043B9847A642F9D1DF
:1006D0000A4E0B4D761B00F0A7F8B61018BF002489
:1006E00006D0013455F8043B9847A642F9D170BDB5
:1006F00070BD00BF34084000340840003C08400092
:1007000034084000024B13B1024800F005B87047AE
:100710000000000025074000002301461A46184645
:1007200000F01EB838B50A4C0A4D641BA4100AD05C
:1007300004F18043013B05EB8305013C55F8043986
:100740009847002CF9D1BDE8384000F077B800BFD9
:100750004C08400048084000704700BF704700BF89
:100760002DE9F8432C4D0646286898460F469146D9
:10077000FFF7F2FF294B1C68D4F84831002B3ED01C
:100780005A681F2A1CDC02F1010E76B103EB8201CC
:100790000124C1F88890D3F8880194402043022EA8
:1007A000C3F88801C1F8088123D00232C3F804E0FD
:1007B000286843F82270FFF7D1FF0020BDE8F883D6
:1007C000174B0BB34FF4C870AFF300800346D8B19A
:1007D000D4F848210260002141600A46C4F848016B
:1007E0004FF0010EC0F88811C0F88C11002EDCD03B
:1007F000CCE7D3F88C110C43C3F88C41D5E704F552
:10080000A673C4F84831BBE72868FFF7A7FF4FF08D
:10081000FF30BDE8F88300BF3004402024084000CA
:100820000000000008004020F8B500BFF8BC08BC7C
:100830009E467047050740008D014000F8B500BF97
:0C084000F8BC08BC9E46704769014000EF
:10084C00010000000000000000000000F402402045
:10085C005C034020C40340200000000000000000A6
:10086C00000000000000000000000000000000007C
:10087C00000000000000000000000000000000006C
:10088C00000000000000000000000000000000005C
:10089C00000000000000000000000000000000004C
:1008AC00000000000000000000000000000000003C
:1008BC00000000000000000000000000000000002C
:1008CC00000000000000000000000000000000001C
:1008DC00000000000000000000000000000000000C
:1008EC0000000000000000000000000000000000FC
:1008FC0001000000000000000E33CDAB34126DE699
:10090C00ECDE05000B000000000000000000000001
:10091C0000000000000000000000000000000000CB
:10092C0000000000000000000000000000000000BB
:10093C0000000000000000000000000000000000AB
:10094C00000000000000000000000000000000009B
:040C7C00C40B402045
:04000005004005DDD5
:00000001FF
