:102000000080002071440000AD48000059440000E9
:1020100000000000000000000000000000000000C0
:102020000000000000000000000000005944000013
:10203000000000000000000059440000C5440000FA
:10204000594400005944000059440000594400001C
:102050007148000059440000653000005D440000F4
:10206000594400005944000059440000A1430000B5
:1020700059440000C943000059440000594400007D
:1020800059440000594400005944000059440000DC
:102090000000000059440000594400005944000069
:1020A00059440000594400005944000059440000BC
:1020B0000000000010B5064C2378002B07D1054B1B
:1020C000002B02D0044800E000BF0123237010BDA4
:1020D0007C02002000000000F8E90000044B10B56D
:1020E000002B03D00349044800E000BF10BDC046E8
:1020F0000000000080020020F8E9000040697047FD
:1021000037B500230A00694601AC0B808B7001686B
:102110002380A3700D68019B6946A84737BDC8207E
:1021200040007047012110B50400080002F082FC55
:102130001023A361014BE36110BDC0461000006095
:1021400010B572B6034B044A0449054801F02EFA53
:1021500062B610BDDC020020DD020020DE0200209D
:1021600014030020F7B50221080002F063FC0022EE
:102170004549022002F0C0FAE121444E49023000F4
:1021800003F05EFB424F380001F0F4FB002803D05F
:102190004049300002F06CFD0421380001F05EFA85
:1021A00000240023009301940098019900233A4AE7
:1021B000002412184B4169463800097801F01EFAD4
:1021C0000099019A0123C918624100910192009B74
:1021D000042BE9D1019B002BE6D10122022138001A
:1021E00001F0A0FA2D4D009A0221280001F0EAFC2E
:1021F000002803D02A49300002F03AFD0124294B7F
:1022000029481B6823401ED10122FF2143604361FE
:102210008360264B524282818273027442741A6830
:10222000C1738474002A00D11860214A1E4B1468BF
:10223000002C00D0A360136000221A841D4A1A608B
:102240000123184A13600A221B49002301F0A0FD54
:10225000FF2303734F3B437340338373380001F014
:10226000D3FA07221549300002F00CFD280001F0D6
:1022700051FC002803D11249300002F0F9FC38006B
:1022800001F016FAF7BDC04641210000FC0800200D
:1022900014030020CDDF0000B13A3A3AC402002016
:1022A000DFDF00009C020020A0020020CC03002001
:1022B000D00300200CDF0000F3020020F1DF00005B
:1022C00007E00000F7B5184C8026200001F0CEFC96
:1022D000164F76420023FA5E154B0021595E00230B
:1022E000E05E7F230093330003F0F4F9114D0021E9
:1022F0007A5E0F4928700020095E0223E05E7F238A
:102300000093330003F0E6F97F2300217A5E084949
:1023100068700020095E0420205E0093330003F003
:10232000D9F9A870F7BDC046C40200200200002001
:102330000000002011030020CD4BF7B51A78002AC9
:1023400000D17BE10022CB4CCB4D1A70210007322B
:10235000280001F020F9C949C94802F089FCC94F99
:102360002178380008F050FA6178C74808F04CFA34
:10237000A178C64808F048FA2178380008F044FAF5
:10238000E37862792179C24808F03EFA2378002B7D
:1023900008D12279BF4B1A706279BF4B1A70E2786C
:1023A000BE4B1A706378012B1FD1A178032900D985
:1023B000C4E0080004F07EFB022B468568462179C4
:1023C0006279E37801704270837001A901F086FDA3
:1023D00001AA0A21B24801F0A6FCB248017801F036
:1023E0001FFDB149A64802F043FC6378012B00D1E0
:1023F00024E1A0780138052800D917E1A54E04F0A2
:1024000063FBA100D400D700DA00F6001E01FFF73D
:1024100059FFA64E0021300008F0F6F900213000E7
:1024200008F0F2F90021A24808F0EEF96846A14B45
:10243000984A1B78127861799B18E2780370417092
:102440008270C2E7FFF73EFF984F0021380008F086
:10245000DBF90021380008F0D7F90021944808F092
:10246000D3F98D4B1878934B1B785BB2C01805F0ED
:1024700047FA0021071C04F00BFD002809D08E4903
:10248000381C04F0F1FC002803D0381C04F014FDC3
:10249000C6B20021381C04F0E7FC434258414042D8
:1024A00006408549381C04F0F3FC002800D0FF26C4
:1024B00069462279E3780A704E708B7001A96846EC
:1024C00084E7FFF7FFFE794F0021380008F09CF900
:1024D0000021380008F098F90021754808F094F9B7
:1024E0006D4B1878734B1B785BB2C01805F008FA77
:1024F0000021071C04F0CCFC002809D06E49381CD0
:1025000004F0B2FC002803D0381C04F0D5FCC6B29D
:102510000021381C04F0A8FC4342584140420640C8
:102520006549381C04F0B4FC002800D0FF26694639
:10253000227963790A704B708E70BFE75F4808F0AC
:1025400063F94AE704235E4EB370FFF7BBFE594BB5
:1025500028001B78B3710123337000F09CFF63786F
:10256000584F9B00DA592800002301F037F8072262
:102570003100280001F00AF8637853489B00D959CC
:1025800008F042F97179514808F03EF9280001F04D
:102590008FF868463F4B19783F4B1A783F4B1B78B2
:1025A00042706A46017093701FE0454E0523CBE7E9
:1025B000434E0623C8E7FFF785FE3C4D0021280067
:1025C00008F022F90021280008F01EF900213848FF
:1025D00008F01AF96846A37932789B182E4A0370DE
:1025E00011782E4A41701278827001A917E0FFF726
:1025F00069FE2E4D0021280008F006F90021280070
:1026000008F002F900212A4808F0FEF869466846F9
:10261000A27933789A180B704A708B7001A901F077
:102620005DFC01AA0A211E4801F07DFB28491448DF
:1026300002F01EFB1B48017801F0F2FBF7BDFFF72B
:1026400041FE1A4D0021280008F0DEF80021280084
:1026500008F0DAF80021164808F0D6F868460E4966
:102660003278A3790978D318027041706A469AE7E4
:10267000DC020020DF020020140300203CDF000009
:10268000FC08002048DF000056DF000065DF000086
:1026900073DF0000ED020020EF020020EE020020B8
:1026A000F3020020B8030020A1DF000085DF000056
:1026B00080DF00001103002000007F4389DF00005D
:1026C000E602002028DF00001EE70000ADDF00006A
:1026D000BFDF0000F0B585B002910A9903938B68C3
:1026E000019001338B60CB680133CB600B69013300
:1026F0000B6100269446039B350034003000019A9C
:10270000029F664674784D782D06240601D16D40EF
:10271000C046641900D3E44300D32406CE68240ED7
:1027200074434D780E79751B4D70200462460096F7
:102730009446009E019A029F9760C046C0460326B9
:10274000013EFDD1400000D25760C046C046C046A1
:102750000826013EFDD15760C046C0460526013E11
:10276000FDD19760C046C0460326013EFDD1400022
:1027700000D25760C04666463478C046C046072639
:10278000013EFDD15760C046C0460526013EFDD141
:102790009760C046C0460326013EFDD1400000D2EE
:1027A0005760C0460D782D06240601D16D40C04605
:1027B000C0460626013EFDD15760C046C0460526EC
:1027C000013EFDD19760C046C0460326013EFDD1C3
:1027D000400000D25760C046641900D3E44300D3E0
:1027E00024060726013EFDD15760C046C046052697
:1027F000013EFDD19760C046C0460326013EFDD193
:10280000400000D25760C0468E68240E7443C04614
:102810000726013EFDD15760C046C0460526013E51
:10282000FDD19760C046C0460326013EFDD1400061
:1028300000D25760C0460D78CE78751B0D70C0462B
:102840000626013EFDD15760C046C0460526013E22
:10285000FDD19760C046C0460326013EFDD1400031
:1028600000D25760C046C046C0460826013EFDD192
:102870005760C046C0460526013EFDD19760C04660
:10288000C0460326013EFDD1400000D25760C0463D
:102890002004C0460826013EFDD15760C046C04610
:1028A0000526013EFDD19760C046C0460326013E85
:1028B000FDD1400000D25760C046C046C046082641
:1028C000013EFDD15760C046C0460526013EFDD100
:1028D0009760C046C0460326013EFDD1400000D2AD
:1028E0005760C0466646B478C046C0460726013EDB
:1028F000FDD15760C046C0460526013EFDD1976018
:10290000C046C0460326013EFDD1400000D25760BC
:10291000C0468D782D06240601D16D40C046C046C4
:102920000626013EFDD15760C046C0460526013E41
:10293000FDD19760C046C0460326013EFDD1400050
:1029400000D25760C046641900D3E44300D3240684
:102950000726013EFDD15760C046C0460526013E10
:10296000FDD19760C046C0460326013EFDD1400020
:1029700000D25760C0460E69240E7443C046072635
:10298000013EFDD15760C046C0460526013EFDD13F
:102990009760C046C0460326013EFDD1400000D2EC
:1029A0005760C0468D784E79751B8D70C0460626DF
:1029B000013EFDD15760C046C0460526013EFDD10F
:1029C0009760C046C0460326013EFDD1400000D2BC
:1029D0005760C0468E79B444C046C0460726013EC3
:1029E000FDD15760C046C0460526013EFDD1976027
:1029F000C046C0460326013EFDD1400000D25760CC
:102A0000C0462004C0460826013EFDD15760C0469E
:102A1000C0460526013EFDD19760C046C04603264C
:102A2000013EFDD1400000D25760C046C046C046BE
:102A30000826013EFDD15760C046C0460526013E2E
:102A4000FDD19760C046C0460326013EFDD140003F
:102A500000D25760C04666467478C046C046072616
:102A6000013EFDD15760C046C0460526013EFDD15E
:102A70009760C046C0460326013EFDD1400000D20B
:102A80005760C0464D782D06240601D16D40C046E2
:102A9000C0460626013EFDD15760C046C046052609
:102AA000013EFDD19760C046C0460326013EFDD1E0
:102AB000400000D25760C046641900D3E44300D3FD
:102AC00024060726013EFDD15760C046C0460526B4
:102AD000013EFDD19760C046C0460326013EFDD1B0
:102AE000400000D25760C046CE68240E7443C046F2
:102AF0000726013EFDD15760C046C0460526013E6F
:102B0000FDD19760C046C0460326013EFDD140007E
:102B100000D25760C0464D780E79751B4D70C04687
:102B20000626013EFDD15760C046C0460526013E3F
:102B3000FDD19760C046C0460326013EFDD140004E
:102B400000D25760C046C046C0460826013EFDD1AF
:102B50005760C046C0460526013EFDD19760C0467D
:102B6000C0460326013EFDD1400000D25760C0465A
:102B70002004C0460826013EFDD15760C046C0462D
:102B8000C0460326013EFDD10D4F00966246BE6849
:102B900062B6013B72B6BF68BC46BE4201D2094F65
:102BA000F6196746F61B87273F01BE4205D8002B62
:102BB00000D0BDE5039805B0F0BD0020FBE7C0469E
:102BC00010E000E080BB000000B5027B89B003ABE1
:102BD0001A70427B10215A70827B9A70827C059217
:102BE000C27C0692027D0792C27BDA70027C1A7167
:102BF000427C5A71427D9A7100930CC80248FFF7DB
:102C000069FD09B000BDC04610000060F0B50600C7
:102C10000D0089B001F06AFC338CC01A80B23128F3
:102C2000F8D972B62B7B01AC23736B7B2F006373D7
:102C3000AB7B1237A373EB7B0322E3732B7C39004E
:102C400023746B7C63742B68019316236B44180008
:102C500006F086FD6B7D200063756B686360A36082
:102C6000AB69A361FFF7B0FF002824D162B6C82387
:102C70009B00013BFDD172B62B7B032223736B7B40
:102C800039006373AB7BA373EB7BE3732B7C2374FF
:102C90006B7C63742B68019316236B44180006F059
:102CA0005FFD6B7D200063756B686360A360AB693B
:102CB000A361FFF789FF62B601F018FC308409B008
:102CC000F0BD00000721F8B50124194A137801333B
:102CD0000B401C4013708C409A0701D540221443CE
:102CE0000422134201D020231C43050080270F300B
:102CF00006001034E4B20C357F00A979002904D015
:102D0000380003F075FF0130C1B24B1C63431B1246
:102D1000E970DAB2002B08D12B70002901D00139FB
:102D2000E9700135AE42E8D1F8BD013A2A70F4E706
:102D30009802002070B58AB00193867C05001E20A1
:102D400003AC03916260A26001A90322684406F00B
:102D500007FD012E0CD12000FFF7B4FF0023A36173
:102D600063752B6821009B69280098470AB070BDE5
:102D7000002306932382F1E770B58AB00193867C25
:102D800005001E2003AC03916260A26001A903222A
:102D9000684406F0E5FC012E0DD12000FFF792FFFC
:102DA000032363750023A3612B6821009B6928001E
:102DB00098470AB070BD002306932382F0E7000015
:102DC00010B5084B06220721074800F02BFB1D21F8
:102DD000064800F053FE0022054B1A705A709A7094
:102DE00010BDC046404B4C0014030020C40200201C
:102DF000F0020020F0B5040085B01E000AAB1B787D
:102E0000103001930BAB1B78170002930CAB1B78AF
:102E10000D00039300F0F2F82000243000F0EEF8EB
:102E2000220000234032A363E363137063729D4268
:102E300005D10A4B0A4A22210A4806F02BFC6B46B0
:102E40001B79200063716B461B7A2560E3716B462A
:102E50001B7B2771A671237205B0F0BD14E0000042
:102E600089E0000025E00000437A002B04D1837242
:102E7000C372C36001334372704730B5040085B03C
:102E800002AD00680291039201F0FEFF6B79227A95
:102E9000E17900932068002302F0A0F92979029AD1
:102EA000206802F015F8206801F0E4FF05B030BD9D
:102EB00070B518260400FFF7D7FF330008212079EA
:102EC0000D4D4343EB18595601F010FE3300082115
:102ED000A0794343EB18595601F008FE08216079A8
:102EE0004643AD19695601F001FE044B200006CBA4
:102EF000FFF7C3FF70BDC046D0E20000780300209A
:102F000007B5837A00910192002B07D09A070AD562
:102F1000EFF310835A425341C37272B60099019A7B
:102F2000FFF7ABFF07BDDB07F8D5C368014A9BB2CB
:102F30009360F3E700180040837A002B05D09A07CE
:102F400004D5C37A002B00D062B67047DB07FCD5EE
:102F5000C368024A9BB2D360F7E7C046001800403E
:102F600010B5006801F099FF10BD00001FB5094BB6
:102F7000094A0A491A6000225A711A710123029300
:102F80000193093300930932023B0548FFF732FFF2
:102F900005B000BD7803002000093D004C0800206A
:102FA00034030020084B1968002909D1EFF3108081
:102FB000064A002803D172B6BFF35F8F013111704A
:102FC0001A6801321A6070478403002080030020D1
:102FD000084B1A68002A0CD01A68013A1A601B685C
:102FE000002B06D1044B1B78002B02D0BFF35F8F60
:102FF00062B670478403002080030020FF23002175
:1030000010B504000370FC3B41708170C170017108
:1030100043710C22083006F0ACFB200010BD00000C
:1030200001220B0010B5134008D00D4B1A70042379
:1030300043708368002B00D0984710BD02221142D4
:1030400004D007490A704370C368F3E704231942A8
:10305000F3D0034A1370033343700369EAE7C046B1
:103060004E48004110B5FFF79DFF0C4B1B8C1B0712
:103070001B0F0B2B0FD80A4A9900885800280AD03A
:103080000F2408490A78A24313430B70064B1978A2
:10309000C9B2FFF7C5FFFFF79BFF10BD0048004115
:1030A000880300203F4800414E48004110B504000D
:1030B000408801F0EFFCE369002B06D030200321AB
:1030C000584303F00BFD0138FDD110BD10B5038846
:1030D00042889A4202D0180001F0DCFC10BD0000CA
:1030E00037B5094B41680500994200D919006B4674
:1030F00000245C711C71019A0448FFF701FF28004D
:103100002100FFF7D3FF37BD808D5B003403002023
:1031100010B50121FFF7CAFF0148FFF70DFF10BDF1
:103120003403002070B504000D00FFF7D9FF202103
:1031300004482943FFF714FF20722000FFF7E8FF3F
:1031400070BDC04634030020F7B5050014001F0011
:103150000191FFF7C5FF0A4E01993000FFF700FF0C
:10316000E7192872BC4206D0FF213000FFF7F8FEB5
:1031700020700134F6E72800FFF7CAFFF7BDC0460C
:103180003403002070B50E000400FFF7A9FF084DBE
:1031900031002800FFF7E4FEFF2120722800FFF72E
:1031A000DFFE05002000FFF7B3FF280070BDC0461A
:1031B00034030020F8B50F00050014001E00FFF7CF
:1031C0008FFF20213943094FA6193800FFF7C8FEA9
:1031D0002872B44205D021783800FFF7C1FE0134CF
:1031E000F7E72800FFF794FFF8BDC046340300203E
:1031F00070B504000E001500002B02D0FFF792FFFF
:1032000070BDFFF76DFF20213143064E3000FFF700
:10321000A7FE290020723000FFF7A2FE2000FFF772
:1032200077FFEDE734030020F7B50193837A0600BA
:103230000F00002B18D1447A251C944200D9151C8C
:10324000EDB2641BE4B23000FFF74AFF0199114868
:10325000FFF786FE7D193072AF420ED039780D48E7
:10326000FFF77EFE0137F7E754425441151CE4B2E4
:10327000202A00D92025EDB2E5E7013CE4B2FF2C7D
:1032800004D000210348FFF76BFEF6E73000FFF79C
:103290003FFFF7BD34030020F8B5837A06000F0026
:1032A000002B19D1447A251C944200D9151CEDB28B
:1032B000641BE4B23000FFF713FF61211048FFF7F1
:1032C0004FFE7D193072AF420DD0FF210C48FFF741
:1032D00047FE38700137F6E7151C202A00D9202553
:1032E000EDB20024E6E7013CE4B2FF2C04D0FF215C
:1032F0000348FFF735FEF6E73000FFF709FFF8BD9A
:103300003403002010B50400E221FFF70BFF207A00
:1033100010BD10B50400E121FFF704FF207A10BDB5
:1033200010B50400FF21FFF7FDFE207A10BD00005C
:103330001FB501200C00044002940C07640F4B11D0
:103340008A1101940C110340024020400090024871
:1033500007F05AFA1FBDC04655E20000F8B5140048
:103360001D0006000B4807F04FFA6519EDB2AC429C
:103370000BD021003000FFF705FF671C0100FFB2F2
:10338000054807F041FA3C00F1E7044807F0B6FAB7
:10339000F8BDC0469AE200009FE20000CBDF0000CB
:1033A000F0B51C00150085B000AF06002C191948B7
:1033B00007F02AFAE3B23B603B689D4224D06B469B
:1033C0006A46747CFB60E31DDB08DB00D31A9D4674
:1033D0001F21BB606B1CDBB27B60294023006A4667
:1033E0003000FFF7B1FE0C4807F00EFA6C44BB68E2
:1033F000013CA34204D82178084807F005FAF6E713
:10340000FB687D689D46D7E7054807F077FABD461B
:1034100005B0F0BD9AE20000A7E20000A2E20000C1
:10342000CBDF00004280202242721F3A82720022CB
:1034300001800521C2740273044A43604174C16172
:10344000934201D8024B43607047C046B8880000E1
:103450008096980010B50A007C2900D97D220023AF
:103460000521FFF7C5FE10BD70B501230500002939
:1034700004D00B1C202900D92023DBB211246B724D
:10348000210001346A7A00232800E4B2FFF7B0FE7D
:10349000172CF5D170BD70B504000021FFF716FEA2
:1034A000A369002B06D030200321584303F016FBFC
:1034B0000138FDD1E37A002B02D02000FFF729FF6D
:1034C00001250023A27C1900AA43A2742000FFF763
:1034D0008FFE02212000FFF755FE0543EAB20023CC
:1034E00002212000FFF784FE70BD0000837C0222D1
:1034F000190010B5114007D11A4382740B00FFF771
:1035000077FE024B013BFDD110BDC0468038010063
:1035100070B50400180004AB1D78B023002800D15A
:10352000103B2000FFF780FE002D03D0012120007A
:10353000FFF7CCFD70BDF7B5050001200090280015
:10354000FFF7E6FF00F0CCFF302706002800FFF76A
:10355000E7FE384008D100F0C3FF801B5F28F5D993
:1035600001232B750020FEBD00212800FFF7AEFDD2
:103570000023280070220721FFF73AFE2B7A012052
:10358000DB06F0D52800FFF7C4FEEBE710B50023FB
:10359000FFF7D1FF10BD10B50400FFF77DFE00233B
:1035A000402207212000FFF723FE10BDF8B50500DB
:1035B0000F0016001C00702200230721FFF718FEE1
:1035C00001212B7A5B090B403B702A7A12090A40D1
:1035D00032702B7A9B090B402370F8BD13B50400A1
:1035E000009201930A21437C6A46FFF7E3FD637C66
:1035F0006A4610212000FFF7DDFD13BD37B504003A
:103600000D0000920193002908D1427C69460C30DC
:1036100006F0A6F80F4A637C515D06E0052917D82D
:103620000C4B595C0123012DF4D06A462000FFF7B2
:10363000C1FD02212000FFF7A5FD0122064B02215A
:103640005B5D9A400243D2B200232000FFF7D0FD19
:1036500037BDC046DDE00000E3E000000239CAB239
:1036600070B50500002A08D003210A401400002389
:103670000234FFF7BDFD6C7470BD13000321FFF72A
:10368000B7FD02236B74F7E770B50D00022104004B
:10369000FFF778FD054B02215A5D012393409843C3
:1036A000C2B200232000FFF7A3FD70BDE3E00000DD
:1036B00070B504000125FFF719FF0023A27C190053
:1036C0002A43A2742000FFF793FD002370220721F4
:1036D0002000FFF78DFD29002000FFF7F7FC217B7C
:1036E000002907D02200637C0C320A212000FFF75A
:1036F00061FD70BD2000FFF7C7FFFAE770B5040059
:10370000FFF7EEFC064D50212800FFF729FC73213E
:1037100020722800FFF724FC2000FFF7F9FC70BDA1
:103720003403002070B50C00062116000500FFF7D9
:1037300029FDF8221040032C08D90636F2B20243C4
:10374000002328000621FFF753FD70BD6400A41973
:10375000E2B2F4E710B50621FFF714FD4007800F31
:1037600010BD10B50821FFF70DFD0F23184010BD47
:1037700070B50E0006210500D724FFF703FD0440B5
:10378000022E13D120231C43FA23FF33AB61220006
:10379000280000230621FFF72BFD28000621FFF754
:1037A000F1FC001B44426041C0B270BD012E02D04A
:1037B0008C235B00EAE708231C43E833E6E710B5F7
:1037C0000621FFF7DFFC282303400220202B03D033
:1037D000083B58425841C0B210BD70B501210500E8
:1037E000FFF7D0FC002104002800FFF7CBFC0823E2
:1037F0000200A874034002D11800002C02D0500728
:10380000C00F013070BD000010B53B490400406896
:1038100003F064F9C1B2394806F0F6FF2000FFF763
:103820007FFD01002000FFF783FD200002230A2214
:103830003349FFF7B5FD200004230C223149FFF77F
:103840008DFD2000012310222F49FFF7A9FD200044
:10385000062311222D49FFF781FD012320001A00C4
:103860002B49FFF77BFD2000012302222949FFF7A6
:1038700075FD2000012305222749FFF76FFD200079
:10388000012306222549FFF769FD200001230022BC
:103890002349FFF763FD1C22022322492000FFF782
:1038A0005DFD2000FFF78BFF1F4B8000C1581F48B4
:1038B00006F0AAFFE37C1E4A9B0099581D4806F0BB
:1038C000A3FF2000FFF789FF1B4B8000C1581B4856
:1038D00006F09AFF2000FFF73DFF194B8000C1580A
:1038E000184806F091FF2000FFF73BFF0100164843
:1038F00006F08AFF10BDC04640420F0094E1000070
:10390000A9E10000B6E10000C3E10000CCE1000045
:10391000D7E10000DEE10000E8E10000EFE1000097
:10392000F8E1000000E200005CE100000EE20000AF
:10393000FCE000001DE2000088E100002BE2000036
:103940002CE100003BE2000049E2000010B50B1C36
:1039500014000F2900D90F23DBB21B01221C0F2CEE
:1039600000D90F221A43D2B200230421FFF740FCF2
:1039700010BD000070B5040000886388834206D043
:10398000012101F057F86088012101F053F83A480D
:10399000FFF78EFA00212000FFF798FB012120009D
:1039A000FFF784FB052000F0D1FD0F220521200048
:1039B000FFF7CCFF00212000FFF7DAFE1D212000D9
:1039C000FFF7E0FB05002000FFF798FE1D21200017
:1039D000FFF7D8FB2B1A5A425341E37400280AD050
:1039E000854202D12000FFF789FE00231D211A0025
:1039F0002000FFF7FDFB002520002B002A00E572C8
:103A00001C21FFF7F5FB2B00A57220003F220121AE
:103A1000FFF7EEFB2B00032220000221FFF7E8FB5B
:103A200020002021FFF720FD20000521FFF716FED2
:103A300020004C21FFF70EFD2B00702207212000F3
:103A4000FFF7D6FB2000FFF75DFC2000FFF761FCCD
:103A50002B000C2229002000FFF7CAFB29002000C0
:103A6000FFF790FBA0742000FFF740FDA07C0E380C
:103A700043425841C0B270BD340300200023017599
:103A800043757047F8B50F000B4D017D28001400F9
:103A90001E0000F041FB3900280000F08BFBA61946
:103AA000B44205D02178280000F084FB0134F7E708
:103AB000280000F0DCFBF8BDDC03002007B5130094
:103AC0006A46073213700123FFF7DCFF0EBD0000CA
:103AD00070B50E0005000E4C017D200000F01CFBAF
:103AE0003100200000F066FB0021200000F087FB81
:103AF000297D0122200000F058FB200000F0B2FADE
:103B00000028FAD0200000F0B7FBC0B270BDC0465C
:103B1000DC03002010B52A210400FFF7D9FF0122A1
:103B20000243D2B22A212000FFF7C8FF10BD10B512
:103B30000B21FFF7CDFF10BD70B505000C0016007E
:103B4000FFF7F5FF0300FF20002B0ED12A212800EC
:103B5000FFF7BEFF002E09D03F22A40102402243FE
:103B6000D2B22A212800FFF7A9FF70BD3823020036
:103B7000E4009A43F3E770B504000D00FFF7D7FFA8
:103B80000300FF20002B10D10E212000FFF7A0FF23
:103B9000032290430200AB101A43D2B20E21200040
:103BA000FFF78CFF002800D1A57570BD10B52A2144
:103BB0000400FFF78DFFFE222A2102402000FFF7BC
:103BC0007DFF10BDF8B5050012480F00160000F08B
:103BD00083FA0D212800FFF77BFF00242A2816D145
:103BE0002800FFF7E3FF39002800FFF7C4FF220099
:103BF00031002800FFF7A0FF2C212800FFF768FF05
:103C000001342043C2B22C212800FFF757FF2000C7
:103C1000F8BDC046DC030020F7B50F001D0006000C
:103C2000114C0192017D200000F076FA390020004D
:103C300000F0C0FA0021200000F0E1FA317D2A00F6
:103C4000200000F0B2FA200000F00CFAA842FADBE3
:103C5000019E7519AE4205D0200000F00DFB3070BA
:103C60000136F7E7F7BDC046DC03002037B5040096
:103C7000807D03F08FFE011CFE20800503F052F9C9
:103C8000637D002B3BD18A21C90503F023FB06236A
:103C90006A46051C01212000FFF7BEFF6B461A781B
:103CA0005B78120213431BB21B1123806B469A7878
:103CB000DB78120213431BB21B1163806B461A7927
:103CC0005B79120213431BB21B11A3800023E05E39
:103CD00003F016FE291C03F025F9A0600223E05E24
:103CE00003F00EFE291C03F01DF9E0600423E05EE2
:103CF00003F006FE291C03F015F9206137BD86216B
:103D0000C90503F0E7FA0323051C6A4601212000D8
:103D1000FFF782FF6B461B7823806B465B786380DE
:103D20006B469B78D1E7F8B506000F00150000241C
:103D3000BC4208DA0320604303223018290005F052
:103D40000FFD0134F4E7F8BD37B500236C4623803E
:103D5000A37098420FD0CD5C002D09D0D45C002C0C
:103D600006D0013501346C436D464443240CEC54B9
:103D70000133032BEFD16B461A8899781000FF238B
:103D8000120A184012020B401B04104318433EBD98
:103D9000F8B5002704000E001500BB4201DD170036
:103DA0001D00236820009B68984703237B43F61877
:103DB0002368666065615B6920009847011E08D032
:103DC000054802F015FF054D6B68834200D20300E1
:103DD0006B602000F8BDC04640420F00B8030020D1
:103DE00070B50D4C060023685A1C22608B4212DB12
:103DF00000F076FB094D2B68C11A00D10131FA2081
:103E000023688000584302F069FE0023708023601D
:103E100000F066FB286070BDD4030020D8030020AA
:103E2000F0B505000E0087B06B68244C002B06D05F
:103E300000F05CFB2368C01A6B689842F4D300F072
:103E400055FBEB682060002B03D03000A968984731
:103E500006001B4B1C68002C2AD0A37C01936B88A6
:103E6000632B01D80023A3742200210023680F32A2
:103E70005B680C310293636830000393FFF764FFC3
:103E800005AB02041870120E00025A70000E9870F2
:103E90001B88676904AA90701380049B3A00200075
:103EA0000399029FB8476B461B79A374A468D2E7B5
:103EB00019212800FFF794FF07B0F0BDC8030020C8
:103EC000CC030020FF22044B1A7000225A80DA60D3
:103ED000013A9A607047C046B80300205622F0B5F8
:103EE00040272026037844788578D800C0B2424322
:103EF0001F401E405BB2120A002B64DB002F4FD123
:103F0000002E05D1D343DBB210001A00330003E0CA
:103F10005532D0B2AB223B00FF2C20D0002C00D178
:103F200076E0002A03D0661C72431212D2B2002837
:103F300003D0661C70430012C0B2002B03D0661C75
:103F400073431B12DBB2E443E4B2661C74432412D5
:103F5000E4B2121900191B19D2B2C0B2DBB2FF2DA4
:103F60001AD02C006C436E1EB54124122D19EDB2EF
:103F7000002D51D0002A03D06C1C62431212D2B221
:103F8000002803D06C1C60430012C0B2002B03D089
:103F900001356B431B12DBB20A7048708B70F0BDA9
:103FA000002E0AD1AB23552743437F421B12FF1A31
:103FB000563AFFB2D0B23A00A8E70026D043130029
:103FC000C0B23200A8E7002F0FD1002E09D1AB23D9
:103FD000434355201B0A4042C01AC0B25533DBB2DE
:103FE000EFE7D3433800DBB296E7002E09D110008B
:103FF0005530C0B255235B429B1ADBB20200300041
:104000008AE71600563EF6B2002055239B1AE6E7D3
:10401000FF2318001A00A2E72B0028002A00BBE7A4
:1040200000207047F8B505000E0017000024BC42C0
:1040300008D02B68315D1B6828009847002801D004
:104040000134F4E72000F8BD70470300FC33196A1F
:10405000DA69914203D01B6AC018007E70470120C4
:104060004042FBE70300FC33D8691B6AC01A01D544
:104070000130FF3070470000F7B50193FA23802626
:10408000002504009B008360124B760008330F006C
:1040900045602900009203603200183005F069FB8A
:1040A00023002000FC332130DD6132001D62290035
:1040B000FF3005F05EFB87239B00E3185D609D6089
:1040C0006B461B78276123756B461B79A57520000D
:1040D0006375FEBDACE2000070B5060018250C4902
:1040E000006901F0A5F8306900F012FF2B000821EB
:1040F000307D084C4343E318595600F0F7FC082183
:10410000707D45436419615600F0F0FC70BDC046F7
:10411000A0860100D0E200008A2300229B00C15447
:104120000C3BC3185A609A600123837570470200E4
:1041300010B5FC32536894680133DBB29C4202D064
:1041400054680155536010BDF7B5002405001700F1
:1041500001932000A24227D02B00FC33DC611C62BB
:104160000122286900F012FFA0421CD02E00183650
:10417000286900F07AFF013401003000FFF7D7FF13
:104180002869A74206D000F0E1FE0221286900F06C
:10419000E7FEEDE700F0D1FE019B002B03D00321E9
:1041A000286900F0DDFEE0B2FEBD10B50123FFF787
:1041B000CBFF10BD002210B5837D93420DD0872325
:1041C0009B00C4186368A4680133DBB2A34204D027
:1041D0002130FF30FFF7ABFF0122100010BD0300BC
:1041E000FC3399685A68914206D09A68805C9A6854
:1041F0000132D2B29A60704701204042FBE70022B0
:104200008A2370B59B00827505000E00C15C0069B1
:1042100000F0BCFE002806D10321286900F0A0FEB2
:104220000224200070BD872328009B00EA185368F1
:1042300094682130FF301C1B01D50134FF34002C61
:104240000ED02C69FFF7CBFFC1B2200000F0CBFEEF
:104250000028E8D10321286900F082FE0324E0E76A
:10426000002EDED00321286900F07AFED9E710B5D0
:104270000121FFF7C4FF10BD10B51830FFF7AFFFE5
:1042800010BD70B50400006900F0CDFE002814D008
:10429000206900F0D6FE002810D0206900F056FEFC
:1042A0000321206900F05CFE8C239B00E558002D63
:1042B00039D10023FC34E361236270BD206900F032
:1042C000CAFE002809D0206900F0C0FE002804D0F2
:1042D000206900F0C5FE0028DFD0206900F0BBFE99
:1042E000002826D1206900F0A7FE0028E5D020692B
:1042F00000F0B6FE002837D087239B00E2185368F1
:1043000092689B1A01D50133FF33FF21002B05D0A2
:1043100020002130FF30FFF762FFC1B2206900F0BA
:1043200074FEA075C9E7236820001B699847A84759
:10433000BFE7206900F00AFE2069032100F010FEAB
:10434000206900F08DFE0028B7D0872300229B0053
:10435000E3185A609A600123A3758B239B00E358EE
:104360009342AAD09847A8E72200FC32D369126A88
:104370000133DBB22069934206D100F0DEFD032158
:10438000206900F0EDFD98E700F06FFE01002000CD
:104390001830FFF7CCFE206900F0D8FDEFE70000F1
:1043A00010B50248FFF76DFF10BDC046DC030020CA
:1043B00010B50523042202490248FFF75DFE10BD37
:1043C00054080020DC03002010B5024801F0C1F8B9
:1043D00010BDC0461006002013B51249124800F067
:1043E000B3FC1249124800F0AFFC1249124800F029
:1043F000ABFC1249124800F0A7FC124C12492000F5
:1044000000F0A2FC1149124800F09EFC0023019329
:10441000013300930722053321000E4801F008F80C
:1044200013BDC046000800424C080020000C0042AA
:1044300050080020001000425408002000140042E0
:10444000580800205C08002000180042001C0042B0
:104450006008002010060020FEE70000034B10B5A6
:104460001B68002B00D0984710BDC0466408002090
:1044700070B50F490F4CA14204D100F08DF800F047
:10448000ADFBFEE70C4D00238D42F6D0CA18E818AC
:10449000A24205D3094B8242EFD00949002204E031
:1044A000006804331060F1E704C38B42FCD3E4E7F7
:1044B000000000207C020020FCE900007C020020BB
:1044C000F00E002010B500F064F8002801D100F0D3
:1044D00055F810BD014B18607047C04664080020B5
:1044E000014B18687047C04668080020F7B51348AC
:1044F000012284461249134C8E68636805689B0E3E
:104500001340019288686268019F920E3A406746A4
:104510003F6893420ED1BD420CD186420AD35B194B
:10452000FA254868AD00861B07486B437043000DB1
:10453000C018FEBD3D0013000600E3E76808002038
:1045400010E000E000ED00E05555000070B5041EDD
:1045500010D0FFF7CBFF050000F01AF8FFF7C6FFF9
:10456000054B401B9842F7D9FA23013C9B00ED18FC
:10457000002CF3D170BDC046E703000010B5034A1C
:1045800013680133136000F0A1FB10BD6808002020
:1045900070470020704700001E2270B5464847490A
:1045A000436893431C3A1343436008238C692343B5
:1045B0008B61434C434B9C829C8A14439C82DC68F5
:1045C0001442FCD00124404A14701578254203D0CF
:1045D00055786DB2002DF8DB01249460547864B2F4
:1045E000002CFBDB394C5460547864B2002CFBDBAC
:1045F0008224E4015480547864B2002CFBDB022452
:104600009C840E34DD682542FCD0314CDC621024E1
:10461000DD682542FCD09D8C2E4C2C439C841024BC
:10462000DD682542FCD002249D8C80262C439C848E
:104630004024DD683542FCD0DD682542F9D01024E5
:10464000DD682542FCD000249460547864B2002CCC
:10465000FBDB214C5460547864B2002CFBDB1C6AF9
:104660001E4D2C4080251C621C6AAC431C62032337
:1046700093601B4B536053785BB2002BFBDB002332
:10468000FF240B72174A4B728B72CB72164B1A6057
:10469000164B174A1B6811689A065B01C90E234026
:1046A000520F12020B431343124A138580234268B0
:1046B0001343436070BDC046004000410004004009
:1046C0000C06000000080040000C0040010501003D
:1046D000B905FF7D040A000000070300FFFCFFFF8F
:1046E00003060100006CDC0204000020246080004E
:1046F0002060800000400042F7B500921822162585
:104700004243514B07009B185D5701916B1C52D0DF
:104710004E4B4F4C1E68002E2BD1310044224D4889
:1047200005F027F8310044224B4805F022F810220A
:104730004A4B4B491E604B4BCA67BFF34F8FBFF3C9
:104740006F8FC021C12049005A5080001958FF3690
:10475000B14319501A60444B444A5A8002232278CC
:10476000134323706378DB09012BFBD00122374B05
:104770001A6001231E00AE40626932436261019AF1
:10478000002A18D0102D1FD1E2781343E370009B4C
:10479000042B0BD818000723A2789A4302F08AF959
:1047A000030C0E10120005231343A3702A4B019A29
:1047B0001A64B6B2E660F7BD0423F5E70323F3E716
:1047C0000223F1E70123EFE738000027002100F082
:1047D0008DF9224B1F499C461B68BA00BB421DD174
:1047E0006046013303608E501B4B01999950072D91
:1047F00019DD0123083DAD000721A940144A9B00A3
:104800009B189A698A439A61009A042AD1D81000A9
:10481000996902F04FF90B10121416008858B04233
:10482000E1D00137D9E7AD000023E5E70522AA4032
:104830000A439A61BDE70422F9E70322F7E702225F
:10484000F5E70122F3E7C046D0E20000F4080020BB
:1048500000180040B00800206C080020F808002074
:1048600004E100E000E100E0000C00400540000031
:10487000F8B50024094B1B68A34200D8F8BD084EC8
:10488000084FA5003369EA591A4204D0064BEB5889
:104890009847EB5933610134ECE7C046F808002033
:1048A00000180040B00800206C080020054B10B52F
:1048B0001B6C002B00D098470123034AD1780B438F
:1048C000D37010BD6C08002000180040FA212D4B59
:1048D00010B51868890002F001F92B4B0138984295
:1048E0004FD82A492A4A4860C020136A00061B0292
:1048F0001B0A0343136200238B6007330B60802184
:10490000136A09061B021B0A0B431362FC22214B8C
:10491000196A0A431A62FF22196A12020A431A62CA
:10492000A022196AD2020A431A621B4B1C005A7851
:1049300052B2002AFBDB194A5A80194B1A00597EE1
:10494000C9090129FBD0C821890099800521D970A6
:10495000537EDB09012BFBD0C02300205B011361D8
:10496000907000F023F863785BB2002BFBDB0D4BFB
:104970000D4A6380D379DB09012BFBD041235370AF
:1049800010BDFEE704000020FFFFFF0010E000E084
:1049900000ED00E000040040000C00401E4000005C
:1049A0000040004221400000004800421F4900B57D
:1049B0000B004A7ED209012AFBD001380A282FD8E1
:1049C00002F078F81B2E2E2E2E2E062E2E241100ED
:1049D0001A6917490A400F211A615A788A4311004F
:1049E00001220A4310E01A6911490A400F211A6195
:1049F0005A788A4311000322F3E71A690C490A40E6
:104A00000F211A615A788A435A7000BD1A69084901
:104A10000A400F211A615A788A4311000222E0E706
:104A2000F022196912050A43F3E7C046004000422C
:104A3000FFFFFFF0182310B508244343134AD01892
:104A40000457013412D001249A5643689C4003292C
:104A50000CD808000E49D2015218D318403302F086
:104A600029F80210060B02211970546010BD0621AE
:104A7000197054609461F9E706211970546054610B
:104A8000F4E7022119709460F0E7C046D0E200001C
:104A9000004400411823F0B508245843114A131864
:104AA0001C5701341BD0012635005F688356BD407A
:104AB0000D4ADB019A18906805420BD10C00601E6C
:104AC0008441D2194032107834400336A400B043F8
:104AD00020431070044A9B18002901D15D61F0BD8C
:104AE0009D61FCE7D0E200000044004118224243EF
:104AF00070B52D4E0300B218127A52B21400013272
:104B00000ED0481C00240C280AD801F0D3FF071F40
:104B10001F1F1F1F1F1F1F0B0B0B0B0001246442C5
:104B2000200070BD092905D100211800FFF782FF80
:104B30000024F5E70A2901D10839F6E700240B29FA
:104B4000EED10A391800FFF775FFE9E718220120B6
:104B50005343F218F3565568144ADB016C089B184E
:104B6000C9B228401C1900280ED00F2030342278FA
:104B70000901024011434122C9B25B19217040333F
:104B800019780A431A70D3E722000F2630321478BE
:104B90005B19B4432143117041224033197804005A
:104BA0000A431A70BCE7C046D0E20000004400414E
:104BB0007047000010B5FDF7D5FAFDF7BDFBFFF714
:104BC000E7FC034B002BF8D000E000BFF5E7C04640
:104BD0000000000010B5FFF7EDFF000010B5FFF773
:104BE00075FE04F085FDFFF7E3FF0120FFF7AEFC43
:104BF000054C200001F0EAF8200001F06DF9FFF704
:104C0000E9FF002010BDC04618090020F7B50600D6
:104C10000D000C008B180193019B671B9C4207D071
:104C2000336821781B683000984701340028F3D19D
:104C30003800FEBD70B5040008000D0005F09EFEB2
:104C40002368020029005B682000984770BD10B5FA
:104C50000B1E02D0FFF7EEFF0300180010BD00008E
:104C600010B50249FFF7E6FF10BDC04652E2000052
:104C700070B50400FFF7EBFF05002000FFF7F0FF21
:104C8000401970BD0EB430B596B019AB04CB050019
:104C9000502102A8019306F085FD040002A9280016
:104CA000FFF7D5FF200016B030BC08BC03B0184792
:104CB000014B18607047C046080000200122024BDB
:104CC00052421A607047C04608000020164A10B5CC
:104CD0001368591C26D0013B1360002B22D172B6F9
:104CE000124B134A0433934213D9124A0121100084
:104CF000147D0C42FCD02021148BFF319B085B00FB
:104D000021431183D3610C4B13800123027D1A428E
:104D1000FCD0BFF34F8F094B094ADA60BFF34F8FC6
:104D2000C046FDE710BDC04608000020002000007E
:104D3000030200000040004102A5FFFF00ED00E07B
:104D40000400FA0510007047016070479446F0B502
:104D50009E1E721E96416246056892072F683606AF
:104D60003A4332432A60072505AC24780068A40141
:104D70002940214342680024022B00D05C031143E8
:104D800021434160F0BD30B5C0250368AD031C6808
:104D900012052A402243C0240904A40221401143E1
:104DA000196003685A6814435C6030BD01230268CF
:104DB00011680B43136003681A68D207FCD4DA69E0
:104DC000D207F9D470470223026811680B431360BD
:104DD0000268D3699B07FCD4704703681A7ED20728
:104DE00002D41A7E9207FCD57047002203685A83CA
:104DF00070470368187E4007C00F70470368187E2D
:104E0000C0097047802302685B42117E0B43137612
:104E100070470368588B8007C00F704702230268F1
:104E2000518B0B43538370470368187EC007C00F34
:104E300070470368188DC0B2704703681A7ED207A6
:104E4000FCD589B2012019857047012203689A7543
:104E50007047012203681A757047012302681168C0
:104E60000B43136003681A68D207FCD4DA69D207CF
:104E7000F9D470470223026811680B43136002687B
:104E8000D3699B07FCD470470368DA699207FCD4A6
:104E900002211A688A431A6070470268936A5B0AA3
:104EA0005B021943916203681A7E5207FCD5986A27
:104EB000C0B2704710B54900044801F00FFE80B23F
:104EC000002801D0013880B2C0B210BD006CDC02F5
:104ED00070B54B080C00012105680B400C402E6892
:104EE00024075B07234333432B6011000468FFF75B
:104EF000E1FF207370BD0123026811680B4313604A
:104F000003681A68D207FCD4DA69D207F9D470476B
:104F10000223026811680B4313600368DA69920781
:104F2000FCD430215A8B8A43110010220A435A8341
:104F30000268D3695B07FCD4704780230268DB02F8
:104F4000116851680B4353607047000003680349C0
:104F50001A685A680A405A607047C046FFFFFBFF54
:104F6000032230B5036811401C68074D5A680904D4
:104F70002A40E4061143640F5960052C03D10268EE
:104F8000D3695B07FCD430BDFFFFFCFF490010B5BF
:104F900011430468CBB2618B8906890F012904D0C3
:104FA000618B8906890F0229F5D1616AC90AC90294
:104FB000194361620368002A08D11A7ED207FCD522
:104FC000588B4007C30F012058400BE0187E800724
:104FD000C00FF5D11A7ED207F8D5C02259689202C7
:104FE0000A435A6010BD0368283319700368187E9D
:104FF000C007C00F03D15A8BD207F8D57047588B22
:105000004007C30F01205840F8E7036828331970A0
:10501000036800201A7E520704D5588B01234007ED
:10502000C00F5840704703681868C006400F043826
:1050300043425841C0B270470368187E4007C00F12
:1050400070470368187EC007C00F70470368588B0D
:10505000C006C00F70470368187E8007C00F7047F6
:105060000368588B0007C00F704703681A68D206A0
:10507000520F052A02D11A7E9207FCD528331878E0
:10508000C0B270470368104A934213D00F4A93424C
:1050900012D00F4A934211D00E4A934210D00E4ABA
:1050A00093420FD001200D4A4042934201D1063075
:1050B00040B270470020FBE70120F9E70220F7E744
:1050C0000320F5E70420F3E700080042000C00424B
:1050D000001000420014004200180042001C004270
:1050E000F8B5FFF7CFFF00282CDBC3001C48FF22D8
:1050F000C01805230479C35603201840C00082401D
:10510000C021D2438140002B1DDB1F2501201D4003
:10511000C026A840134D7600A851C0269B089B00CE
:105120005B19B6009F593A401143995128603F23BB
:1051300023408024E4011C430B4B5C805A7852B21C
:10514000002AFBDBF8BD0F200340083B07489B0803
:105150009B001B18D86902401143D961E7E7C0469C
:1051600068E4000000E100E0000C004000ED00E019
:10517000F8B504000F0016001D00FFF7B1FF200076
:10518000FFF714FE1C21BB000B4071072268090CBD
:105190000B431360842322689375012F1AD11021C9
:1051A000012E00D008390C4B69431868C00001F08B
:1051B00095FC0722216802408B895203DB04DB0C3B
:1051C00013438B81226803049089DB0C400B40035E
:1051D00018439081F8BDC04604000020F7B50400D4
:1051E000019308AB0D0016001F78FFF736FE200074
:1051F000FFF776FFC0223605920332400C26164395
:10520000C0222D0492021540072223683543BF07B0
:105210002F431F60019B216813401A0080239B02CB
:1052200013434B602268D3695B07FCD4F7BD0000D1
:10523000F8B504000F00FFF753FF2000FFF75BFEF7
:105240001422236879001A600C4B25681E68300010
:1052500001F044FC0A490400300001F03FFC7D23CA
:10526000FA215843C90001F039FCFF23241AE868E9
:10527000053C1C4098430443EC60F8BD040000204A
:1052800040420F000120704710B50368014A1B6AB5
:10529000984710BD130400000300FC33D9699A69D4
:1052A000914203D0DB69C018007D70470120404265
:1052B000FBE710B504000069FFF778FD220000232A
:1052C000FC329361D36186229200A4186360A360CC
:1052D00010BDF02001403039484248417047F0236A
:1052E0001B011940802306209B0099420AD00133FC
:1052F000FF330130994205D0802302385B00994288
:1053000000D0002070470F2001400020012903D069
:105310000239481E8141481C704700008923F0B5BE
:10532000182685B002919B000400C05C3300082160
:105330004343324D1700EB185956FFF7D7FB304B5C
:105340000821E05C33004343EB185956FFF7CEFBCE
:105350002C4BE25C0393022A09D11133E05CFF2855
:1053600005D008214643AE197156FFF7BFFB8A26C8
:10537000B600A05DFF2819D00121FFF75BFB1822C2
:10538000A35D21495A43AB56AD18DB0158188B2158
:10539000890060501D4901225B188C2189006350EF
:1053A00069688A408D21890062501A600122029B3F
:1053B00011002069FFF7DCFE39002000FFF78FFFA6
:1053C000390005002000FFF79EFF3900060020008D
:1053D000FFF77FFF33000090290020690122FFF7CB
:1053E000B5FC0B4B2069E25C039BE15CFFF7CBFC57
:1053F0002069FFF7E8FC05B0F0BDC046D0E2000030
:105400002502000027020000184400411444004116
:1054100026020000802210B504005200002104F092
:10542000A8F923000022FC335A6020009A6010BDC6
:10543000F7B51D0008AB1B780400009309AB1B787F
:105440001600019300234360FA239B008360114BF5
:105450000F00083303601430FFF7DCFF20001D301D
:10546000FF30FFF7D7FF89236A469B002761E65488
:10547000094B1278E554094B2000E2546A46084B68
:105480001279E2548A22293BFF3B9200A354103246
:10549000A354FEBD98E4000025020000260200008F
:1054A000270200000300FC3359689A68914204DB2C
:1054B0005A689868801AFF30704798685B68C01A0D
:1054C0000138F9E710B51D30FF30FFF7EBFF10BDD5
:1054D000030070B5FC33D9699A69040091421AD06F
:1054E000DA698218157DDA690132D2B2DA618A236B
:1054F0009B00E35CFF2B0CD020001430FFF7D2FFA1
:105500000A2806DD8C238D229B009200E358A258C6
:105510001A60280070BD01256D42E8E70300FC33E6
:1055200058689B68C01A01D50130FF30704710B52C
:10553000040020001D30FF30FFF7F0FF0028F8D1F5
:105540002069FFF74AFC10BD10B51430FFF7E6FFE5
:1055500010BD10B504000069FFF75BFC002805D002
:105560002069FFF766FC2069FFF758FC2069FFF708
:1055700040FC002820D02069FFF75BFC2200FC32B1
:105580009369D1690133DBB28B4203D09169611811
:10559000087593618A239B00E35CFF2B0CD02000ED
:1055A0001430FFF77FFF092806DC8B238D229B0038
:1055B0009200E358A2581A602069FFF735FC0028D2
:1055C0001AD020001D30FF30FFF7A8FF002822D09E
:1055D00086239B00E31899685A68914218D08E215F
:1055E0009A684900A218515C9A680132D2B29A6056
:1055F000C9B22069FFF721FC2069FFF7FFFB0028F3
:1056000005D02069FFF7FEFB2069FFF7EEFB10BD18
:1056100001214942ECE72069FFF71BFCECE70000A1
:1056200070B5040000690D00FFF7FEFB00283ED1B5
:10563000FF2686239B00E3185A689968013232409E
:105640008A4223D1EFF31083DB070DD41E4B5B6836
:10565000DB05DB0DEDD0103B5BB2002B0DDB9B08B7
:10566000C0331A4A9B009B582069FFF7DDFB0028D6
:10567000DFD02000FFF76DFFDBE70F221340083B70
:105680009B08134A9B009B181B68EDE75A68013280
:1056900016409A68964205D08E215A684900A21891
:1056A00055545E602069FFF7D0FB012070BD2000DB
:1056B0001D30FF30FFF732FF0028B9D129002069E3
:1056C000FFF7BBFBF1E7C04600ED00E000E100E0C2
:1056D0001CED00E010B51C00431A0298511A001B83
:1056E000584301F085FA001910BD3F20704713B5EB
:1056F0006B460268D9710733546819000122A0472C
:1057000016BD000010B50221006900F009FD034B31
:105710001B6801335A1E9341181810BD5C0000200D
:1057200010B50321006900F011FD10BD10B5032173
:10573000006900F0D9FC10BD10B5054C23685A1C57
:1057400004D103685B69984703002060180010BD0E
:105750005C000020074B0200186810B5411C03D004
:10576000012252421A6010BD0221106900F0D8FDDA
:10577000F9E7C0465C00002010B51300094A040098
:10578000D079C0B2002805D1627E002A02D0012360
:10579000636006E00A002069032100F0CFFD0028C5
:1057A000F5D010BD1000002010B50378422202335E
:1057B00003700249024800F06DFE10BD1800002081
:1057C0001809002010B50178020043780020A129B3
:1057D00008D1212B05D107221649174800F05AFE9F
:1057E000012010BD2129FCD1202B13D10722114902
:1057F000114800F0EFFC96220E4BD200196891423E
:105800000ED10124D87904400AD1FA20FFF750FACA
:105810000020E6E7222B06D19278064BDA71EAE700
:10582000FFF74CFAF4E7232BDBD15288034B1A60C5
:10583000D7E7C04610000020180900200C00002007
:105840000123437670470000FA220021054B9200A5
:105850009A60054A596008321A60044A19761A613A
:105860007047C046FC080020CCE400001809002066
:105870007047704770B50F26CB1D013902003240CA
:10588000D5B22C0000093034092A00DD07341C7021
:10589000013B8B42F2D170BDA02110B5040049003C
:1058A00001F004F9200010BDF8B5032908D1304BF0
:1058B0008000C058002802D003689B689847F8BD54
:1058C000822919D1C3B22B4D5A01AA1891692A4CC9
:1058D00080010C40C021890521439161274908338B
:1058E00040187021506128685B011A5C8A431100DE
:1058F00030220A431A54E2E70029E0D1C026C1B29F
:105900001C4C4B01E3189A681B4DB6052A403243E4
:105910009A601B4A800182185A600A00072724688F
:1059200008325201115DB9430F000121394311556D
:105930009F6912493D4040182E439E615861702076
:10594000115D8143080010210143115599680D48EC
:10595000A218084080214903014399609968890B86
:1059600089039960402311790B431371A7E7C0465F
:105970001C090020D00D0020FFFFFF8F44090020EC
:10598000040B0020FF3F00F0EFF3108303600123BE
:10599000436072B670470368002B02D162B6BFF352
:1059A0006F8F7047F7B50500FC35EB690600002BDB
:1059B00018D196277F00C45D6846FFF7E5FF019B7D
:1059C000E4B2013B02D3F45DE4B2FAE76846019326
:1059D000FFF7E1FF002C01D10020FEBDE86AAB6AB1
:1059E000C01AFAE76846FFF7CFFF9E220024019B0A
:1059F0005200013B02D3B45CE4B2FAE7684601937B
:105A0000FFF7C9FF002CE7D0E86BAB6BE8E70000BD
:105A100030B54468FC3043698069DBB25A01A21892
:105A20009168094D80042940000901439160916803
:105A30000833890B8903916022685B01D3184022E7
:105A400019790A431A7130BDFF3F00F0F7B5050020
:105A5000FF21FC356A6943680A401B68083252011D
:105A60009A18D3790400DB0754D50126D6716B69E7
:105A700062680B405B01D318286A9A689204920C02
:105A8000002822D1EA62EA6A002A40D06A6B2E62BC
:105A900068465A60FFF778FF9E273E21019B7F00F2
:105AA000013BFF315A1C2ED096225200A654E25DD3
:105AB000581ED2B2002A05D0665468460193FFF7FB
:105AC0006AFFF7BD62540300ECE7EA63EA6B002A61
:105AD0001DD000222A626A6A68465A60FFF754FFA6
:105AE00096273E21019B7F00013BFF315A1C0AD0C3
:105AF0009E225200A654E25D581ED2B2002ADBD18B
:105B000062540300F2E768460193FFF744FF200068
:105B1000FFF77EFF63681A686B69DBB208335B01CD
:105B2000D3187F22DA71CCE7F7B5070068463C004E
:105B3000FFF72AFF0026FF22019BFC34013B0DD317
:105B4000E0682169884204DBE6682069961B361804
:105B5000F4E72669E168761A013EEFE768460193AB
:105B6000FFF719FFE3696846002B52D1FFF70CFFDE
:105B70009621019B4900013B5A1C0CD07D5C5A1EAA
:105B8000EDB2002D05D168460193FFF704FF280010
:105B9000FEBD1300F0E7684601930025FFF7FBFE0A
:105BA000FF21A36AB54214D0E26A9A4211D95A1C65
:105BB000A262626AD3181878E36822690133C0B21E
:105BC0000B40934203D0E268BA181072E3600135CB
:105BD000E7E7E26A9A42DAD10023A3620133E36184
:105BE00068469624FFF7D0FE64003E220021019B08
:105BF000FF32013B581CC6D03955B85C5E1E0028E8
:105C000005D0B95438000193FFF702FFEDE73300E8
:105C1000F0E7FFF7B9FE9E21019B4900013B5A1CAA
:105C200006D07D5C5A1EEDB2002DACD01300F6E715
:105C3000684601930025FFF7AEFEFF21A36BB54236
:105C400002D0E26B9A421DD8E26B9A429FD10023A8
:105C50006846A363E3619E24FFF796FE64003E223C
:105C60000021019BFF32013B581C00D18BE73955C5
:105C7000B85C5E1E002817D0B95438000193FFF7B6
:105C8000C7FEECE75A1CA263626BD3181878E3686E
:105C900022690133C0B20B40934203D0E268BA18C4
:105CA0001072E3600135C9E73300DDE710B5040089
:105CB000FFF73AFF2300FC331969DA68914203D0F9
:105CC0001B69E418207A10BD01204042FBE710B5A3
:105CD0000400FC34FFF728FFE0682369C01A01D5EF
:105CE0000130FF3010BDF0B585B001920091050084
:105CF000FFF71AFF02A8FFF747FE01200024FF2646
:105D0000039B40425A1E531C1FD02B00FC330199A9
:105D10008C4218D2D9681F69C91B01D50131FF31E6
:105D2000002910D01969DF688C460100BC4506D0F7
:105D300019691F69691801373740097A1F61009F87
:105D400039550134E3E7013ADDE702A80392FFF792
:105D500022FE200005B0F0BD37B56B46DC1D0023E8
:105D60000D0020002370FFF71FFD2B681818286016
:105D700000F042FE210000F0FBFD2B68181828609F
:105D800020783EBD02220B0010B593430C00012B7E
:105D90000BD10D4B08341B6864011C198023217939
:105DA0005B420B432371E27110BD00F025FE210020
:105DB00000F012FE0028F7D0034B08341B68640182
:105DC0001C197F23E371EFE7D00D002070B500248C
:105DD000364B012105000B201C70FEF72BFE012124
:105DE0000B20FEF757FE324B01210C201C70FEF7F2
:105DF00021FE01210C20FEF74DFE20232D4A0F200D
:105E0000D1690B43D36101222B490B7813430B70EB
:105E10002A4B19788143197006211C782143197087
:105E200027490C7822430A701A7802401A706022BF
:105E300019780A431A70234B234A5A805A78D20998
:105E4000FCD12248FEF746FB214C7F26200000F0C3
:105E5000E5FD200000F0FAFD0C2008232168CA7837
:105E600082431343CB7003212268D3788B430139DB
:105E70000B43D370226813783340137004232268D5
:105E80001678334313702268C1241389A400834316
:105E90001048138103591B021B0A0351802303601E
:105EA00013781943012311702B7070BD390900203C
:105EB0003809002000040040584400413C4400419F
:105EC00059440041000C00400640000005690000F4
:105ED000D00D002000E100E00078002810D0012162
:105EE000084B1B681A898A431A810822198B0A43B6
:105EF0001A830422198B0A431A830022024B1A6068
:105F00007047C046D00D0020C80D002010B50F4AC4
:105F100093699B0B9B03936113680222FF331A72F0
:105F20009879823A02439A711A7A9207FCD57F24B3
:105F3000074A2140937A0800A343190080230143B4
:105F40009172917A5B420B43937210BDD00D002089
:105F50000050004110B50B790C00002B0CD108004B
:105F6000FFF730FC002801D0012010BD094A9369D9
:105F70009B0B9B039361F7E700F03EFD210000F0CF
:105F80001BFD0028F0D1034A93699B0B9B0393618F
:105F9000EBE7C046D00D0020F8B50D00832A19D1DB
:105FA000CBB2434C5A01A21891694248AD01084056
:105FB000C0218905014391613F4920686D18702116
:105FC000083355615B011A5C8A43110040220A4381
:105FD0001A54F8BD022A65D1384B8A00D0580028DF
:105FE00002D003689B699847A020400000F09AFC0B
:105FF00080270600324B7F0003602D4B0021436059
:106000003A00083003F0B5FB340096220023FC343C
:106010005200E360A36223616561E361A7612362CB
:10602000E362B3541032A363E363B3543E223800F7
:10603000FF32B35403F080FB6062380003F07CFB56
:106040002B006063FF201A4903405A018A189168A7
:10605000184F08330F40C021890539430727916045
:10606000134A5B011168AD005A5CBA431700032262
:106070003A435A5461697368014049015918636A87
:106080004B60736862691B68024052019B180122D1
:106090001B18997A30000A439A72FFF7B9FC074B34
:1060A000EE5096E711002800FFF7FEFB91E7C0468F
:1060B000D00D0020FFFFFF8F440900201C090020A5
:1060C000FCE4000070B505000124064BA200D25884
:1060D000002A06D0210028000134FFF75DFF0A2CBA
:1060E000F3D170BD600000200B4BCAB20B48890190
:1060F000C9185301C318596199690832890B89037A
:106100009961036852019A180223D3715179823B35
:106110000B4353717047C04644090020D00D002046
:10612000084B8A00D05810B5002803D00368DB68FC
:10613000984710BDC9B2044B4901591888688004BA
:10614000800CF6E71C090020D00D002010B50C00D3
:10615000FFF7E6FF00280CD0064BE4B21B680834BA
:1061600064011C19802362795B421343637102232B
:10617000E37110BDD00D002070B5CBB2124A1348A8
:106180005C0189018918021951609168104D08332A
:106190000D40802189022943402591609168890B37
:1061A0008903916001685A018A181679354315717F
:1061B00095796D06FCD55B01C918CB79DB07FCD559
:1061C00000198068C0B270BD040B0020D00D002003
:1061D000FF3F00F070B5140040220B4B0D001B6810
:1061E000FF3359790A435A710021FFF7C5FFA042D6
:1061F00000D9200000230549A34203D0CA5CEA5419
:106200000133F9E770BDC046D00D0020040B00201B
:1062100010B5C9B20B484901421893689B049B0C06
:106220003F2B0BD99468403B9B04A40B9B0CA4030D
:106230002343936041188868C0B210BD93689B0BDC
:106240009B03F6E7D00D0020F0B51C002F4B85B066
:106250001B6806000D000192002B54D02C4F39789A
:10626000C9B2002902D10C20FEF714FC64233B7054
:10627000284BAA00D058002808D0036822005B6889
:10628000019998470400200005B0F0BD29003000B6
:10629000FFF746FF844204D929003000FFF740FF92
:1062A000040029003000FFF7B3FF0121EBB21A4FC1
:1062B00003935B010293029A3B6801989B18FF339A
:1062C0005A7A0A435A72154BA901C918220003F0E1
:1062D00047FA002CD7D029003000FFF721FF002813
:1062E000D1D14021039B3A6808335B01D318187958
:1062F000014319710121D971029BD318FF339A7A96
:106300000A439A72BFE701246442BCE7C80D00202B
:10631000380900201C090020D00D0020040B0020AB
:1063200013B56B46DC1D22000123FFF78DFF01280A
:1063300001D1207816BD01204042FBE7F0B51E00D8
:106340003A4B85B01B680F000192002B3FD0802391
:10635000DB019E423BD8364C2178C9B2002902D1DC
:106360000B20FEF797FB642300252370314BBA0105
:10637000D3180293002E2CD02F4B1B680393FF23BE
:106380003B401C0000930834039B64011C19A37953
:10639000DB0921D0294B2A49186800F09FFB294BC3
:1063A0001721584300F09AFB274BE279920713D448
:1063B000DA5D002A01D10138F7D20122DA55009BBB
:1063C0005A011D4B9B189A69920B92039A61012501
:1063D0006D42280005B0F0BD00221B4B3400DA5599
:1063E000402E00D9402422000199029803F0B8F908
:1063F000009BA1045A01104B890C9B18029A2D197D
:106400005A619A69361B920B92030A439A61009B68
:10641000039A08335B01D3180222DA715979823A60
:106420000A435A71019B1B190193A3E7C80D002071
:106430003909002044090020D00D0020040000206C
:1064400040420F00701101003B09002070B50D00A3
:106450001C000D4BAE01F61811003000220003F0B5
:106460007FF9EDB209496D014D196E61AB69084ABA
:1064700020001340AB61AB69A2049B0B920C9B0301
:106480001343AB6170BDC04644090020D00D00200D
:10649000FF3F00F0F7B5104B01901B780F0015007F
:1064A000002B0CD10D4B16001C78002C09D00C4E83
:1064B0000C4834882018641903F052F934802800FD
:1064C000FEBD002EFBD03A19330000210198FFF7E2
:1064D000BDFF2418361AF4E7C40C0020C50D0020B7
:1064E000C60D0020C50C0020F8B5002000AF0E003E
:1064F0001500012A27D9D31D6A46DB08DB00D31A11
:106500009D46080004F03AFA6C460323022200215B
:106510000130400020706370AA420DD2307800280C
:106520000AD0531CDBB20136A0549D4203D0023284
:10653000E154D2B2F0E72A0021000448FFF7AAFF95
:10654000431E9841C0B2BD46F8BDC04618090020A0
:10655000F0B50024012685B0184B0F0069461E7067
:1065600005000094FFF7F8FB154B01A90B806A3B6F
:10657000FF3BCB716E3B0B72009B8C7109334B80E0
:106580000E4B4E7108711C703A00092F0FD00D4F41
:1065900009223E700C4E280000943480FFF77AFFE9
:1065A00069462800FFF7D8FB328808493C7028006C
:1065B000FFF770FF012005B0F0BDC046C40C0020FD
:1065C00009020000C50D0020C60D0020C50C0020EA
:1065D000F0B5CF7893B005000E00022F09D1C9881D
:1065E0002D48FFF7B5FF441EA041C4B2200013B0F0
:1065F000F0BD00F001FA310000F0CEF9002803D020
:10660000C417241AE40FF1E7012F0FD1F288082AEA
:106610000AD02249112A13D8D2B2002A10D0280059
:10662000FFF738FF0124E1E71D49F5E70400032FD8
:10663000DCD1B378002B05D1F2881A49032AEBD9B3
:106640000A78ECE7022B06D1B27917492800FFF748
:106650004BFF0400CAE7012B02D1B2791349F5E7D9
:10666000032BC3D1124B01A91868FFF703F9114B93
:1066700003A91868FFF7FEF80F4B05A91868FFF784
:10668000F9F80E4B07A91868FFF7F4F86B460533C5
:10669000DC77B27901A9D9E71809002034E50000B8
:1066A00046E500002AE500001CE500002EE500009C
:1066B0000CA0800040A0800044A0800048A0800082
:1066C00037B5040048780D000B2810D800F0F2F917
:1066D000061B0F2B0F40456D494C6669097801AACE
:1066E000002906D1022311802000FFF7AFFE012010
:1066F0003EBD002313802E4B1B78012B00D113705D
:1067000002230021F0E78A780023012A03D101AA9D
:106710001380284BF0E7264A1370274A93699B0B96
:106720009B039361E3E78D78012D06D10021214B76
:1067300001AA1D7011702B00D6E70120002DD7D1C2
:106740001B4B1D4A187093699B0B9B039361CFE70A
:1067500089782000FFF7DAFBC9E72000FFF738FF50
:10676000C6E70123154ACCE70B780020DB06BFD132
:106770002000FFF7A7FC2A20AA78104BFF301A60F0
:1067800002230D4A11680C5C23434A240B54FF3446
:106790000B5D2938FF3803430B55D4E70123084A22
:1067A000AFE78A78064B1A60B7E70020A0E7C0463B
:1067B0003A09002042090020D00D0020C80D002019
:1067C000CC0D0020474BF7B51C780600002C7CD17F
:1067D000454D2B689B8B1B070ED521002000FFF732
:1067E00063F82A6810231100FF31887A03438B7203
:1067F0003E4B1C60082393832B689A8B52071FD54E
:1068000004229A833A4A1378002B0AD01378013B6A
:10681000DBB213701378002B03D101210B20FEF79C
:1068200039F9344A1378002B0AD01378013BDBB2D4
:1068300013701378002B03D101210C20FEF72AF9E5
:106840002B68FF331A7AD2061ED510221A72597994
:1068500030320A435A716023274930000A781A42BD
:1068600034D1FFF72DFF2B68FF33002831D0802271
:10687000997952420A439A711A7A520604D54022F3
:106880001A72597A0A435A72012427002B681B8C0A
:10689000A343DBB20193019B23413B4212D023006F
:1068A0002A6808335B01D318DA79D20702D4DB797E
:1068B0009B0707D5114BA200D05800280DD00368C4
:1068C0001B6898470134082CE5D1F7BDFFF742FB60
:1068D000C9E720210A4A9171CEE7E1B23000FFF703
:1068E00051FAEFE7C50D0020D00D0020C80D0020A3
:1068F0003909002038090020040B00201C09002061
:10690000FF50004110B50248FFF75CFF10BDC046C4
:1069100018090020014B024A1A607047D00D002070
:106920000050004110B502F007FF10BD10B502F095
:106930000DFF10BD10B50200EFF3108172B60A4BC7
:106940001868002801D10948186018688218EFF308
:106950000884A24204D21A60002900D162B610BD98
:1069600001204042F8E7C046D40E0020F00E00207F
:1069700070B50E0000254468002C0BD02368310050
:106980005B6820009847002802DB2D18E468F3E7D5
:1069900001256D42280070BD70B50D004468002CC3
:1069A00008D0236829009B6820009847002802D15E
:1069B000E468F4E7200070BD70B50D004468002C59
:1069C00008D0236829001B6820009847002802D1BE
:1069D000E468F4E7200070BD70B50D004468002C39
:1069E00008D023682900DB6820009847002802D1DE
:1069F000E468F4E7200070BD0121054A10B5136872
:106A000004480B4003D1044C43600480116010BD66
:106A1000D80E0020DC0E00200204000070B5040037
:106A2000012304CC0500117820000B431370802251
:106A30000021520002F09DFE2B689A78D207FCD408
:106A40009A789207F9D45C6270BD00001F22144B43
:106A5000F0B51B68590B9C0C9B01114014405B0F57
:106A6000914200D105211F2C00D1023C072B00D1FF
:106A7000043B02688F01158D0A491F2629403943BE
:106A8000118505683440298D0A00B24322432A85C6
:106A900000681903028D044B13400B430385F0BDBE
:106AA000246080003FF8FFFFFF8FFFFF10B5FFF766
:106AB0003DFF10BD02B4714649084900095C490018
:106AC0008E4402BC7047C04603B47146490840007A
:106AD0004900095A49008E4403BC7047002243080C
:106AE0008B4274D303098B425FD3030A8B4244D396
:106AF000030B8B4228D3030C8B420DD3FF220902D8
:106B000012BA030C8B4202D31212090265D0030B96
:106B10008B4219D300E0090AC30B8B4201D3CB038C
:106B2000C01A5241830B8B4201D38B03C01A5241CE
:106B3000430B8B4201D34B03C01A5241030B8B42D0
:106B400001D30B03C01A5241C30A8B4201D3CB02BB
:106B5000C01A5241830A8B4201D38B02C01A5241A0
:106B6000430A8B4201D34B02C01A5241030A8B42A3
:106B700001D30B02C01A5241CDD2C3098B4201D3BB
:106B8000CB01C01A524183098B4201D38B01C01A39
:106B9000524143098B4201D34B01C01A52410309B0
:106BA0008B4201D30B01C01A5241C3088B4201D35F
:106BB000CB00C01A524183088B4201D38B00C01A0C
:106BC000524143088B4201D34B00C01A5241411A33
:106BD00000D20146524110467047FFE701B5002040
:106BE00000F0F0F802BDC0460029F7D076E7704704
:106BF00003460B437FD4002243088B4274D303091E
:106C00008B425FD3030A8B4244D3030B8B4228D3BE
:106C1000030C8B420DD3FF22090212BA030C8B42E4
:106C200002D31212090265D0030B8B4219D300E084
:106C3000090AC30B8B4201D3CB03C01A5241830B09
:106C40008B4201D38B03C01A5241430B8B4201D3B9
:106C50004B03C01A5241030B8B4201D30B03C01AE2
:106C60005241C30A8B4201D3CB02C01A5241830A5C
:106C70008B4201D38B02C01A5241430A8B4201D38B
:106C80004B02C01A5241030A8B4201D30B02C01AB5
:106C90005241CDD2C3098B4201D3CB01C01A52411C
:106CA00083098B4201D38B01C01A524143098B42A5
:106CB00001D34B01C01A524103098B4201D30B018E
:106CC000C01A5241C3088B4201D3CB00C01A5241B3
:106CD00083088B4201D38B00C01A524143088B4278
:106CE00001D34B00C01A5241411A00D20146524111
:106CF000104670475DE0CA0F00D04942031000D330
:106D00004042534000229C4603098B422DD3030A84
:106D10008B4212D3FC22890112BA030A8B420CD394
:106D2000890192118B4208D3890192118B4204D3BD
:106D300089013AD0921100E08909C3098B4201D33D
:106D4000CB01C01A524183098B4201D38B01C01A77
:106D5000524143098B4201D34B01C01A52410309EE
:106D60008B4201D30B01C01A5241C3088B4201D39D
:106D7000CB00C01A524183088B4201D38B00C01A4A
:106D80005241D9D243088B4201D34B00C01A524121
:106D9000411A00D20146634652415B10104601D3AE
:106DA0004042002B00D54942704763465B1000D338
:106DB000404201B5002000F005F802BD0029F8D0DE
:106DC00016E770477047C0468446101C62468C46E2
:106DD000191C634600E0C0461FB501F0D9FC00282D
:106DE00001D40021C8421FBD10B501F031FC404262
:106DF000013010BD10B501F0CBFC002801DB0020F4
:106E000010BD012010BDC04610B501F0C1FC002826
:106E100001DD002010BD012010BDC04610B501F0FD
:106E200053FC002801DC002010BD012010BDC0462D
:106E300010B501F049FC002801DA002010BD012046
:106E400010BDC0468446081C6146FFE71FB500F030
:106E5000F1F9002801D40021C8421FBD10B500F08F
:106E600073F94042013010BD10B500F0E3F900287D
:106E700001DB002010BD012010BDC04610B500F0A0
:106E8000D9F9002801DD002010BD012010BDC04649
:106E900010B500F081F9002801DC002010BD0120B0
:106EA00010BDC04610B500F077F9002801DA0020C7
:106EB00010BD012010BDC0469E2110B5C905041C9F
:106EC000FFF7F0FF002803D1201C00F0F9FC10BDF3
:106ED0009E21201CC90500F02FFB00F0F1FC80234F
:106EE0001B069C466044F2E770B500220C4B040080
:106EF0000D00FFF79DFF002804D12000290002F0BB
:106F000085FA70BD064B00222000290001F01AFF0F
:106F100002F07CFA80231B069C466044F1E7C046E1
:106F20000000E041F8B557464E464546DE4644026D
:106F3000E0B546008846640A360EC70F002E63D0BF
:106F4000FF2E24D08023E400DB041C430023994659
:106F50009B467F3E434642465D02D20F5B006D0A70
:106F60001B0E9046924665D0FF2B55D08022002103
:106F7000ED00D2047F3B1543F61A43464A467B4058
:106F80000F2A00D98DE06D48920082589746002C58
:106F900054D108239946063BFF269B46DAE7002595
:106FA000534602291BD0032900D1BFE0012928D074
:106FB00030007F30002820DD6A0704D00F222A40ED
:106FC000042A00D004352A0103D530005C4A803001
:106FD0001540FE2803DCAC01640AC2B201E0FF22C6
:106FE00000246402D205600ADB07104318433CBC4E
:106FF00090469946A246AB46F8BD0122101A1B28BE
:107000007CDD00220024ECE7002C1DD104239946EE
:10701000033B00269B469DE7FF3E002D20D1022129
:1070200043464A467B400A430F2AD8D84548920037
:1070300082589746002D19D10121F1E70C2399467A
:10704000093BFF269B4685E7200002F005FB7626DC
:10705000431F9C4000237642361A99469B4679E7A7
:107060004A4603231A439146032186E7280002F08B
:10707000F3FA431F36189D40763600217DE78024C1
:107080000023E403FF22ACE700258023DB031C423E
:1070900028D01D4226D12B435C02640A4346FF22BE
:1070A0009FE762016C01A24224D21B210025013E10
:1070B000012710006D005200002801DB944201D826
:1070C000121B3D4301390029F3D11400621E944183
:1070D00025436DE7BA46594625005346022900D09C
:1070E00061E77CE78023DB031C436402640A3B0006
:1070F000FF2276E7121B1A210125D9E79E362A00C6
:10710000B5402C00C240651EAC411443620704D058
:107110000F222240042A00D00434620103D4A401C7
:10712000640A00225DE7012200245AE78024E40378
:107130002C436402640AFF2253E7C04658E500006E
:10714000FFFFFFF798E5000070B542004E024C00CB
:1071500045026D0A120EC30F760A240EC90FFF2ACC
:107160000FD0FF2C11D00120A24200D070BDB5423B
:10717000FCD18B420DD0002AF8D12800451EA84131
:10718000F4E70120002DF1D1EBE70120002EEDD135
:10719000E9E70020EAE7C04670B54A004E02450222
:1071A00044006D0A240EC30F760A120EC90FFF2C7D
:1071B00015D0FF2A0ED0002C15D1002A01D1002EA7
:1071C0001CD0002D14D08B4227D00220013B184048
:1071D000013870BD002EEED002204042F9E7002DAC
:1071E000FAD1FF2A0ED0002A0ED1002EEDD00BE0EE
:1071F00001230139994308000130EAE70020002DFE
:10720000E7D0E2E7002EE7D18B42DED1944205DDE4
:107210000221581E08400138DBE70024A24204DCAA
:10722000B542D2D80020B542D3D2581E012398438C
:107230000130CEE730B5420044024D02C30F480092
:10724000640A120E6D0A000EC90FFF2A12D0FF2821
:107250000CD0002A12D1002819D1002D17D1002CF2
:107260002BD00220013B1840013826E0002DF0D041
:10727000022022E0002CFBD1FF281FD000281FD1C4
:10728000002D1DD10220013B1840013815E0002CD3
:107290000ED08B42E5D10022904204DCAC42E0D813
:1072A0000020AC4209D2581E01239843013004E06B
:1072B0000123013999430800013030BD002DD7D199
:1072C0008B42CED18242E7DD0221581E08400138B0
:1072D000F3E7C046F0B54E4657464546DE46E0B5B4
:1072E00043025B0A450083B00F1C99462D0EC60F62
:1072F000002D57D0FF2D24D08020DB00C004184380
:10730000002381469A469B467F3D7C027A00FB0F14
:10731000640A120E984623D0FF2A4BD0E300802443
:107320000020E4047F3A1C43AD186B1C47460193D0
:10733000534677403A000F2B48D87D499B00CB58E5
:107340009F46002B00D085E008339A46063B9B46BB
:107350007C027A00FB0FFF25640A120E9846DBD1EF
:10736000002C00D090E0524601231A43924601209F
:10737000DBE74C4658461700022824D0032800D1EA
:10738000CFE00022002301284DD15802D205400A47
:10739000FF071043384303B03CBC90469946A246D1
:1073A000AB46F0BD002B5BD104239A46033B00257E
:1073B0009B46AAE7FF35002C60D1524602231A43B0
:1073C00092460220B1E7FF220023DEE74B461B0C6A
:1073D0009C464B462604360C180461463300220CAA
:1073E0006446000C43434E435043544380191A0CE7
:1073F0001218964203D9802149028C4664441B042A
:107400001B0C1004C01883015E1EB341800E18438C
:10741000130C1B199B0103431C00230179D5012385
:1074200062081C401443019A7F32002A4DDD630735
:1074300004D00F232340042B00D00434230103D5B0
:107440003C4B019A1C408032FE2ABCDCA3015B0A43
:10745000D2B29AE70C239A46093BFF259B4654E794
:10746000180002F0F9F84A46431F76259A40002397
:107470006D4291462D1A9A469B4646E75246032393
:107480001A439246032050E7200002F0E5F8431F1C
:107490002D1A9C40763D002047E780230027DB0320
:1074A000FF2272E7424666E74C463200584662E7E2
:1074B00080234A46DB031A4222D01C4220D12343B8
:1074C0005B025B0A4746FF225FE701239A1A1B2AE9
:1074D00021DC23000199D3409E318C401A00230007
:1074E0005C1EA34113435A0704D00F221A40042AFA
:1074F00000D004335A0111D49B015B0A002244E7F7
:1075000080234A46DB0313435B025B0A3700FF22FA
:107510003BE7019587E70022002336E7012200239D
:1075200033E78023DB0323435B025B0AFF222CE764
:10753000D8E50000FFFFFFF7F8B54746CE46440008
:10754000C20F80B547024802400A8446664648009A
:107550007F0A240EF60025009046FB00000EC90F9E
:10756000B146FF2800D185E001267140261A9142DC
:1075700057D0002E43DD002800D07FE04946002987
:1075800000D1AAE0013E002E00D0F7E05B1A5A01BC
:1075900000D48BE09B019C09200002F05DF80538C7
:1075A0008440854200DDD3E0451B230020200135C7
:1075B000EB40451BAC40621E944123430724002549
:1075C0001C40012241460A40002C04D00F211940E2
:1075D000042900D00433590100D480E00135ECB215
:1075E000FF2D00D0A3E0FF2400235B02E405580A2E
:1075F000D207204310430CBC90469946F8BD002E9C
:1076000074D1601CC0B2012800DCA7E04A469C1A75
:10761000620100D5B6E0002CBED100220024002378
:10762000E3E7002E00DC85E0002846D0FF2C49D09F
:1076300080224846D2041043814601221B2E09DCD9
:1076400020204C46801B84404A462000F240441EC5
:10765000A04102439B185A0128D50135FF2D00D1C6
:10766000A8E00122072494491A405B080B40134309
:107670001C40A6E7002E00D078E775E7FF2C54D019
:1076800080224946D2041143894601221B2E09DC7F
:1076900020214846891B88404A460100F240481E86
:1076A00081410A439B1A5A0100D573E701224146E2
:1076B0000A40590700D089E711E04846002858D110
:1076C000FF2C0CD1DB08002B00D18CE78020C003FD
:1076D00003435B025B0AFF2487E7FF2C25D0DB080E
:1076E000FF2DF0D05B025B0AECB27EE7002C4DD0A0
:1076F000FF2818D08024E404724223431B2A00DDB3
:10770000C4E01C002025D440AA1A93405A1E93417D
:1077100023434A460500D31A884638E7721CF8D03E
:10772000F243FF28EAD10A004B46FF25D7E79B0129
:107730005B0A5AE7002E41D1651CE9B2012945DDFB
:10774000FF2D00D14FE707244B445B081C4038E76E
:1077500007225A4B2D1A2340144032E7002C1DD12A
:10776000002B7AD14B46002B00D191E00A00002576
:10777000B5E7013E002E19D14B446CE7FF2C84D1B4
:10778000FF25ACE74A468846D41A05E7002BC5D149
:107790000A00FF28C8D005004B46A0E7002B49D1BE
:1077A0004B46002B77D00A00FF2598E7FF2C00D02E
:1077B00043E787E70A00FF24002316E7002C15D1D2
:1077C000002B57D1FF28E6D14B467BE7002C20D178
:1077D000002B57D04946002953D04B445A0168D555
:1077E0000724364A1C4001251340EAE6FF28EBD067
:1077F0008022D204764213431B2E53DC2025AD1B7E
:107800001A00AB40F2405C1EA34113434B440500F9
:1078100021E7002BD8D04946002900D152E780212A
:10782000C9030F4200D14DE76046084200D049E746
:107830004B4647E74846FF25002800D14FE7802206
:10784000D203174204D06046104201D14B4688460D
:1078500001224146FF250A4041E7484600281FD043
:107860001A1A500120D54A460724D31A1C408846CC
:107870000025A6E6741CC9D0F643FF28BCD14B46B0
:1078800020E799464B460025DB082BE7012340E71C
:1078900000220023A9E680230022DB03FF24A4E6C4
:1078A00000251CE70123B1E7002AF1D013000025D1
:1078B000FCE60025FAE6C046FFFFFF7DFFFFFFFB69
:1078C00041024200C30F490A120E00207E2A0DD940
:1078D0009D2A0CD8802000040143952A0ADC9620BA
:1078E000821AD1404842002B00D108007047034A59
:1078F0009818FBE7963A9140F4E7C046FFFFFF7FF8
:1079000070B500283DD0C317C5185D40C40F2800CE
:1079100001F0A2FE9E22121A962A07DCD2B2082893
:1079200033DD083885406802400A23E0992A0BDDE0
:10793000052329001B1AD94003001B339D402B004F
:107940005D1EAB4119430D00052801DD431F9D401D
:107950002B000F490B406E0709D00F263540042D30
:1079600005D004335D0102D59F220B40121A9B0102
:10797000580AD2B24002D205400AE407104320431D
:1079800070BD002400220020F4E76802400AF1E7FD
:10799000FFFFFFFB70B5041E34D001F05DFE9E2298
:1079A000121A962A07DCD2B208282EDD0838844045
:1079B0006002400A21E0992A09DD030021001B33FF
:1079C00099404B1E994105231B1ADC400C430528A6
:1079D00001DD431F9C4023000D490B40650709D082
:1079E0000F252C40042C05D004335C0102D59F22C6
:1079F0000B40121A9B01580AD2B24002D205400A2B
:107A0000104370BD00220020F7E76002400AF4E74F
:107A1000FFFFFFFBF0B54F464646D6460C00090374
:107A2000C0B5490A470F5E0039431F03DB0F9C4670
:107A300065007B0A570F1F436D0DE40F760DA146BD
:107A4000C000B846D200AB1B64457BD0002B5FDD85
:107A5000002E00D0A4E03E00164300D112E15E1ECD
:107A6000002E00D09EE1871A4346B842804101258E
:107A7000C91A4042091A0B0200D431E149024E0AE8
:107A8000002E00D16EE1300001F0E6FD0300083B5E
:107A90001F2B00DD61E120223900D21A9E40D14027
:107AA0009F400E439D4200DD51E15D1B6B1C1F2B6F
:107AB00000DD7CE12021C91A3D0030008F40884064
:107AC000DD40791E8F41310007222843D94000252F
:107AD00007433A40002A09D00F233B40042B05D02E
