:020000040040BA
:1000000018A54020452140004121400041214000E9
:1000100041214000412140004121400000000000FA
:10002000000000000000000000000000412140002E
:1000300041214000000000004121400041214000DA
:100040004121400041214000412140004121400028
:100050004121400041214000412140004121400018
:1000600041214000000000009D1F4000B11F4000E2
:10007000C51F400041214000412140004121400076
:10008000D91F4000ED1F40004121400041214000A8
:1000900041214000412140004121400041214000D8
:1000A00041214000412140004121400041214000C8
:1000B00041214000412140004121400041214000B8
:1000C00041214000412140004121400041214000A8
:1000D000412140004121400041214000D50D400018
:1000E0004121400041214000412140004121400088
:1000F0004121400041214000412140004121400078
:100100004121400041214000412140004121400067
:10011000412140000000000000000000000000003D
:100120004121400041214000412140004121400047
:100130004121400041214000412140004121400037
:100140004121400041214000412140004121400027
:100150004121400041214000412140004121400017
:10016000412140004121400010B5054C237833B9AE
:10017000044B13B10448AFF300800123237010BD7A
:10018000E809402000000000D49840000C4B43B127
:100190000C480D4910B5AFF300800C48036823B933
:1001A00010BD0A48036833B97047094B002BF7D0DC
:1001B000BDE810401847064B002BF5D0184700BF8C
:1001C00000000000D4984000EC094020D498400082
:1001D000000000002DE9F04180B90C469046002A4D
:1001E0000FDD8F18084E094D306821462B6898475F
:1001F0000134BC42F8D14046BDE8F0814FF0FF38F1
:10020000F9E78046F7E700BF00834020E87240200E
:10021000038801339BB28B4228BF002303807047C1
:10022000F0B5D0F800E001EB810300EBC3035A689E
:100230001E69DEF8004024F00804CEF800400024D7
:100240001C85DC849B8CFBB1344600234FF00047B7
:1002500001EB810500EBC50046F8332067600133F0
:10026000858C02F2EE5208349D42F5D806EBC505A6
:100270004FF0404345F8043C41B126F0030601F23B
:100280000F114EF82160F0BD0025EFE726F00306C0
:10029000CEF81C60F0BDF0B5D0F800E001EB8103B2
:1002A00000EBC3039A68DE68DEF8004024F0040423
:1002B000CEF8004000245C841B8C13B3344600232A
:1002C0001F4601EB810500EBC50022F0030546F84F
:1002D000335067600133058C803208349D42F4D876
:1002E0006FF060432B4456F8332042F0020246F888
:1002F000332041B126F0030601F21F114EF82160B0
:10030000F0BD0025ECE726F00306CEF81860F0BD3E
:10031000F8B504460E461546002303604FF0FF3340
:10032000C362036843F0200303600F23036240F2BB
:100330003F1343614268454B134343602B78002BC6
:1003400079D0436843F0100343606B78002B77D17A
:10035000636823F020036360D4F80034D4F80434D5
:10036000D4F80834D4F80C34D4F81034384B4FF0A7
:10037000FF321A604FF040425A6023F00303C4F882
:100380004034C4F84434C4F84834C4F84C34C4F895
:100390005034304B6FF001021A6000275F6023F089
:1003A0000303C4F88034C4F88434C4F88834C4F82F
:1003B0008C34C4F89034636A274B23F00703B3608E
:1003C000264B23F00703F36010223284244B23F0E2
:1003D00007037360234B23F007033361B284224B7E
:1003E000F36139463046214B984739463046204B19
:1003F0009847236843F008032360236843F004030D
:100400002360236843F08003236043F6F643A3622E
:100410006A792B791B0443EA0263AA781343EA78CA
:1004200043EA0223C4F88830EA79AB7943EA02232D
:10043000C4F88C30F8BD436823F01003436084E7B0
:10044000636843F02003636086E700BF0221020077
:10045000500B4020880A4020580B4020080A4020BA
:1004600058134020D00A4020900A402097024000B4
:10047000210240002DE9F04F87B0029101EB810489
:1004800000EBC404668CADF81660002A00F0CB8047
:100490008E461546E26802EBC6044FF0000C109F32
:1004A000C7F800C052F8362012F0010F00F0BD80EE
:1004B00001959B460391054601EB810300EBC303C5
:1004C00022330093E046E146674601EB8106F600E1
:1004D0001CE0AB19198C0DF11600554B9847B8F17B
:1004E000000F3AD1236823F001032360AB19BDF854
:1004F00016205A84AB19BDF81620DB6803EBC20442
:1005000053F8323013F0010F00F08980636813F460
:10051000804FDED0AB195B8CBDF816209A4213D009
:10052000AF19DFF80C81FA6802EBC30452F83310FC
:1005300021F0010142F83310398C0098C0477B8CC0
:10054000BDF816209A42EED1AB19198C0DF11600A8
:10055000374B9847DDF804900027BDF816A0AB197B
:100560005B8C534508D007F180035B451DD9ABEB8D
:1005700007081FFA88F81AE0029B03EB830305EBD8
:10058000C3052B4C009E698CEA6852F8313023F089
:10059000010342F83130298C3046A0476A8CBDF8FF
:1005A00016309A42EFD103203AE04FF080082168DC
:1005B000424621F0030148461E4B9847C144474438
:1005C000636813F4004F02D14FF0010892E7C3F3C0
:1005D0000B03109A1360039B03EB830305EBC30328
:1005E0005B8C9A4514D0029A02EB820205EBC2059D
:1005F0000F4CE96851F8332022F0010241F8332012
:10060000298C0098A0476B8CBDF816209A42F0D137
:10061000109B1868874234BF0520002000E00420AA
:1006200007B0BDE8F08F0620FAE70420F8E700BF26
:1006300011024000313040002DE9F04740F2EE5603
:10064000B34202D90620BDE8F08701EB810500EB3B
:10065000C505EF8CFE00D5F810E00EEB06082C8DDA
:1006600007F1010CA4EB0C04B5F824C094FBFCF5D5
:100670000CFB15441CB946447468002C41DB1E4633
:1006800094460C460546D0F8009001EB810300EB40
:10069000C303D3F81CA002B12EBB089B4AF8273035
:1006A00004EB840305EBC303DA8C9B8C013B9A4279
:1006B00020D0C6F30C0343F40043C8F8043004EB25
:1006C000840305EBC303998C03F126000E4B984776
:1006D000BFF34F8FD9F8003043F40073C9F80030EE
:1006E0000020BDE8F0875EF8370032466146074BD0
:1006F0009847D2E7C6F30C03054A1A43C8F804200A
:10070000DDE70220BDE8F0871102400031304000F3
:10071000008000402DE9F04385B007460D4606688D
:100720000C46002953D1736A0393336A02937369A9
:100730000193316B039B494A0A4323EA0203039363
:10074000039B13F0020F03D1029B13F0020F14D08E
:10075000029B03F00403002B0CBF02200620029B27
:1007600013F0010F18BF40F00100306205EB850364
:1007700007EBC3035B6903B19847039B13F0800F3A
:1007800003D1019B13F0200F65D0019B13F0040FE0
:1007900023D14FF02009019B13F0020F18BF49F03D
:1007A0000209C6F8149005EB850307EBC303DA8C46
:1007B0001B8D9A4237D06E1C06EB860607EBC606E9
:1007C00004EB840407EBC404DFF898801CE001F11B
:1007D000FF0356F823300393A7E729463846204BFA
:1007E0009847336843F0080333604FF00409D2E7B9
:1007F000A18C3046C047E38C228D9B1AA18C93FBC1
:10080000F1F201FB123373B1228DE169236903EB2D
:10081000C2035B68002B06DA51F82230002BE7D0C8
:1008200048469847E4E705EB850307EBC3031A8DB9
:10083000D98C0131521A988C92FBF0F100FB1122F5
:1008400093F82A309A4206DB05EB850507EBC505D0
:10085000AB6903B1984705B0BDE8F083000303F826
:10086000210240001102400008B5074B984203D016
:10087000064B984204D008BD1520054B984708BD8B
:100880002A20034B9847F6E700800040008005408F
:1008900021214000436823F4702343604368090426
:1008A00001F47021194341607047436823F07F438E
:1008B0004360436843EA01614160704710B443F606
:1008C0009923046914F0010F03D1013BF9D10120F0
:1008D00009E08368406810F0020F02D0C3F30340C0
:1008E00010700B8000205DF8044B704730B443F665
:1008F0009924056915F0020F03D1013CF9D10120BB
:100900000CE0446814F0020F06D0120402F47022C6
:1009100011430BB141F08071C160002030BC7047C1
:1009200032B900EB8100036B23F0010303637047CE
:1009300000EB8100036B43F001030363704732B99E
:1009400000EB8100036B23F002030363704700EBAD
:100950008100036B43F0020303637047042A03D052
:100960006AB1082A16D0704700EB8100036B23F0B0
:1009700008030363036B43F004030363704700EB56
:100980008100036B23F008030363036B23F004036C
:100990000363704700EB8100036B43F008030363BC
:1009A000E1E700EB81010B6B23F0F0030B630B6BB2
:1009B0001A430A6370477AB110B4144600EB810100
:1009C0000B6B23F47F430B630A6B42EA04220A6336
:1009D00000205DF8044B70474FF0FF30704710B4B3
:1009E00000EB8101086B80B208630C6B44EA03637F
:1009F00043EA02430B635DF8044B704710B40B01EC
:100A0000934214D9C9004B0803EBC202B2FBF1F2C6
:100A1000D3085C1E4FF6FE718C4201D9012017E00D
:100A2000416841F4002141600CE0012010E05908C8
:100A300001EBC202B2FBF3F2D3085C1E4FF6FE716B
:100A40008C42F2D8120402F4E0221A43026200201F
:100A50005DF8044B70470000084BC0F8E4300023F9
:100A600043604362836288230360242303604FF45E
:100A7000807303604FF400230360704700415355B7
:100A800070B505460C4616460F4B984700220F4B93
:100A90001A60A4B13246216828460D4B9847024699
:100AA00078B96368A1680B4321690B43E1680B4384
:100AB00006490B6069680B436B60104670BD0122EC
:100AC000FBE70122F9E700BF590A400038724020D5
:100AD000FD09400040230360704710230360704706
:100AE000436913F0020F04D0C1F30801C161002073
:100AF000704701207047436913F0010F05D08369E7
:100B0000C3F308030B60002070470120704700000A
:100B100010B582B0054B00934FF4C063044A002126
:100B20000448054CA04702B010BD00BFE082402041
:100B3000E4754020EC7440207504400038B5274A25
:100B4000274B1A601A461368591E1160002BFAD100
:100B50002720244B9847244A002515705570234BB5
:100B60001868C2F802009B88D3802149214C0C6090
:100B70002046214B98478022204B5A60204A294624
:100B80002046204B9847C8B900211A481E4B984769
:100B9000C8B90122002117481C4B9847C0B91C4B0B
:100BA0001C4A117819705178597091789970D278DF
:100BB000DA7046F291329A80012038BD1648174B00
:100BC0009847284638BD1648144B9847002038BD32
:100BD0001448124B9847002038BD00BF005A6202EB
:100BE000E075402021214000E47B4020100040209F
:100BF000EC744020000005401103400000E100E0DB
:100C000000A3E111CD194000D1174000DD164000CE
:100C1000E48240200C004020F09140009D324000D2
:100C20000892400020924000F0B585B0858A2A02E3
:100C300092B242EA1522012A01D005B0F0BD0E465B
:100C40000446837842780178214F407902902079D8
:100C50000190E078009038461E4DA847237AE2794B
:100C6000A179E07A0290A07A0190607A00903846EB
:100C7000A8470023237502236375631E1648611D70
:100C8000DA7903F8012F10F8012B9A719D7D83F812
:100C900020509A758B42F3D104F11B030F4A04F1E3
:100CA0001F005978D97212F8011B03F8011F834203
:100CB000F7D100210091334622460948094CA0474C
:100CC00010F0FF0FB9D0C1B20748024B9847B4E704
:100CD000BC914000A92F4000100040200C00402093
:100CE000EC74402039064000D891400090F8223042
:100CF000082B00D0704770B582B000F122060023A7
:100D000080F8223080F8233080F8243080F82530B5
:100D1000028A13029BB243EA1223A3F1140212F0D7
:100D2000010F03D00021B154A3F1130252083ED0A9
:100D300000210D4636F8024B23029BB243EA1423EE
:100D40001D4401318A42F5D12B0C13FA85F5ED4390
:100D5000ADB22B0A43EA0525858400F11903174A31
:100D600000F11D045978597112F8011B03F8011F95
:100D7000A342F7D1421E1249451D2B465C7802F86A
:100D8000014F11F8014B03F8014FAA42F6D1024678
:100D9000018A0B029BB243EA1123002100910E331A
:100DA0000848094CA047014618B902B070BD154665
:100DB000CAE70648064B9847F7E700BF0C004020FB
:100DC00010004020EC74402039064000A4914000FF
:100DD000A92F400008B500210148024B984708BDE3
:100DE000EC744020150740002DE9F04F83B000AFB0
:100DF0000E46144601462948294B9847002C45D0F9
:100E000034445FFA84FADFF8A8B0C7F804D09BF83E
:100E10000040E31D23F00703ADEB030D6D4606F123
:100E200001095FFA89F9C7F800D004F1080323F03B
:100E30000703ADEB030D06F01F068DF80060611C83
:100E40006846184B98475CB10DF101086B1E611E96
:100E500055FA81F118F8012B03F8012F8B42F9D1D3
:100E6000D7F800D010480E4B9847013C2C1908D2F7
:100E7000DFF840800A4E14F801194046B047A542F9
:100E8000F9D9D7F804D04E46D145BED10748044B16
:100E900098470C37BD46BDE8F08F00BF689340000F
:100EA000A92F40002D1640006C934000F89540009B
:100EB000EC82402070934000F8B500AF561C02F160
:100EC000080323F00703ADEB030D6D4600F01F0090
:100ED00040F020008DF8000052B14B1E681C013A12
:100EE00051FA82F413F8012F00F8012BA342F9D133
:100EF00031462846024B98472878BD46F8BD00BFCA
:100F00002D16400000B583B000F01F008DF80400DE
:100F1000FF238DF80530022101A8034B98479DF867
:100F2000050003B05DF804FB2D1640002DE9F843E1
:100F30000D46164601460D480D4B984786B12E4486
:100F4000F6B2DFF83490DFF83480094F6C1CE4B25D
:100F50002846C84701464046B8472546A642F5D12F
:100F60000448034B9847BDE8F88300BF68934000EE
:100F7000A92F4000F8954000050F400078934000ED
:100F800000B583B000F01F0040F020008DF8040091
:100F90008DF80510022101A8034B98479DF8040025
:100FA00003B05DF804FB00BF2D16400000B583B010
:100FB00002A8E22300F8013D0121034B98479DF868
:100FC000070003B05DF804FB2D16400000B583B0A8
:100FD00002A8E12300F8013D0121034B98479DF849
:100FE000070003B05DF804FB2D16400000B583B088
:100FF00002A8FF2300F8013D0121034B98479DF80B
:10100000070003B05DF804FB2D16400038B5054617
:1010100006200C4B984700F0F704012D0BD0214619
:101020000620094B98470620064B9847844214BF78
:101030000020012038BD44F008044122034B1A600F
:10104000EDE700BF050F4000810F4000F88240200F
:1010500008B50620044B984700F02800082814BF64
:101060000020012008BD00BF050F400010B5044658
:101070000020074B984700F0F3012CB1012C0CBF66
:1010800041F0080141F00C010020024B984710BDCF
:10109000050F4000810F400038B50020084DA847DB
:1010A00004460120A84714F0080F02D108B9002017
:1010B00038BD04F00404002C14BF0220012038BD08
:1010C000050F400010B504460620084B984700F075
:1010D000F801032C08D86400013404F0FF04214314
:1010E0000620034B984710BD0724F8E7050F400082
:1010F000810F400008B50620024B9847C0F341001D
:1011000008BD00BF050F400070B584B0314B1968B1
:10111000314BA3FB0131890C3048314DA847314B8D
:101120009847014600F001030293C0F34003019386
:10113000C0F300130093C0F34013C0F380122A4899
:10114000A84702220A212948294EB04704220C212F
:101150002848294CA047012210212848B0470622E0
:1011600011212748A047012203212648A047012238
:1011700011462548A047012202212448A047012208
:1011800005212348A047012206212248A047012229
:1011900000212148A04702221C212048A047204BC3
:1011A0009847204B53F820101F48A8471F49204854
:1011B000A847204B9847204B53F820101F48A847BA
:1011C0001F4B98471F4B53F820101F48A84704B0E7
:1011D00070BD00BF1800402083DE1B4338924000E2
:1011E000A92F4000ED0F400050924000989240001F
:1011F000E90D4000A89240002D0F4000B892400039
:10120000C4924000D0924000DC924000E492400042
:10121000F0924000F8924000049340000C9340008C
:1012200051104000C09340001C934000CC934000FC
:1012300030934000991040009C9340004093400040
:10124000F5104000F89340005493400010B5023868
:1012500010F0FF0007D100210320084B984702221D
:10126000074B1A7010BD00F0030421460320034B06
:101270009847A01C024B187010BD00BF810F4000A2
:10128000EC82402000B583B0054B1B8802A820F8F3
:10129000043D0221034B984703B05DF804FB00BFF7
:1012A000349240002D16400008B57D288CBF7D216A
:1012B00001460520014B984708BD00BF810F400043
:1012C00008B50020074B984710F0020F00D008BD6A
:1012D00040F00201C9B20020034B98470348044B79
:1012E0009847F4E7050F4000810F4000C2DB030080
:1012F0000100402038B54FF40072214B5A63214B56
:101300001968002934D0204A0023204C00252048A9
:10131000E0FB0145204629461E4CA0471E4B98473E
:101320001D201E4B984710F0020F11D0154B196865
:1013300011B3154A0023154C00251548E0FB014563
:1013400020462946134CA047134B9847144B984707
:101350000020124DA84700F0FE010020114CA047CC
:101360000220A84740F00101C9B20220A04738BDC1
:101370003320094B9847D3E73320074B9847E5E7DD
:1013800000120E40F8824020E0835A00DF835A00AA
:1013900000A3E111492C400001004020050F40004E
:1013A000CD0F4000810F400038B51A4B4FF400724A
:1013B0001A61C3F8A0205A630C210020164CA047E4
:1013C0005F210420A0470020144B98470220144BB3
:1013D0009847144B984770210720A0474C20124B88
:1013E00098470420114B9847114B9847114B984749
:1013F000114B98470020114DA84700F0FE01002036
:10140000A0470620A8470138C0B2FD288CBF0020A5
:10141000012038BD00120E40810F40000D10400029
:101420006D10400085124000A91240004D1240008E
:10143000AD0F4000CD0F4000C1124000050F40002D
:1014400070B582B002AC64E90201084E32782146E0
:101450000A20074DA847327821461020A847054B9F
:1014600019781120044B984702B070BDEC824020DF
:10147000B90E400016004020810F4000F8B500AFC3
:101480006E46244B1B7853BB234B1B785B1ADBB295
:1014900001311944C9B2CB1D23F00703ADEB030D95
:1014A000EE46A0238DF8003001290BD9431E0DF123
:1014B00001028D1E50FA85F513F8014F02F8014B19
:1014C000AB42F9D17046154B9847B5464FF40072C0
:1014D000134B1A63134C41F2C236134D03E0002341
:1014E000D6E73046A847A04710F0300FF9D04FF4A8
:1014F00000720B4B5A63702107200C4B984710F079
:10150000100F02D10120BD46F8BD094B98470020BD
:10151000F9E700BF3C724020160040202D16400025
:1015200000120E40ED0F400001004020810F4000EE
:10153000CD0F400070B52C4B4FF40012C3F8802142
:10154000C3F88020BFF34F8FBFF36F8F002583F860
:1015500015531A60254E31682548264B9847264872
:10156000264B9847264C2046264B9847022323605B
:10157000802323604FF080732360636843F001038E
:101580006360636843F0100363600D2120461E4BC7
:1015900098472A46012120461C4B984705212046A2
:1015A0001B4B98472A46012120461A4B9847012297
:1015B00011462046184B98472A4601212046174BD2
:1015C00098473368164AB2FBF3F2D2B201212046A3
:1015D000144B98470823202201212046124DA8478A
:1015E0000123236070BD00BF00E100E0180040202F
:1015F00008944000A92F4000249440009D324000F0
:101600000080004069084000950840005D094000E6
:10161000AB084000210940003F094000A3094000F9
:1016200080D1F008B7094000DF0940002DE9F04300
:1016300083B0D9B18846054680440F4CDFF8489006
:101640000E4E2F4600231A4629782046C8472369A4
:1016500013F0010FFBD00DF1070231462046084B75
:10166000984733883B7001354545EAD16620054BE4
:10167000984703B0BDE8F083008000403E724020F0
:10168000BD08400001004020ED084000013802285C
:1016900015D82DE9F0410E4614469AB10D46DFF8F3
:1016A00038800C4FD8F8000015F8011B3B689847AC
:1016B00000280ADBA81B013CF4D1BDE8F0814FF003
:1016C000FF3070471046BDE8F0814FF0FF30BDE8B5
:1016D000F08100BFFC82402000834020F0B583B041
:1016E00004460F461646036843F01003036001AB3F
:1016F0000122364DA84758B9019B13F0040F0DD1B4
:10170000236823F010032360FF23184603B0F0BDC5
:101710000346226822F010022260F6E72EB9236801
:1017200023F0100323603346EFE76B461E22394651
:101730002046264DA847034650B9019A12F4805F0F
:101740000BD0009911F0050F0CBF0121002105E01D
:10175000226822F010022260D7E7012112F4005F14
:1017600003D0009810F0020F27D112F4006F03D0BD
:10177000009A12F0010F11D191B10122616841F07C
:1017800001016160A2B1626842F0020262602268F7
:1017900022F010022260B8E71A46EFE71A4600E08E
:1017A0000122616821F001016160EBE71A46F8E768
:1017B000626822F002026260E9E712F4006FEBD087
:1017C000009A12F0010FF1D11A46D7E7591B4000D9
:1017D0002DE9F04182B004460D46036843F0100342
:1017E000036001AB00225D4EB04740B10346226862
:1017F00022F010022260184602B0BDE8F081019B81
:1018000023F4B04343F48063019300222946204629
:10181000534EB047034620B1226822F010022260E6
:10182000E9E740F2E1130422294620464C4EB04736
:10183000034620B1226822F010022260DBE701ABF0
:10184000002229462046454EB047034620B1226873
:1018500022F010022260CEE7019B43F4445301932F
:101860000022294620463E4EB047034620B122685A
:1018700022F010022260BEE7019B23F4806343F450
:1018800000730193002229462046354EB047034697
:10189000B0B9344E4FF00108304F01AB42462946F3
:1018A0002046B847034680B9019B13F0200F11D1A1
:1018B000013EF2D1236823F01003236001239AE74D
:1018C000226822F01002226095E7226822F01002BE
:1018D000226090E76B460522294620461F4DA84707
:1018E000034680B9009A12F4807F13D112F0400FA2
:1018F0002CD112F0800F08BF024609D1616821F097
:10190000010161600BE0226822F01002226072E7A0
:10191000024600E00122616841F001016160BAB154
:10192000626842F002026260E26822F00102E26054
:101930000D4A116841F008011160116841F004017D
:101940001160226822F01002226054E70122D5E7DC
:10195000626822F002026260E6E700BF591B4000A5
:10196000B91B400040420F00000005402DE9F04344
:1019700083B005468946036843F0100303604FF4C3
:10198000004302AE46F8043D00220E4CA0470A2454
:101990004FF000080C4F3346424649462846B847A8
:1019A000013C019B13F4004F01D0002CF3D12B68B4
:1019B00023F010032B60B4FA84F0400903B0BDE8B3
:1019C000F08300BFB91B4000591B40002DE9F043D4
:1019D00085B0064688461546012400940023224619
:1019E0004FF480614348444FB84722464FF480414A
:1019F0004248434B984740F2FF324FF00061414864
:101A0000414B984741464148414B9847414B9D4285
:101A10005DD8414B9D420FD8404B9D423ED8404B34
:101A20009D423ED83F4B9D423ED83F4B9D428CBF8E
:101A30004FF48023002301E04FF4A013726822F4D6
:101A4000E012726075681D43756004AB002243F8B4
:101A5000042D326842F010023260022241463046C4
:101A6000324CA047039B222B35D0444620254FF013
:101A700002092E4F013404F01F0403AB4A462146ED
:101A80003046B847039B222B11D06B1E13F0FF0585
:101A9000F0D1336823F01003336018E04FF4801363
:101AA000CCE74FF44023C9E74FF40023C6E733687F
:101AB00023F01003336003AB0122214630461B4D57
:101AC000A847A04503D041463046114B9847002017
:101AD00005B0BDE8F083336823F010033360B8F13C
:101AE000FF0FF4D003AB0122414630460F4CA04714
:101AF000EDE700BF00120E401D1F4000000E0E401B
:101B0000E71E400000140E40551E40000000054036
:101B10006D194000001C4E0E00688909000E270751
:101B200000B4C404005A6202002D3101591B400068
:101B3000436913F0020F02D0C161002070470120F9
:101B40007047436913F0010F03D083690B700020C5
:101B5000704701207047000010B483B0846814F00F
:101B6000040FFBD0920402F4F804114A2243C90581
:101B700001F078610A434263002201920D498268B4
:101B800012F0040F07D1019A01320192019A8A42A0
:101B9000F5D9012007E0826812F0040FFBD0426BF8
:101BA00092B21A60002003B05DF8044B704700BF8A
:101BB000000002603F420F0010B483B0846814F04C
:101BC000040FFBD0920402F4F8040E4A2243C90524
:101BD00001F078610A439BB21A43426300230193E8
:101BE000094A836813F0040F07D1019B0133019365
:101BF000019B9342F5D9012000E0002003B05DF87D
:101C0000044B7047000002503F420F0010B51048CF
:101C1000104B98473E2100200F4B98470F4CA04790
:101C20000028FCD00E4B98470E4A0F4B9A620F4C7F
:101C3000A0470028FCD002200D4B984700200D4BF8
:101C400098470D4B98470248024B984710BD00BF7C
:101C500080D1F008192340009D204000F120400071
:101C600001214000013F182000060E4011214000D4
:101C700001204000392040000D22400010B54FF4F3
:101C800000426E4B5A60A3F545636D4A5A60A2F557
:101C900080725A60BFF34F8FBFF36F8F694BD3F8D9
:101CA000902222F00102C3F89022D3F8942222F06D
:101CB0000102C3F89422BFF34F8FBFF36F8F0A2046
:101CC000614CA0470B20A0470C20A0471020A04744
:101CD0001120A0475D4B4FF480721A61C3F8A02019
:101CE0001A63A3F580634FF400625A61C3F8A02021
:101CF0005A66C3F890205A651A62C3F88420196F97
:101D000021F400611967596F21F400615967C3F824
:101D1000C020C3F8D420C3F8B0204FF400121A66D4
:101D2000C3F890205A655A62C3F88020196F21F4D5
:101D300000111967596F21F4001159675A6044481E
:101D4000D0F8141141F01001C0F8141100F5B220C0
:101D500010210166C0F8901041654162C0F8801002
:101D6000046F0C430467446F0C43446741600820D0
:101D70001866C3F8900058655862C3F880001C6F5D
:101D800024F008041C675C6F24F008045C6758604A
:101D90001966C3F8901059655962C3F88010186F1E
:101DA00020F010001867586F20F010005867596035
:101DB00003F5C0634FF480111966C3F8901059659C
:101DC0005962C3F88010186F08431867586F20F4E1
:101DD0008010586759601A66C3F890205A655A6295
:101DE000C3F88020196F11431967596F21F400114E
:101DF00059675A604FF480021A66C3F890205A65FA
:101E00005A62C3F88020196F11431967596F21F482
:101E1000800159675A604FF000721A66C3F890202B
:101E20005A655A62C3F88020196F11431967596FB8
:101E300021F0007159675A6010BD00BF50180E4064
:101E40000C08005A00ED00E02121400000120E4075
:101E5000008008404264B1F1C05F3AD013D8B1F1BC
:101E6000006F25D0B1F1805F0AD1036F1343036780
:101E7000436F416F0B4023EA0203436742607047A0
:101E80000029FBD17047B1F1205F21D009D8B1F111
:101E9000005FF3D1036F13430367436F134343673B
:101EA000ECE7B1F1405F13D0B1F1605F10D0E5E72E
:101EB00010B4016F046FD34321401C4619400167E1
:101EC000436F416F0B402340436742605DF8044B12
:101ED0007047036F016F0B4023EA02030367436FF0
:101EE00013434367CAE7416412F0010F0DD1016645
:101EF00012F00A0F0BD0016212F0020F09D112F09A
:101F0000080F08D0C0F8841005E04166F0E7416290
:101F1000F2E7C0F8801041610160704710B4019C85
:101F200041644CB901664BB101654AB94163016135
:101F300001605DF8044B70474166F4E74165F4E7E2
:101F40000163F4E7C06C7047806C70472DE9F04185
:101F5000044688460E4B9847054620460D4B984749
:101F6000054013D00C4C04F1600603E0B4420DD0E0
:101F700010345DB120684045F8D161682942F5D040
:101F8000E3689847636825EA0305EFE7BDE8F08159
:101F9000451F4000491F40004072402008B50A21FB
:101FA0000148024B984708BD000E0E404D1F4000EF
:101FB00008B50B210148024B984708BD00100E40A0
:101FC0004D1F400008B50C210148024B984708BD41
:101FD00000120E404D1F400008B510210148024B71
:101FE000984708BD00140E404D1F400008B5112150
:101FF0000148024B984708BD00160E404D1F400097
:10200000032811D0042812D002280CBF4FF480718D
:102010000021084A136B23F440730B431363936E40
:1020200013F0080FFBD070474FF44071F1E74FF405
:102030000071EEE700060E40174A136B23F07003A1
:1020400018431063936E13F0080F0AD14FF48053B6
:1020500011498A6E12F0080F03D1013BF9D101201A
:1020600070470D4A136B23F0030343F0020313631D
:10207000936E13F0080F0AD14FF4805306498A6E0D
:1020800012F0080F05D1013BF9D101207047002063
:1020900070470020704700BF00060E40A0B90E48F0
:1020A000036A090289B20D4A1A400D4B13431943C2
:1020B00001620246936E13F0010FFBD0064A116ACB
:1020C000084B0B431362704703490B6A064A1A40D8
:1020D000064B13430B62704700060E40FCFFC8FF1F
:1020E0000100370000003701FCFFC8FE0200370185
:1020F000024B986E00F48030704700BF00060E401F
:102100004FF00052014B9A62704700BF00060E402C
:10211000024B986E00F00200704700BF00060E40B0
:1021200000F07F00054BC3F80C01D3F80C2142F0FE
:102130001022C3F80C210020704700BF00060E409B
:10214000FEE7000000B583B0254B264A9A4210D026
:10215000254B234A9A420CD2013B9B1A23F00303DE
:10216000043313441F4951F8040B42F8040B9A42FC
:10217000F9D11E4B1E4A9A420AD2013B9B1A23F008
:10218000030304331344002142F8041B9342FBD1A0
:10219000184A194B23F07F039360EFF31083B3FACF
:1021A00083F35B09019372B6BFF35F8F0022134B79
:1021B0001A700199124A136843F470031360BFF355
:1021C0004F8FBFF36F8F29B101220C4B1A70BFF3F1
:1021D0005F8F62B60B4B98470B4B9847FEE700BFEB
:1021E00000004020D4984000E80940201485402099
:1021F000E809402000ED00E0000040001C00402005
:1022000088ED00E0592F4000212A40003B4B1B6B1A
:1022100003F00303012B1DD083B1022B36D0374BC3
:102220001B6B03F07003702B5FD0344B1A6B344977
:10223000C2F302120B68D3400B607047314B5B69ED
:1022400013F0800F14BF4FF400424FF4FA422C4BAE
:102250001A60E4E7294B1B6A13F0807F03D02A4AF7
:10226000274B1A60DBE7294A254B1A60234B1B6A70
:1022700003F07003102B05D0202BD0D1224A204B25
:102280001A60CCE7224A1E4B1A60C8E71B4B1B6A38
:1022900013F0807F16D01C4A194B1A60174B1B6B2A
:1022A00003F00303022BBAD1144A916A926A1448CC
:1022B000C1F30A41036801FB0333D2B2B3FBF2F36B
:1022C0000360ACE7114A0E4B1A600C4B1B6A03F01B
:1022D0007003102B05D0202BE0D10B4A084B1A605D
:1022E000DCE70B4A064B1A60D8E7054A1368094930
:1022F000A1FB03135B081360704700BF00060E408C
:102300002000402010180E40001BB70000093D00BF
:1023100000127A00ABAAAAAA164B984213D9164B00
:10232000984215D9154B984216D9154B984217D992
:10233000144B984218D9144B984294BF134A144A2C
:10234000144B1A6070474FF08062124B1A6070474E
:10235000114A104B1A607047104A0E4B1A607047B2
:102360000F4A0C4B1A6070474FF00422094B1A6059
:10237000704700BFBFF35E017FE7BD023FDB1C0477
:10238000FFCE7B05BFC2DA067FB639080005000420
:1023900000060004000C0E400001000400020004CE
:1023A000000300040A4B1B6853B1094B1B681A1841
:1023B0000849914208DB1046054A106018467047EC
:1023C000054A034B1A60F0E74FF0FF30704700BF3B
:1023D000B0724020FCFF452018A740204FF0FF308E
:1023E00070474FF400534B60002070470120704746
:1023F00000207047F0B583B005460C4600230193DA
:102400002A4B984213D02A4B984218D0294B984215
:102410001DD0294B9D4222D0284B9D4227D0284BCE
:102420009D422ED0274B9D4235D003B0F0BD1F46B4
:10243000254E21463846B0470028FAD1E9E71F4625
:10244000214E21463846B0470028FAD1E4E71F461E
:102450001D4E21463846B0470028FAD1DFE71F4617
:10246000194E21463846B0470028FAD1DAE71E4611
:10247000164D01A93046A8470028FAD1019B2370C8
:10248000D3E71E46114D01A93046A8470028FAD1CE
:10249000019B2370C9E71E460C4D01A93046A84791
:1024A0000028FAD1019B2370BFE700BF00080E404F
:1024B000000A0E40001A0E40001C0E400040024070
:1024C0000080024000C00240431B4000F70A400069
:1024D00070B50C462A4B984213D02A4B984219D01B
:1024E000294B98421FD0294B984225D0284B98421F
:1024F0002BD0284B984231D0274B984237D0002020
:1025000070BD1E46254D21463046A8470028FAD109
:10251000012070BD1E46214D21463046A8470028A7
:10252000FAD1012070BD1E461C4D21463046A847F9
:102530000028FAD1012070BD1E46184D21463046B4
:10254000A8470028FAD1012070BD1E46144D21462F
:102550003046A8470028FAD1012070BD1E46104D14
:1025600021463046A8470028FAD1012070BD1E46FA
:102570000B4D21463046A8470028FAD1012070BDF6
:1025800000080E40000A0E40001A0E40001C0E40CB
:10259000004002400080024000C00240311B400069
:1025A000E10A4000F0B504460346002243F8D82B68
:1025B0003C4A1068C4F8D80092889A803A4B1B684D
:1025C000C4F80A30394B1B68C4F8CC30384B1B6850
:1025D000C4F8D030374B1B68C4F8D430364F3A4675
:1025E00003CA2060616007F10C0507CDC4F81A002A
:1025F000C4F81E10C4F822202A7884F8262007F197
:102600001C0604F12C054C37B646BEE80F002860C6
:102610006960AA60EB6076461035BE45F4D103CE02
:102620002860696033782B724FF08033C4F8AE3085
:102630004FF00833C4F8B2300023A374E37484F875
:10264000BE30012284F8BF20022084F8C00003219C
:1026500084F8C11084F8BA3084F8BB2084F8BC0038
:1026600084F8BD10802184F8B610144921761449ED
:10267000617641F63611E1812374627484F8DE30AC
:102680000E2284F8DF202375FF226275A3750822CD
:10269000E27584F8C23084F8C33084F8C43084F81A
:1026A000C530F0BD300040202C00402024004020E8
:1026B000280040203800402044944000BC94400052
:1026C000EC924000F8B504460D46002303600A680A
:1026D0004B6802604360D1F80A30C0F80A300B46FC
:1026E00053F8D82FC0F8C9209B88A0F8CD300B46EE
:1026F00053F81A7F5E689868D968C4F81A70C4F8ED
:102700001E60C4F82200C4F826101B8A638505F1F8
:102710002C0304F12C0205F16C01D3F800E05F6892
:102720009E68D868C2F800E057609660D0601033A9
:1027300010328B42F1D104F16C0005F16C030246BA
:1027400005F1AC01D3F800C0D3F804E09F68DE685F
:10275000C2F800C0C2F804E09760D66010331032AF
:102760008B42EFD1D5F8AE30C4F8AE30D5F8B230E8
:10277000C4F8B230D5F8B630C4F8B630D5F8BA30AF
:10278000C4F8BA30D5F8BE30C4F8BE302B7E1A7803
:10279000637E1A706B7E1A78237E1A7095F8AD20CE
:1027A0001549164B98474FF404532381EB89E38175
:1027B0002B7C23746B7C6374AB7CA374EB7CE37421
:1027C0002B7D23756B7D6375EB7DE37595F8AC30E0
:1027D00084F8AC3095F8AD3084F8AD3095F8C3305E
:1027E00084F8C33095F8C43084F8C43095F8C53007
:1027F00084F8C830F8BD00BF9C9440004D344000C0
:1028000008B5827B064B93F8BE309A4200D008BDD3
:102810004FF4007200F112010248034B9847F6E7AB
:1028200018834020EC7240203130400010B504463F
:1028300008220649064B984730B9637A207A40EA65
:10284000032000B280B210BD0020FBE718834020B7
:10285000D12F40002DE9F04182B080460E4611464E
:1028600006F12A00721E284C771D3B465D7802F85F
:10287000015F14F8015B03F8015FBA42F6D1F02260
:10288000224B98476FF00F0386F82630002386F816
:102890002730B8F1010F1CD006F119031C4A06F1CC
:1028A0001D005978597112F8011B03F8011F83426A
:1028B000F7D13178002200924FF48D731548164CF1
:1028C000A047C0B2E0B91548154B984702B0BDE823
:1028D000F08106F119030E4A06F11D04FF2058711C
:1028E00012F8011B03F8011F9C42F8D13178002235
:1028F00000924FF48D730748074CA047C0B2E1E740
:102900000848074B9847E1E710004020313040006D
:102910000C004020EC74402039064000E495400053
:10292000A92F4000C895400008B5024A0120024B7B
:10293000984708BDFC8340205528400008B5044A4C
:102940000020044B98470448044B984708BD00BF3B
:10295000FC83402055284000F4944000A92F4000FB
:1029600010B5ADF5C06D04468289130A43EA02230F
:102970009BB2B3F5006F0AD040F60602934235D001
:1029800019461C481C4B98470DF5C06D10BDC37D02
:10299000112B04D0012BF7D1184B9847F4E72A29C3
:1029A000F2D92A30164B9847164B18800028EBD0E6
:1029B00094F82A308DF80030B0F5A04F0AD0B0F569
:1029C000005F0BD0B0F5C04FDED1214668460E4BFC
:1029D0009847D9E768460D4B9847D5E70C48064B12
:1029E0009847214668460B4B9847CDE70A4B9847D6
:1029F000CAE700BFD0944000A92F4000ED0C400072
:102A00002D284000048340203D294000012840003B
:102A1000C094400029294000290C4000000000001B
:102A20002DE9F0418AB05C4B98475C4B98470E20EB
:102A30005B4EB0475B4D5C4B1D605C4A5C4B1A6063
:102A40005C4A5D4B1A604FF4E1330493C023059355
:102A50004FF4006306930024079408940E20B047B7
:102A6000564A04A92846564B98472846554B98473E
:102A70002846554B9847554E336821469868544D23
:102A8000A847336821465868A8475248524B984790
:102A9000524C2046524B984721465248524B984739
:102AA000524B984720B94FF0FF300AB0BDE8F08193
:102AB0004F488378427801784479029404790194EC
:102AC000C07800904B484C4CA0474C4883784278E3
:102AD0000178C07800904A48A0474A483E4B984742
:102AE000494B9847494B98470220494B9847494BD7
:102AF0009847494B9847494D25A7D7E90067DFF824
:102B0000448108E0A3F10B02D2B2092A1CD9653B2B
:102B1000DCB2812C27D9A8470028FCD1404B19688A
:102B20000029F8D03F48404B9847404B1B780A2B70
:102B3000E8D8304639463E4B98473E4800238371DB
:102B400008213D4B9847E6E730463946384B9847D1
:102B50003848012484710821374B9847214637486B
:102B6000254B9847D7E730463946314B9847C4EB59
:102B7000042488FB0432E417C4EBE2022D4BD2B2EA
:102B80009A800321997101212D481B4B9847C2E778
:102B9000B13A3A3A000000000D1C40007D1C400094
:102BA000212140000080024000834020D1244000C9
:102BB000FC824020F5234000E872402080D1F008DC
:102BC000810A4000D50A4000DB0A40003C0040205A
:102BD000AD3240000C9540009D32400018834020EB
:102BE000A5254000FC834020C52640003D0B400049
:102BF00010004020BC914000A92F40000C00402054
:102C0000609540007895400035154000A9134000BC
:102C1000C5104000F512400009114000110B4000A2
:102C2000E0824020E475402061294000EC724020A1
:102C300041144000108340207D14400088954000DE
:102C4000A4954000813FE00F53B94AB9002908BF5D
:102C500000281CBF4FF0FF314FF0FF3000F07AB971
:102C6000ADF1080C6DE904CE00F006F8DDF804E0E3
:102C7000DDE9022304B070472DE9F0478C460D468C
:102C80000446089E002B51D18A4217466DD9B2FAEC
:102C900082FEBEF1000F0BD0CEF1200C01FA0EF532
:102CA00020FA0CFC02FA0EF74CEA050C00FA0EF4BE
:102CB0004FEA174A250CBCFBFAF81FFA87F90AFB02
:102CC00018CC45EA0C4508FB09F3AB420AD9ED19CB
:102CD00008F1FF3280F02381AB4240F22081A8F15D
:102CE00002083D44ED1AA4B2B5FBFAF00AFB1055F8
:102CF00044EA054400FB09F9A14509D9E41900F1AA
:102D0000FF3380F00A81A14540F2078102383C443C
:102D1000A4EB090440EA08400021002E61D024FA07
:102D20000EF4002334607360BDE8F0878B4207D94E
:102D3000002E54D0002186E821000846BDE8F08727
:102D4000B3FA83F1002940F08E80AB4202D3824275
:102D500000F2FA80841A65EB03050120AC46002ED0
:102D60003FD086E81010BDE8F08712B90127B7FB05
:102D7000F2F7B7FA87FEBEF1000F34D1EB1B3A0C25
:102D80001FFA87FC0121B3FBF2F8250C02FB183374
:102D900045EA03450CFB08F3AB4207D9ED1908F1EE
:102DA000FF3002D2AB4200F2D1808046ED1AA3B2CE
:102DB000B5FBF2F002FB105543EA05440CFB00FCA6
:102DC000A44507D9E41900F1FF3302D2A44500F26B
:102DD000B8801846A4EB0C0440EA08409DE7314651
:102DE0003046BDE8F087CEF1200405FA0EF307FA6D
:102DF0000EF720FA04F83A0C25FA04F448EA03081E
:102E0000B4FBF2F14FEA184502FB11441FFA87FCAC
:102E100045EA044501FB0CF3AB4200FA0EF409D974
:102E2000ED1901F1FF3080F08A80AB4240F28780DB
:102E300002393D44EB1A1FFA88F5B3FBF2F002FBAE
:102E4000103345EA034500FB0CF3AB4207D9ED19FB
:102E500000F1FF386FD2AB426DD902383D44EB1A16
:102E600040EA01418FE7C1F1200722FA07F88B40C1
:102E700005FA01F448EA030320FA07FE4FEA134C6F
:102E8000FD404EEA040EB5FBFCF94FEA1E440CFB74
:102E900019551FFA83F844EA054509FB08F4AC42CA
:102EA00002FA01F200FA01FA08D9ED1809F1FF302F
:102EB00043D2AC4241D9A9F102091D442D1B1FFA8E
:102EC0008EFEB5FBFCF00CFB10554EEA054400FBF2
:102ED00008F8A04507D9E41800F1FF3529D2A0452C
:102EE00027D902381C4440EA0940A4EB0804A0FB9F
:102EF00002894C45C6464D4615D312D056B1BAEBA1
:102F00000E0364EB050404FA07F7CB401F43CC40E3
:102F1000376074600021BDE8F0871846F8E69046F7
:102F2000E0E6C245EAD2B8EB020E69EB03050138D0
:102F3000E4E72846D7E7404691E78146BEE70146E9
:102F400078E702383C4445E7084608E7A8F102085C
:102F50003D442BE7704700BF70B50F4E0F4D761BF9
:102F6000B61018BF002405D0013455F8043B98472B
:102F7000A642F9D10A4E0B4D761B06F095FCB61011
:102F800018BF002406D0013455F8043B9847A642E8
:102F9000F9D170BD70BD00BFB4984000B498400036
:102FA000BC984000B49840000FB400B5074983B006
:102FB00004AB086853F8042B8168019301F05CFDB1
:102FC00003B05DF804EB04B0704700BF3C00402044
:102FD000032A70B422D940EA01039B0711D0037879
:102FE0000C78A3421DD10A44013105E010F8013FDD
:102FF00011F8014BA34214D19142F7D1002070BCCB
:1030000070470D680668AE420C46034601F10401A4
:1030100000F1040008D1043A032AF2D8002ADED1D4
:10302000ECE7181B70BC704721461846D7E700BF75
:10303000844641EA000313F003036DD1403A41D3C3
:1030400051F8043B40F8043B51F8043B40F8043B82
:1030500051F8043B40F8043B51F8043B40F8043B72
:1030600051F8043B40F8043B51F8043B40F8043B62
:1030700051F8043B40F8043B51F8043B40F8043B52
:1030800051F8043B40F8043B51F8043B40F8043B42
:1030900051F8043B40F8043B51F8043B40F8043B32
:1030A00051F8043B40F8043B51F8043B40F8043B22
:1030B00051F8043B40F8043B51F8043B40F8043B12
:1030C000403ABDD2303211D351F8043B40F8043BB2
:1030D00051F8043B40F8043B51F8043B40F8043BF2
:1030E00051F8043B40F8043B103AEDD20C3205D3C2
:1030F00051F8043B40F8043B043AF9D2043208D0BA
:10310000D2071CBF11F8013B00F8013B01D30B882B
:1031100003806046704700BF082A13D38B078DD009
:1031200010F003038AD0C3F10403D21ADB071CBFDB
:1031300011F8013B00F8013B80D331F8023B20F845
:10314000023B7BE7043AD9D3013A11F8013B00F87E
:10315000013BF9D20B7803704B7843708B78837006
:103160006046704770B4860746D0541E002A41D08E
:10317000CAB2034602E014F1FF343BD303F8012B3B
:103180009D07F8D1032C2ED9CDB245EA05250F2C89
:1031900045EA054519D903F110022646103E0F2EC7
:1031A00042F8105C42F80C5C42F8085C42F8045C9F
:1031B00002F11002F2D8A4F1100222F00F0204F082
:1031C0000F041032032C13440DD91E462246043A34
:1031D000032A46F8045BFAD8221F22F003020432C5
:1031E000134404F003042CB1C9B21C4403F8011BBE
:1031F0009C42FBD170BC704714460346C2E700BF37
:10320000F0B5054689B008460C4600F059F9AB6B9D
:10321000214F04940126441C04A902220394059022
:10322000AC68069707960191029253B3636E13F050
:10323000010FB4F90C309AB201D1900525D5910453
:1032400006D4626E43F4005322F40052A3816266F6
:10325000284601AA214603F0D1FD636E00280CBF69
:103260000A254FF0FF35DA0702D4A3899B0502D562
:10327000284609B0F0BDA06D03F084FF284609B0D0
:10328000F0BD284603F0AEFBD0E7A06D03F078FF59
:10329000B4F90C309AB2D2E7A0954000024B014637
:1032A0001868FFF7ADBF00BF3C00402000290CBFED
:1032B000022200224FF4806300F000B82DE9F043B1
:1032C000614C256883B004460F4690461E4615B1F2
:1032D000AB6B002B64D0B8F1020F06D0B8F1010F30
:1032E00000F29F80002EC0F29C80636ED80734D518
:1032F0002146284603F01EFB216B41B104F1400337
:10330000994202D0284603F093FC00232363B4F9CA
:103310000C300022A26162601A063AD423F44A6398
:1033200023F00303B8F1020FA3811DD001AB6A465D
:103330002146284603F028FFA3891843A081002EC8
:1033400032D1009E304603F097FF074600286BD02D
:10335000A38943F08003A38128E0A3899905C7D4FA
:10336000A06D03F00DFFC3E70025616E002604F198
:10337000430243F002030120A660CE07A38122602E
:103380002261606101D498053ED5284603B0BDE8AE
:10339000F0832169284603F04BFCB4F90C30BDE7FB
:1033A000284603F01FFB96E7002FCBD0AB6B002B1A
:1033B00033D0009BB4F90C2027609E421CBF42F41E
:1033C0000062A281B8F1010F04BF42F00102A281A4
:1033D00092B212F00803276166610ED0D1071AD5A8
:1033E000656E7642002315F00105A661A36009D041
:1033F0000025284603B0BDE8F083A360656E15F094
:103400000105F5D19305C0D4A06D03F0BBFE28469D
:1034100003B0BDE8F083A660F0E7284603F0E2FAC7
:10342000C7E74FF0FF35B0E7DDF80090B14504D0B5
:10343000484603F021FF074620B9B4F90C304FF09D
:10344000FF3592E74E4683E73C0040200EB4F0B5CE
:103450009CB021AB0F4953F8042B019305466FF044
:103460000044086802954FF402774FF6FF7602A9F0
:103470000695ADF8147004940794ADF8166000F04A
:103480008DF8029B00221A701CB0BDE8F04003B01A
:10349000704700BF3C00402000000000000000001A
:1034A000000000000000000000000000000000001C
:1034B000000000000000000000000000000000000C
:1034C00090F800F06DE9024520F007016FF0000C64
:1034D00010F0070491F820F040F049804FF000040C
:1034E0006FF00700D1E9002391F840F000F10800E7
:1034F00082FA4CF2A4FA8CF283FA4CF3A2FA8CF31F
:103500004BBBD1E9022382FA4CF200F10800A4FA85
:103510008CF283FA4CF3A2FA8CF3E3B9D1E90423D9
:1035200082FA4CF200F10800A4FA8CF283FA4CF310
:10353000A2FA8CF37BB9D1E9062301F1200182FACA
:103540004CF200F10800A4FA8CF283FA4CF3A2FAD0
:103550008CF3002BC6D0002A04BF04301A4612BADE
:10356000B2FA82F2FDE8024500EBD2007047D1E9E1
:10357000002304F00305C4F100004FEAC50514F070
:10358000040F91F840F00CFA05F562EA05021CBF41
:1035900063EA050362464FF00004A9E72DE9F04F06
:1035A000C3B00C460B9192460F930C9003F0D6FDDE
:1035B00003681A931846FFF783FFA3891990190629
:1035C00003D52369002B01F0038000230DF1C80906
:1035D0001393159314932793269318931B9309938E
:1035E000CDF89490C846169317939AF80030544635
:1035F000E3B1252B02D119E0252B03D014F8013FAC
:10360000002BF9D1A4EB0A0585B1269B279AC8F8AF
:1036100000A001332A44072BC8F8045027922693B0
:103620007FDC08F10808099B2B4409932378002BC1
:103630007FD000231A468DF8773019460D939B46AC
:103640004FF0FF3063780A9004F1010A0AF1010A91
:10365000A3F12000582800F2C183DFE810F03802FF
:10366000BF03BF034002BF03BF03BF03BF03BF03CA
:10367000BF0345020302BF035D006B02BF03860266
:103680009D039D039D039D039D039D039D039D033A
:103690009D03BF03BF03BF03BF03BF03BF03BF033C
:1036A000BF03BF03BF0337035703BF035703BF0362
:1036B000BF03BF03BF039803BF03BF03AD03BF0333
:1036C000BF03BF03BF03BF035902BF03BF031E03F2
:1036D000BF03BF03BF03BF03BF03BF03BF03BF03DA
:1036E000BF03BF03C602DB025703570357038B0216
:1036F000DB02BF03BF039002BF039D02CC01B402F3
:103700000802BF03E101BF037E00BF03BF030D0238
:103710000D980F9340420D904BF0040B9AF8003037
:1037200094E725AA0B990C9804F030FE40B9C846DE
:1037300079E7279B23B10C980B9925AA04F026FE64
:103740000B9B9B8913F0400F099B18BF4FF0FF3371
:103750000993099843B0BDE8F08F1BF0200F119337
:1037600040F0DD810F9A1BF0100F134640F06E857C
:103770001BF0400F00F06A851488043200250123F5
:103780000F9200278DF877700A994A1C00F0658225
:103790002BF08002079254EA050240F0648200296F
:1037A00040F03C84002B40F0D7841BF001030E93C3
:1037B00000F0048642AE302306F8413D0A9B0E9A83
:1037C0009342B8BF134608930023129317B1089B86
:1037D00001330893079B13F00203109302D0089B58
:1037E00002330893079B13F0840540F00E830D9B72
:1037F000089AA3EB020BBBF1000F40F30683BBF169
:10380000100F279C269A29DD43462146A8461027FB
:103810000C9C0B9D06E0ABF1100BBBF1100F03F1FC
:10382000080318DD0132B74826921031072A279184
:1038300083E88100EFDD25AA2946204604F0A6FD95
:1038400000287FF47DAFABF1100BBBF1100F27996F
:10385000269A4B46E6DC45460C4698460132A94B73
:1038600026925C44072A279488E8080800F3988485
:103870009DF8777008F1080877B1269B0133013471
:103880000DF177010122072B2794269388E8060083
:1038900000F3DB8308F10808109B6BB1269B013312
:1038A00002341EA90222072B2794269388E80600DB
:1038B00000F3D68308F10808802D00F015830A9BD9
:1038C0000E9A9F1A002F36DD102F269B8E4D27DD76
:1038D00042462146B0464FF0100B2E460C9C0B9DE5
:1038E00004E0103F102F02F1080215DD0133103102
:1038F000072B2791269382E84008F2DD25AA294666
:10390000204604F043FD00287FF41AAF103F102F2B
:103910002799269B4A46E9DC35460C4646469046A2
:1039200001333C44072B2794269388E8A00000F33A
:10393000818308F10808079BDF0500F16882269B58
:103940000E99C8F8006001330C44072B2794C8F87F
:103950000410269300F34D8308F10808079B5B07CA
:103960003AD50D9B089A9D1A002D35DD102D269B0A
:1039700020DD10260C9FDDF82CB004E0103D102D4A
:1039800008F1080816DD01335E4A26931034072B30
:10399000279488E84400F1DD25AA5946384604F00A
:1039A000F5FC00287FF4CCAE103D102D279C269B03
:1039B000C846E8DC0133534A26932C44072B27944E
:1039C00088E8240008DD25AA0B990C9804F0DEFC99
:1039D00000287FF4B5AE279C099B0D9A08998A426E
:1039E000ACBF9B185B180993002C40F00D8300239B
:1039F0002693C846F9E511931BF0200340F0E381BC
:103A00001BF0100240F02E841BF0400300F02A84CB
:103A10000F9913460A4604320C880F920025B0E62F
:103A20000F9A1193166800248DF87740151D002E0B
:103A300000F0A7860A9A531C00F0098621463046FA
:103A400003F0EEFE002800F0E186831B0E930A943B
:103A50000F95CDF81CB023EAE373089312949DF8F8
:103A60007770B3E69AF8003001222B21EEE54BF097
:103A7000200B9AF80030E9E51193002A40F0958771
:103A8000224B18931BF0200F40F011810F9A1BF06E
:103A9000100F134640F0E1831BF0400F00F0DD8370
:103AA000043314880F9300251BF0010F00F00C81E4
:103AB00054EA050300F0088130239DF844208DF876
:103AC00078308DF879204BF0020B022359E69AF8F2
:103AD000003000297FF4BAAD01222021B6E54BF079
:103AE000010B9AF80030B1E50F9C23680D9318463E
:103AF0000028234603F10403FFF60AAE0F939AF859
:103B00000030A3E5449640005496400024964000BF
:103B10004BF0100B1BF0200F11933FF423AE0F9DC1
:103B2000073525F0070303F10802D3E900450F929A
:103B3000012326E69AF800302A2B0AF1010400F04E
:103B40002787A3F130000928A24600F2AD860023A2
:103B50001C461AF8013B04EB840400EB4404A3F177
:103B600030000928F5D90A9472E54BF0800B9AF8D9
:103B700000306BE54BF0400B9AF8003066E59AF8A0
:103B800000306C2B03BF9AF801304BF0200B0AF188
:103B9000010A4BF0100B59E5002A40F011871BF089
:103BA000200F40F0F9841BF0100F40F0AC841BF0A4
:103BB000400F00F0A8840F9A136804320F92BDF8EA
:103BC00024201A8011E50F99B34B0C68189330220A
:103BD000782304318DF8793011934BF0020B0F915B
:103BE00000258DF878200223CBE50F9911930A6800
:103BF0008DF8A02000230A461F468DF87730043246
:103C000001230893CDF81CB00A9712970F920E93D8
:103C100028AEDFE51193002A40F0EA861BF0200F62
:103C20005DD11BF0100F40F008831BF0400F00F037
:103C300004830F99B1F900400431E51722462B4661
:103C40000F91002A73F1000358DB0A999DF87770F1
:103C50004A1C4FF001037FF49BAD54EA050200F0CB
:103C6000DF81CDF81CB0012B00F07B82022B40F0ED
:103C7000068218984E46230904F00F0143EA0573A3
:103C80002A091C461546435C06F8013D54EA050323
:103C9000F1D1A9EB06030E9390E51193002A40F0B1
:103CA000A3867E4B18931BF0200F3FF4EFAE0F9DC1
:103CB000073525F0070303F108021BF0010F0F92EF
:103CC000D3E900457FF4F4AE02235AE51193002AAC
:103CD00040F086864BF0100B1BF0200FA1D00F9DFB
:103CE000073525F00705D5E90023002A05F108016D
:103CF0001D4673F100030F911446A6DA2D27644286
:103D000065EB45058DF8777001233DE51193002A99
:103D100040F062860F9D073525F0070303F1080286
:103D20000F921A6815925B681493149B159D23F0EB
:103D30000044284621464FF0FF32594B05F0F4F974
:103D4000002840F04A83284621464FF0FF32544B6A
:103D500005F0CCF9002840F0408315A80DC814994F
:103D600005F0BAF9002840F030859DF877704D4E87
:103D70004D4B2BF0800007901198032200210892F0
:103D80000A914728D8BF1E460E9212911EE54BF0AD
:103D9000080B9AF8003059E4A3F1300000231C46C8
:103DA0001AF8013B04EB840400EB4404A3F1300057
:103DB0000928F5D90D944BE44BF0100B11931BF02F
:103DC00020033FF41DAE0F9D073525F0070303F1D7
:103DD0000802D3E900450F920023D2E41193002A90
:103DE00040F0E785119A002A3FF4A3AC002301219B
:103DF0001F4608918DF8A020CDF81CB08DF87730C3
:103E00000A9312930E9128AEE4E4279C34E5119BAB
:103E1000652B40F3A78015A80DC8149905F052F939
:103E2000002800F05081269B204AC8F8002001336A
:103E300001340122072B27942693C8F8042000F3AD
:103E40006A8308F108081F9B139A279C934203DB9F
:103E5000079BDD077FF582AD269B19991A9AC8F852
:103E6000002001330C44072BC8F804102794269334
:103E700000F39E8308F10808139B5E1E002E7FF757
:103E80006DAD102E269B0A4D40F3F581224610277A
:103E9000DDF830B00B9C13E02496400010964000F3
:103EA000FFFFEF7F049640000096400040964000E0
:103EB0005496400008F10808103E102E40F3DA81B5
:103EC00001331032072B2792269388E8A000F1DDFA
:103ED00025AA2146584604F059FA00287FF430AC50
:103EE000279A269BC846E7E70D9B089A9F1A002F42
:103EF0007FF7E5AC102F269BB64D27DD42462146C5
:103F0000B0464FF0100B2E460C9C0B9D04E0103F6A
:103F1000102F02F1080215DD01331031072B279114
:103F2000269382E84008F2DD25AA2946204604F0BF
:103F30002DFA00287FF404AC103F102F2799269B00
:103F40004A46E9DC35460C464646904601333C4439
:103F5000072B2794269388E8A00000F3328208F10B
:103F60000808ACE4139B269F012B40F3FE81013728
:103F700001340123072F27942697C8F80060C8F85A
:103F8000043000F3038208F10808199A1A9BC8F854
:103F9000003001371444072F27942697C8F80420CF
:103FA00000F3008208F1080815A80DC8149905F05F
:103FB00089F8139B002840F00181013B013701364D
:103FC0001C44072F26972794C8F80060C8F80430CF
:103FD00000F3278108F108081B9AC8F8042001376C
:103FE000144421AB072F27942697C8F800307FF799
:103FF000B3AC25AA0B990C9804F0C8F900287FF4FB
:104000009FAB279CC846A9E425AA0B990C9804F0FD
:10401000BDF900283FF4EBACFFF792BBDDF81CB014
:10402000012B00F03481022B25D1CDF81CB00024E7
:1040300000251EE625AA0B990C9804F0A7F9002884
:104040007FF47EAB279CC84675E425AA0B990C9893
:1040500004F09CF900287FF473AB279CC8461BE44E
:1040600025AA0B990C9804F091F900287FF468AB0D
:10407000279CC84620E4CDF81CB000240025494602
:1040800000E03146E20842EA4572E80804F007031E
:1040900005461446303354EA050201F8013C01F1AB
:1040A000FF36EED1079AD2077FF5F3AD302B3FF400
:1040B000F0AD0239302306F8013CA9EB01030E9361
:1040C0000E46FFF77BBB1F99002940F32E82129BFF
:1040D000139A9342A8BF1346002B1F460DDD269B63
:1040E000C8F8006001333C44072B2794C8F80470DB
:1040F000269300F31F8308F10808129B002FA8BF26
:10410000DB1B002B1F4640F3D680102F269B314D22
:1041100040F3ED8142462146B0464FF0100B2E464B
:104120000C9C0B9D04E00832103F102F40F3DB8104
:1041300001331031072B2791269382E84008F2DDE6
:1041400025AA2946204604F021F900287FF4F8AA80
:104150002799269B4A46E7E70A9B0E934E46FFF7B0
:104160002DBB002D08BF0A2CC0F08F804E46204684
:1041700029460A220023FEF767FD303206F8012D9A
:104180002046294600230A22FEF75EFD04460D461E
:1041900054EA0503EBD1A9EB06030E93FFF70EBB20
:1041A00025AA0B990C9804F0F1F800287FF4C8AA0E
:1041B0009DF87770279CC846FFF75EBB5E1E002EF9
:1041C0007FF70AAF102E034D22DD22464FF0100B71
:1041D0000C9C06E054964000103E102E08F1080892
:1041E00015DD01371032072F2792269788E820081F
:1041F000F2DD25AA0B99204604F0C8F800287FF4C8
:104200009FAA103E102E279A269FC846E9DC144626
:1042100001373444072F2794269788E860007FF7FA
:10422000D9AE25AA0B990C9804F0B0F800287FF4B9
:1042300087AA279C269FC846CEE60F9A1468134685
:104240000433E5170F9322462B46FAE404321C6828
:104250000F9201230025FFF794BA1C6804330F93D3
:10426000002521E40F990A4604320C680F920025BC
:10427000FFF787BA144601333444072B279426935B
:1042800088E860007FF768ABB3E6DDF81CB0CDF8D6
:104290001CB042AE3034012306F8414D0E93FFF7B7
:1042A0008DBA25AA0B990C9804F070F800287FF4B9
:1042B00047AA279CC8461F9A139B9A4244DB079B38
:1042C000D90741D4139B12989A1A1D1A9542A8BF78
:1042D0001546002D0EDD2699C8F80450013106441C
:1042E0002C440729C8F800602794269100F33B82EC
:1042F00008F10808002DACBF561B1646002E7FF7AC
:104300002DAB102E269BB04DB5DD22461027DDF8D3
:1043100030B00B9C04E008F10808103E102EA9DD17
:1043200001331032072B2792269388E8A000F2DD94
:1043300025AA2146584604F029F800287FF400AA4F
:10434000279A269BC846E8E7269B19981A99C8F829
:10435000001001330444072B2794C8F80400269367
:1043600000F3F58108F10808ACE7079BDA073FF591
:10437000FEAD013701340123072F27942697C8F893
:104380000060C8F804307FF725AE4AE725AA0B99EC
:104390000C9803F0FBFF00287FF4D2A9279C269FEE
:1043A000C846F2E525AA0B990C9803F0EFFF002808
:1043B0007FF4C6A9279C269FC846F5E54E46FFF721
:1043C000FDB925AA0B990C9803F0E0FF00287FF4B3
:1043D000B7A9279CC846FFF772BA159C224620460B
:1043E000149C2346214604F09FFE002840F086825C
:1043F0000A9B0133119B23F020030E9300F0E2810E
:10440000472B00F01E814BF480730793149B1F1EF3
:10441000159B0893BBBF3B4603F1004700232D23A8
:104420001093119B662B00F0BB81462B00F0DF80C0
:104430000E9B089A452B0CBF0A9B0A9D23A820A916
:1044400008BF5D1C049003911FA802213B46029007
:10445000019500910C9801F0A3FA119B672B064679
:1044600040F0E0811BF0010F00F046827419169AAB
:104470000898179B394604F025FE002840F0658116
:10448000239BA34206D230215A1C23921970239BEE
:104490009C42F9D89B1B13930E9B472B00F0E9809D
:1044A000119B652B40F3CD81119B662B1F9B1293B3
:1044B00000F09E81139B129A1946914200F38A8163
:1044C0001BF0010F40F0138222EAE2730893672386
:1044D0000E921193109B002B40F0C4800A939DF81C
:1044E0007770FFF773B935460C4646469046013360
:1044F0003C44072B2794269388E8A0003FF7D1AED1
:1045000008F10808D7E60F9A136804320F92099A47
:104510001A60FFF76AB825AA0B990C9803F036FFCA
:1045200000287FF40DA9C8468DE4269B274AC8F8C9
:104530000020013301340122072B27942693C8F869
:10454000042072DC08F1080829B9139B1BB9079BEA
:10455000D8077FF503AA269B19981A9AC8F8002055
:10456000013302462244072B2792C8F80400269301
:1045700000F38D8108F108080029C0F265811399C4
:10458000C8F8006001338C18072B27942693C8F8CD
:1045900004107FF7E1A92CE50F9A09991368CD174C
:1045A0000846043229460F92C3E90001FFF71DB8FF
:1045B00025AA0B990C9803F0E9FE00287FF4C0A807
:1045C000279CC84658E400BF5496400040964000DF
:1045D00040210C9802F058FE0B9A106010610028E0
:1045E00000F0F2810B9A40235361FEF7EEBF23A83F
:1045F00020A90A9C049003911FA803210290089A05
:1046000001943B4600910C9801F0CAF925460646F4
:10461000119B462B06EB05047FF429AF3378302B32
:1046200000F078811F9D2C4421E725AA0B990C9856
:1046300003F0ACFE00287FF483A81F99279CC8468E
:1046400082E70A9B002B08BF01230A93DBE6304672
:104650000A94FEF735FF0F950E90CDF81CB0034677
:10466000FFF7F9B92D2700238DF877700A93FFF72C
:10467000AEB81F9B12931A46033304DB0A9B1946FC
:104680009142BFF617AF119B023B11939DF8443046
:104690008DF88430129B013B002B1F93BDBF129BF2
:1046A000C3F101032D222B22092B8DF8852040F325
:1046B00016810DF193042046AB4D00E0104685FBBA
:1046C0000312D917C1EBA20101EB8102A3EB420255
:1046D0003032092900F8012C0B4600F1FF32EDDCE5
:1046E00030330238D9B2844202F8011C40F26581AD
:1046F0000DF18600134601E013F8011B00F8011BC1
:10470000A342F9D101339B1A0DF18602134421AA69
:104710009B1A139A1B93012A13440E9340F3198199
:104720000E9B199A13440E9323EAE3730893002314
:104730001293CFE625AA0B990C9803F027FE0028C8
:104740007EF4FEAF279CC846D7E42346A2E625AAFE
:104750000B990C9803F01AFE00287EF4F1AF1F9A13
:10476000279CC846AEE525AA0B990C9803F00EFECF
:1047700000287EF4E5AF1F9A139B279C9A1AC8461F
:10478000B8E50A9B1296062B28BF06230A963746E1
:1047900008930F95CDF81CB00E93744EFFF716B822
:1047A00023A820A90A9D049003911FA80321029029
:1047B000089A01953B4600910C9801F0F1F80646E5
:1047C00044192BE706230A931DE62D278DF87770F1
:1047D000FFF7CDBA199A139B1344129A0E93002A2D
:1047E00040F3B08023EAE37308936723119371E6E3
:1047F000002B40F3C3800A9A002A40F099801BF0F6
:10480000010F40F0958008930E9363E60A9B08938E
:104810000E930A900F95CDF81CB012909DF877700A
:10482000FEF7D4BF119B472B7FF420AE1BF0010F86
:104830007FF4EEAE239B9B1B13930E9B472B3FF401
:1048400018AF1F9B129321E74F421031484D2FDACA
:104850001024DDF830B004E008F10808103F102FF4
:1048600026DD01331032072B27922693C8F800501B
:10487000C8F80440F0DD25AA0B99584603F086FDE0
:1048800000287EF45DAF279A269BC846E6E725AA56
:104890000B990C9803F07AFD00287EF451AF1F9914
:1048A000279A269BC84667E600200A90FEF7D0BEEE
:1048B00001333A44072B88E8A0002792269308F199
:1048C00008087FF75CAE25AA0B990C9803F05EFDF3
:1048D00000287EF435AF279A269BC8464FE6303332
:1048E00030228DF887308DF8862022AB0FE7129B9F
:1048F000199A13440E9375E7239BCBE5149B1D4E29
:10490000002BB6BF2D279DF877708DF877701A4B66
:10491000FFF72FBA169A0898179B394604F0D2FB76
:1049200000287FF47FAEC5F101051F952C449EE55C
:10493000129B199A13440A9A1A4422EAE2730E92BD
:104940000893C7E5129B0E9AC3F101031A4413465C
:10495000D0E71BF0010312937FF4E2AE0E9B23EA33
:10496000E3730893B6E500BF676666663896400055
:10497000549640000C964000089640000A9B13B9DC
:104980001BF0010F02D0199B0133D4E701233AE752
:104990000F9D9AF80130286840EAE0700A90284696
:1049A0000430A2460F90FEF751BE8DF87710FFF746
:1049B00067B88DF87710FFF715BA0DF18603A6E6F4
:1049C0008DF87710FFF7EBB80C9A0C2313604FF0BB
:1049D000FF330993FEF7BDBE8DF87710FFF79AB944
:1049E0008DF87710FFF776B98DF87710FFF759B982
:1049F0008DF87710FFF712B92DE9F84F4B6E9C0434
:104A000093462FD59368126853B30E46074602F1BA
:104A1000080919E920045FEA9A0817D0043D002428
:104A200001E0A04510D0324655F8041F384602F088
:104A30007BF8431C04F10104F3D10023CBF80830C8
:104A4000CBF80430BDE8F88FDBF808302AF0030A11
:104A5000A3EB0A03CBF8083009F10809002BD8D1E1
:104A60000020EAE702F0CAF90023CBF80830CBF8BF
:104A70000430BDE8F88F00BF2DE9F04FADB01D4602
:104A80008B4690460793069018B1836B002B00F07D
:104A9000F380DBF86430BBF90C00DF0781B202D48D
:104AA0008E0540F1FC808C040AD4DBF8643040F4BD
:104AB000005123F40053ABF80C10CBF8643089B2EA
:104AC000080740F1B380DBF81030002B00F0AE8017
:104AD00001F01A030A2B00F0B58000230DF17009D4
:104AE0000B93119310930393CDF83C90CA46CDF8E5
:104AF00010B098F800304446FBB1252B02D11CE0E1
:104B0000252B03D014F8013F002BF9D1A4EB0805A5
:104B10009DB1109B119ACAF8008001332A44072BDB
:104B2000CAF80450119210937ADD002A40F0B08444
:104B3000039B10922B44CA4603932378002B00F06A
:104B4000E08300204FF000038DF8373004F10108B6
:104B500062780546064603464FF0FF3408F1010827
:104B6000A2F12001582900F2DE82DFE811F02102D3
:104B7000DC02DC022902DC02DC02DC02DC02DC02F8
:104B8000DC0289029502DC02A200BD02DC029F0168
:104B9000A401A401A401A401A401A401A401A401ED
:104BA000A401DC02DC02DC02DC02DC02DC02DC024E
:104BB000DC02DC02DC02B201DC02DC02DC02DC0230
:104BC000DC02DC02DC02DC02DC02DC029701DC023B
:104BD000DC02DC02DC02DC029B01DC02DC025302B0
:104BE000DC02DC02DC02DC02DC02DC02DC02DC02D5
:104BF000DC02DC025A021B02DC02DC02DC026E0276
:104C00001B02DC02DC027302DC02F50182010902F4
:104C1000D702DC029A02DC02A700DC02DC022E02D0
:104C20000AF1080A039B2B44039386E7594606982A
:104C300000F0ACFD18BBBBF80C1001F01A030A2BF6
:104C40007FF44BAFBBF90E30002BFFF646AFDBF81D
:104C50006430DB0705D48F0503D4DBF8580002F07D
:104C600091FA2B4642465946069800F04DFD0390B6
:104C700003982DB0BDE8F08F01F0B4FE09E7DBF832
:104C80006430D90704D4BBF80C309A0540F1AA84EB
:104C90004FF0FF33039303982DB0BDE8F08FDBF89E
:104CA000580002F06DFABBF90C0081B2FBE67642C7
:104CB000079243F0040398F800204FE708969E06F9
:104CC00000F150840799DD060A4600F1EF8358068B
:104CD00040F1EC830E8804310027012207914FF048
:104CE00000018DF837100025611C00F0168123F0BB
:104CF0008001029156EA070140F01481002C40F037
:104D00005C83002A40F0B78313F00103059300F0A1
:104D100057840DF1B00B30230BF8413D059BA342A6
:104D2000B8BF234601930DB101330193029B13F0E9
:104D30000203099302D0019B02330193029B13F0FB
:104D400084030A9340F01782089B019A9D1A002D54
:104D500040F31182102D40F39084109B119AC44EA1
:104D6000D6461027A2461946069C07E001F1020C20
:104D70000EF1080E0146103D102D11DD481C1032B9
:104D8000072811928EE8C0001090EFDD002A40F055
:104D9000E481103D102D11464FF0010CCE46EDDCA4
:104DA00054466146F2462A4407291192CAF8006027
:104DB000CAF80450109100F3EC829DF837500AF1C4
:104DC000080A481C002D40F0DE81099B002B00F0F2
:104DD000F88102320EA902230728119210908AE866
:104DE0000A0040F3EA81002A40F08C830A9B802B62
:104DF0004FF001001146CA4640F0E781089B019D33
:104E00005E1B002E40F3E181102E9A4D40F350843A
:104E1000D4461027A246069C07E001F1020E0CF1D1
:104E2000080C0146103E102E11DD481C10320728D8
:104E300011928CE8A0001090EFDD002A40F09D82D6
:104E4000103E102E4FF0010E1146CC46EDDC5446BC
:104E5000E2463244BEF1070F11928AE86000CDF8B5
:104E600040E000F369830AF1080A0EF1010071467F
:104E7000ABE1089613F0200240F08C8313F0100190
:104E800040F01A8313F0400200F0168307980A4698
:104E90000146043106880791002720E7089643F071
:104EA0001003E7E7089643F0100308E743F0800398
:104EB00098F8002052E6A2F13001002618F8012BE4
:104EC00006EB860601EB4606A2F130010929F5D969
:104ED00046E60896002840F0088443F010039E063A
:104EE00000F14C83DD0600F1F382580640F1F082B8
:104EF000079DB5F900602A46F71704323046394657
:104F00000792002871F10002C0F25D83611C9DF8D8
:104F100037504FF001027FF4EAAE56EA070100F085
:104F20004D820293012A00F08C82022A40F05C82BA
:104F30000B98CB46330906F00F0143EA07733A0991
:104F40001E461746435C0BF8013D56EA0703F1D1B4
:104F5000A9EB0B030593E1E6002840F0C083990616
:104F600000F16783DA0600F1F1805B0640F1EE8024
:104F7000079A136804320792BDF80C201A80B8E52E
:104F800007983D4A08960B92066878223021043033
:104F90008DF8392043F00203079000278DF8381070
:104FA00002229CE60896002899D08DF8375096E7A3
:104FB00098F80020002D7FF4D1AD01202025CDE50B
:104FC00043F0010398F80020C8E50896002840F057
:104FD000938329490B919F0600F1E8820798DE062A
:104FE000014600F170825D0640F16D820431068851
:104FF00007910027D80740F1228256EA070100F006
:105000001E8230218DF8392043F002038DF83810CC
:10501000022264E60896002840F06B8317490B9142
:10502000D9E7079908960A688DF848204FF00000E4
:105030000A468DF83700043201200190079205904E
:105040000DF1480B0293002470E643F0400398F8FA
:10505000002083E598F800206C2A03BF98F801200F
:1050600043F0200308F1010843F0100376E500BF88
:1050700064964000749640002496400010964000CC
:1050800007990E680A46002E02F10402FFF60FAEE1
:10509000079298F8002061E598F8002001202B2560
:1050A0005CE507990896D1F800B04FF000028DF842
:1050B00037200E1DBBF1000F00F0E582671C00F0E9
:1050C000C482224600215846019302F0A9FB019BAD
:1050D000002800F0E582A0EB0B02059207960293F0
:1050E0009DF83750002419E698F800202A2A08F184
:1050F000010700F0E982A2F130010929B8464FF01A
:1051000000043FF62DAD18F8012B04EB840401EBED
:105110004404A2F130010929F5D921E543F0200327
:1051200098F800201AE50896002840F0DB82002A53
:1051300000F0E78001218DF848204FF00002019136
:105140008DF8372005910DF1480B7BE7079A13681E
:1051500004320792039A1A60CBE40FAA04992046FE
:10516000FFF74AFC002840F039811099119A01F1AB
:10517000010CCE46FFE51099119A481C9DF8375056
:10518000002D3FF422AE01320DF137050121072831
:1051900011921090CAF80050CAF8041040F3088128
:1051A000002A40F0BC81099B002B3FF41FAE0EABE0
:1051B000022208461C931D92CA4601460AF1080ABB
:1051C00001300A9B802B3FF419AE059BE41A002C9A
:1051D0002EDD102CB34D1EDDD6461026069FDDF8C1
:1051E00010A006E0881C0EF1080E1946103C102C89
:1051F00010DD4B1C1032072B11928EE860001093CB
:10520000F0DD002A65D1103C102C4FF00100114652
:10521000CE46EEDCF246224407281192CAF800502E
:10522000CAF80440109000F385800AF1080A0130A2
:105230000599CAF800B00A4407281192CAF8041068
:10524000109040F38280002A40F01881029B109257
:10525000580735D5089B01995C1A002C40F3E7806C
:10526000CA46102C40F3188210998F4E069FDDF825
:1052700010B0102506E0881C0AF1080A1946103CF7
:10528000102C11DD4B1C1032072B1192CAF8006054
:10529000CAF804501093EEDD42BB103C102C4FF0C6
:1052A00001001146CA46EDDC224407281192CAF8D3
:1052B0000060CAF80440109051DD002A40F09B8144
:1052C000039B089A01998A42ACBF9B185B18039311
:1052D0004EE00FAA51463846FFF78EFB002840F0FB
:1052E0003F811099119A481CCE467FE70FAA594674
:1052F0003846FFF781FB60B91099119A481CCA46DD
:10530000BDE7119BDDF810B0002B40F0D4810023E5
:105310001093DBF8643013F0010FBBF80C3002D1AE
:105320009A0540F1DE805B063FF5B2AC03982DB0E4
:10533000BDE8F08F002A40F00681059A1D920123F6
:105340001192CDF870B01093CA460AF1080A029B78
:10535000590704D5089B01995C1A002C81DC039B3A
:10536000089901988142ACBF5B181B18039372BB6C
:1053700000231093CA46FFF7BCBB0FAA049920462E
:10538000FFF73AFB50BB1099119A01F1010ECC4680
:1053900048E5002A40F040819DF83710002900F0D0
:1053A0001B8101220DF1370110461D921C91CA4646
:1053B00001460AF1080A013007E5029B012A00F0C4
:1053C0009880022A0DD1029300260027B0E50FAA8B
:1053D00004990698FFF710FB0028C9D0DDF810B03B
:1053E00097E7029300260027494600E05946F20855
:1053F00042EA4772F80806F00703074616463033BC
:1054000056EA070201F8013C01F1FF3BEED1029A96
:10541000D6077FF59DAD302B3FF49AAD023930238E
:105420000BF8013CA9EB010305938B4676E4039B43
:10543000089A8A42ACBF9B185B18039398E7022234
:105440004DE4002F08BF0A2E52D3CB4630463946D2
:105450000A220023FDF7F8FB30320BF8012D30460D
:10546000394600230A22FDF7EFFB06460F4656EAAF
:105470000703EBD16CE50594CB464FE40FAA0499E2
:105480000698FFF7B9FA0028A8D1119ACA465EE734
:105490000FAA04990698FFF7AFFA00289ED1CA46D2
:1054A000FFF7C0BB74964000649640000431166854
:1054B00007910122002712E407980146043106688B
:1054C000079100270BE40E6804310791002791E54E
:1054D00007990E680A46F717043207923046394694
:1054E0000FE5DBF8580001F04DFEBBF80C301AE771
:1054F000029B02930DF1B00B303601230BF8416D86
:1055000005930BE40FAA04990698FFF775FA002893
:105510007FF464AF1099119A481CCA4651E60FAA4D
:1055200004990698FFF768FA00287FF457AF10999E
:10553000119A481CCA4648E4002A40F09180012094
:105540001146CA4641E60FAA04990698FFF754FA95
:1055500000287FF443AF1098119A0130CA4667E6DD
:10556000D346D6E6079E073626F0070202F1080169
:10557000D2E9006707910122FFF7B1BB079E07360A
:1055800026F00706D6E9000106F108020792064652
:105590000F46B6E4079E073626F0070202F108011F
:1055A000D2E9006707910022FFF799BB079E0736F3
:1055B00026F0070101F108000790D1E9006719E51D
:1055C000CB46FFF7ABBB2D25764267EB47078DF83F
:1055D00037500122FFF788BB099BB3B91146012060
:1055E000CA46F2E5DBF8580001F0CCFD4FF0FF337E
:1055F0000393FFF750BB0FAA04990698FFF7FCF935
:1056000000287FF4EBAE119AA9E60EAB02221C93A0
:105610001D920120CA46D0E50FAA04990698FFF70B
:10562000EBF900287FF4DAAE1099119A481CCA46AB
:10563000A4E5079A03991368CD1708460432294652
:105640000792C3E90001FFF754BA58460796029340
:10565000FDF736FF002405909DF83750FFF75EBB3D
:105660000FAA04990698FFF7C7F900287FF4B6AE91
:105670001099119A481CCA46A7E51099119A204E14
:105680000131FFF790BB062C28BF0624059407962E
:105690000194DFF870B0D5E41098194E013003E69C
:1056A00005949DF83750079602930446FFF736BBE2
:1056B0008646FFF7CEBB06980FAA5946FFF79CF91E
:1056C00000283FF424AE24E6079998F801200C68DE
:1056D000043144EAE474B8460791FFF73FBA8DF805
:1056E00037503CE48DF8375021E58DF83750FFF7FF
:1056F000F4BB8DF8375091E48DF8375069E400BF62
:1057000064964000389640002DE9F0410C46ADF516
:105710008D6D8989666EE589199621F0020106462C
:10572000E069ADF80C1017464FF48061626AADF87D
:105730000E5098461AAD0023079016A809920693BA
:10574000009504950291059101F016FD43463A46F5
:1057500069463046FFF790F9051E07DB304669467B
:1057600001F0E8F8002818BF4FF0FF35BDF80C3005
:105770005B0603D5A38943F04003A381169801F08B
:10578000FDFC28460DF58D6DBDE8F08138B5304B38
:105790001B6805460C4613B19A6B002A38D0B4F941
:1057A0000C2093B218070CD52069A8B113F00102A0
:1057B0001ED0636900225B42A361A260F0B10020A9
:1057C00038BDD9063CD5580726D4206942F00803D5
:1057D000A3819BB20028E9D103F42072B2F5007FC7
:1057E000E4D02846214601F0FDFCA3892069DDE7CD
:1057F000990758BF6269A2600028E0D1B4F90C3063
:105800001A06DDD543F04003A3814FF0FF3038BDC9
:10581000184601F0E7F8C2E7216B51B104F14003EB
:10582000994204D0284601F003FAB4F90C20002371
:10583000236300232069636022F024022060C5E70F
:1058400042F0400209232B604FF0FF30A28138BDA7
:105850003C004020024B13B1024800F005B87047ED
:1058600000000000556A4000002301461A46184611
:1058700002F0B0BE02690B69934200F38D802DE9FE
:10588000F04F03F1FF3801F1140700F1140B57F842
:1058900028205BF828304FEA880483B00132B3FB3C
:1058A000F2F90BEB0403009407EB040A0193B9F13E
:1058B000000F39D000252E46BC46DE465CF8044B6E
:1058C000DEF80030A2B209FB0255220C2C0C09FBB9
:1058D0000242ADB2751B96B2C6EB134615FA83F3BE
:1058E00006EB23469BB243EA0643E2454FEA1245E4
:1058F0004EF8043B4FEA2646E0D2009B5BF80330AB
:1059000093B9019C231F9B450CD254F8043C4BB91E
:10591000A4F1080302E01A68043B1AB99B4508F198
:10592000FF38F8D3C0F81080044602F037FA002898
:105930002EDB09F101095D46002357F8041B286896
:105940008AB29A1A0B0C12FA80F2C3EB104303EBE3
:10595000224392B242EA0342BA4545F8042B4FEA89
:105960002343EAD25BF828200BEB880382B91A1F85
:1059700093450BD253F8042C42B9083B02E01A6855
:10598000043B1AB99B4508F1FF38F8D3C4F81080DE
:10599000484603B0BDE8F08F0020704700000000CB
:1059A0002DE9F04F016C9BB00446279E92469B4622
:1059B00041B1426C4A60012393408B6002F016F8BB
:1059C00000232364BBF1000F5D4635DB0023336009
:1059D0009D4BAB4315D0504659460022002303F09F
:1059E00071FB804600282DD0269A01231360289B46
:1059F000002B00F0BD809548186001381BB0BDE851
:105A0000F08F269A42F20F731360BAF1000F0DD196
:105A1000C5F3130555B9289B8D48002BEED000F136
:105A20000803289A13601BB0BDE8F08F289B8948B3
:105A3000002BE3D0C31CF4E701232BF000453360B7
:105A4000AB46C5E718AA19AB0192009352465B46D4
:105A5000204602F043FA2B0D814671D0CBF313029E
:105A600042F07F51189FCDF850805046A3F2FF3688
:105A700041F440110022784B02F008FF6CA3D3E9F7
:105A8000002303F0B7F86CA3D3E9002302F000FF72
:105A9000CDE90201304603F047F869A3D3E90023BA
:105AA00003F0A8F802460B46DDE9020102F0F0FE21
:105AB000CDE9040103F04EFB002202900023DDE952
:105AC000040103F009FB002840F07381029D162DAC
:105AD00000F25D81614B03EBC503D3E9000152463F
