:020000040040BA
:1000000000A54020E1204000DD204000DD20400030
:10001000DD204000DD204000DD2040000000000029
:10002000000000000000000000000000DD20400093
:10003000DD20400000000000DD204000DD20400009
:10004000DD204000DD204000DD204000DD204000BC
:10005000DD204000DD204000DD204000DD204000AC
:10006000DD20400000000000391F40004D1F40000F
:10007000611F4000DD204000DD204000DD20400009
:10008000751F4000891F4000DD204000DD2040003A
:10009000DD204000DD204000DD204000DD2040006C
:1000A000DD204000DD204000DD204000DD2040005C
:1000B000DD204000DD204000DD204000DD2040004C
:1000C000DD204000DD204000DD204000DD2040003C
:1000D000DD204000DD204000DD204000E10B40003D
:1000E000DD204000DD204000DD204000DD2040001C
:1000F000DD204000DD204000DD204000DD2040000C
:10010000DD204000DD204000DD204000DD204000FB
:10011000DD204000000000000000000000000000A2
:10012000DD204000DD204000DD204000DD204000DB
:10013000DD204000DD204000DD204000DD204000CB
:10014000DD204000DD204000DD204000DD204000BB
:10015000DD204000DD204000DD204000DD204000AB
:10016000DD204000DD20400010B5054C237833B978
:10017000044B13B10448AFF300800123237010BD7A
:10018000D009402000000000F85C40000C4B43B157
:100190000C480D4910B5AFF300800C48036823B933
:1001A00010BD0A48036833B97047094B002BF7D0DC
:1001B000BDE810401847064B002BF5D0184700BF8C
:1001C00000000000F85C4000D4094020F85C4000CA
:1001D000000000002DE9F04180B90C469046002A4D
:1001E0000FDD8F18084E094D306821462B6898475F
:1001F0000134BC42F8D14046BDE8F0814FF0FF38F1
:10020000F9E78046F7E700BFE8824020D07240203F
:10021000038801339BB28B4228BF002303807047C1
:10022000F0B5D0F800E001EB810300EBC3035A689E
:100230001E69DEF8004024F00804CEF800400024D7
:100240001C85DC849B8CFBB1344600234FF00047B7
:1002500001EB810500EBC50046F8332067600133F0
:10026000858C02F2EE5208349D42F5D806EBC505A6
:100270004FF0404345F8043C41B126F0030601F23B
:100280000F114EF82160F0BD0025EFE726F00306C0
:10029000CEF81C60F0BDF0B5D0F800E001EB8103B2
:1002A00000EBC3039A68DE68DEF8004024F0040423
:1002B000CEF8004000245C841B8C13B3344600232A
:1002C0001F4601EB810500EBC50022F0030546F84F
:1002D000335067600133058C803208349D42F4D876
:1002E0006FF060432B4456F8332042F0020246F888
:1002F000332041B126F0030601F21F114EF82160B0
:10030000F0BD0025ECE726F00306CEF81860F0BD3E
:10031000F8B504460E461546002303604FF0FF3340
:10032000C362036843F0200303600F23036240F2BB
:100330003F1343614268454B134343602B78002BC6
:1003400079D0436843F0100343606B78002B77D17A
:10035000636823F020036360D4F80034D4F80434D5
:10036000D4F80834D4F80C34D4F81034384B4FF0A7
:10037000FF321A604FF040425A6023F00303C4F882
:100380004034C4F84434C4F84834C4F84C34C4F895
:100390005034304B6FF001021A6000275F6023F089
:1003A0000303C4F88034C4F88434C4F88834C4F82F
:1003B0008C34C4F89034636A274B23F00703B3608E
:1003C000264B23F00703F36010223284244B23F0E2
:1003D00007037360234B23F007033361B284224B7E
:1003E000F36139463046214B984739463046204B19
:1003F0009847236843F008032360236843F004030D
:100400002360236843F08003236043F6F643A3622E
:100410006A792B791B0443EA0263AA781343EA78CA
:1004200043EA0223C4F88830EA79AB7943EA02232D
:10043000C4F88C30F8BD436823F01003436084E7B0
:10044000636843F02003636086E700BF0221020077
:10045000380B4020700A4020400B4020F00940201B
:1004600040134020B80A4020780A402097024000FC
:10047000210240002DE9F04F87B0029101EB810489
:1004800000EBC404668CADF81660002A00F0CB8047
:100490008E461546E26802EBC6044FF0000C109F32
:1004A000C7F800C052F8362012F0010F00F0BD80EE
:1004B00001959B460391054601EB810300EBC303C5
:1004C00022330093E046E146674601EB8106F600E1
:1004D0001CE0AB19198C0DF11600554B9847B8F17B
:1004E000000F3AD1236823F001032360AB19BDF854
:1004F00016205A84AB19BDF81620DB6803EBC20442
:1005000053F8323013F0010F00F08980636813F460
:10051000804FDED0AB195B8CBDF816209A4213D009
:10052000AF19DFF80C81FA6802EBC30452F83310FC
:1005300021F0010142F83310398C0098C0477B8CC0
:10054000BDF816209A42EED1AB19198C0DF11600A8
:10055000374B9847DDF804900027BDF816A0AB197B
:100560005B8C534508D007F180035B451DD9ABEB8D
:1005700007081FFA88F81AE0029B03EB830305EBD8
:10058000C3052B4C009E698CEA6852F8313023F089
:10059000010342F83130298C3046A0476A8CBDF8FF
:1005A00016309A42EFD103203AE04FF080082168DC
:1005B000424621F0030148461E4B9847C144474438
:1005C000636813F4004F02D14FF0010892E7C3F3C0
:1005D0000B03109A1360039B03EB830305EBC30328
:1005E0005B8C9A4514D0029A02EB820205EBC2059D
:1005F0000F4CE96851F8332022F0010241F8332012
:10060000298C0098A0476B8CBDF816209A42F0D137
:10061000109B1868874234BF0520002000E00420AA
:1006200007B0BDE8F08F0620FAE70420F8E700BF26
:1006300011024000912B40002DE9F04385B00746A0
:100640000D4606680C46002953D1736A0393336A3A
:10065000029373690193316B039B494A0A4323EA6E
:1006600002030393039B13F0020F03D1029B13F0C9
:10067000020F14D0029B03F00403002B0CBF0220D6
:100680000620029B13F0010F18BF40F001003062FA
:1006900005EB850307EBC3035B6903B19847039B35
:1006A00013F0800F03D1019B13F0200F65D0019B45
:1006B00013F0040F23D14FF02009019B13F0020F18
:1006C00018BF49F00209C6F8149005EB850307EB43
:1006D000C303DA8C1B8D9A4237D06E1C06EB86065C
:1006E00007EBC60604EB840407EBC404DFF898802C
:1006F0001CE001F1FF0356F823300393A7E72946D6
:100700003846204B9847336843F0080333604FF076
:100710000409D2E7A18C3046C047E38C228D9B1A96
:10072000A18C93FBF1F201FB123373B1228DE169CD
:10073000236903EBC2035B68002B06DA51F8223011
:10074000002BE7D048469847E4E705EB850307EB25
:10075000C3031A8DD98C0131521A988C92FBF0F197
:1007600000FB112293F82A309A4206DB05EB85053F
:1007700007EBC505AB6903B1984705B0BDE8F08349
:10078000000303F8210240001102400008B5074BA6
:10079000984203D0064B984204D008BD1520054B63
:1007A000984708BD2A20034B9847F6E70080004091
:1007B00000800540BD204000436823F4702343605F
:1007C0004368090401F4702119434160704743688C
:1007D00023F07F434360436843EA0161416070470F
:1007E00010B443F69923046914F0010F03D1013BBF
:1007F000F9D1012009E08368406810F0020F02D0AF
:10080000C3F3034010700B8000205DF8044B704769
:1008100030B443F69924056915F0020F03D1013C69
:10082000F9D101200CE0446814F0020F06D0120444
:1008300002F4702211430BB141F08071C1600020BD
:1008400030BC704732B900EB8100036B23F0010329
:100850000363704700EB8100036B43F00103036304
:10086000704732B900EB8100036B23F0020303638E
:10087000704700EB8100036B43F002030363704792
:10088000042A03D06AB1082A16D0704700EB810011
:10089000036B23F008030363036B43F00403036358
:1008A000704700EB8100036B23F008030363036BC5
:1008B00023F004030363704700EB8100036B43F0F4
:1008C00008030363E1E700EB81010B6B23F0F00306
:1008D0000B630B6B1A430A6370477AB110B414466A
:1008E00000EB81010B6B23F47F430B630A6B42EA3D
:1008F00004220A6300205DF8044B70474FF0FF307C
:10090000704710B400EB8101086B80B208630C6B78
:1009100044EA036343EA02430B635DF8044B704708
:1009200010B40B01934214D9C9004B0803EBC20267
:10093000B2FBF1F2D3085C1E4FF6FE718C4201D976
:10094000012017E0416841F4002141600CE00120E2
:1009500010E0590801EBC202B2FBF3F2D3085C1EAF
:100960004FF6FE718C42F2D8120402F4E0221A43D0
:10097000026200205DF8044B70470000084BC0F88D
:10098000E4300023436043628362882303602423AE
:1009900003604FF4807303604FF4002303607047DB
:1009A0000041535570B505460C4616460F4B984707
:1009B00000220F4B1A60A4B13246216828460D4B25
:1009C0009847024678B96368A1680B4321690B43D5
:1009D000E1680B4306490B6069680B436B60104686
:1009E00070BD0122FBE70122F9E700BF7D0940004D
:1009F00020724020210940004023036070471023EB
:100A000003607047436913F0020F04D0C1F308017B
:100A1000C1610020704701207047436913F0010F46
:100A200005D08369C3F308030B60002070470120E1
:100A30007047000010B582B0054B00934FF4C063BF
:100A4000044A00210448054CA04702B010BD00BF75
:100A5000C8824020CC754020D474402075044000EA
:100A600010B58CB013201A4B98471A4B09931A4BA8
:100A70000A931A4C09A92046194B984757238DF819
:100A800020309A238DF8103001230593CDF818D02B
:100A9000102307930DEB03012046124B98479DF856
:100AA0000030FC2B01D00CB010BD9DF80130C22BE2
:100AB000F9D19DF802303D2BF5D16B460A4A0DF174
:100AC000060013F8011B02F8011B8342F9D1EAE783
:100AD000BD20400000A3E111801A06000080014003
:100AE000ED194000211A40001000402038B5284B75
:100AF0009847284A284B1A601A461368591E1160F5
:100B0000002BFAD12720254B9847254A0025157040
:100B10005570244B1868C2F802009B88D380224984
:100B2000224C0C602046224B98478022214B5A6071
:100B3000214A29462046214B9847C8B900211B4825
:100B40001F4B9847C8B90122002118481D4B9847F0
:100B5000C0B91D4B1D4A11781970517859709178A0
:100B60009970D278DA7046F291329A80012038BDBD
:100B70001748184B9847284638BD1748154B9847D3
:100B8000002038BD1548134B9847002038BD00BFE2
:100B9000610A4000005A6202C8754020BD20400032
:100BA000CC7B402010004020D47440200000054041
:100BB0001103400000E100E000A3E111D91740005B
:100BC000DD154000E9144000CC8240200C0040209C
:100BD00034584000FD2D40004C58400064584000FF
:100BE00008B500210148024B984708BDD474402045
:100BF000390640002DE9F04F83B000AF0E46144691
:100C000001462948294B9847002C45D034445FFAC7
:100C100084FADFF8A8B0C7F804D09BF80040E31DC1
:100C200023F00703ADEB030D6D4606F101095FFAF2
:100C300089F9C7F800D004F1080323F00703ADEBEE
:100C4000030D06F01F068DF80060611C6846184B06
:100C500098475CB10DF101086B1E611E55FA81F1D8
:100C600018F8012B03F8012F8B42F9D1D7F800D0E7
:100C700010480E4B9847013C2C1908D2DFF84080F1
:100C80000A4E14F801194046B047A542F9D9D7F8E1
:100C900004D04E46D145BED10748044B98470C3787
:100CA000BD46BDE8F08F00BFAC594000092B4000A5
:100CB00039144000B059400080594000D48240208F
:100CC000B4594000F8B500AF561C02F1080323F0F8
:100CD0000703ADEB030D6D4600F01F0040F0200050
:100CE0008DF8000052B14B1E681C013A51FA82F493
:100CF00013F8012F00F8012BA342F9D13146284601
:100D0000024B98472878BD46F8BD00BF3914400013
:100D100000B583B000F01F008DF80400FF238DF8AC
:100D20000530022101A8034B98479DF8050003B048
:100D30005DF804FB391440002DE9F8430D461646D2
:100D400001460D480D4B984786B12E44F6B2DFF8A8
:100D50003490DFF83480094F6C1CE4B22846C84751
:100D600001464046B8472546A642F5D10448034B04
:100D70009847BDE8F88300BFAC594000092B4000FC
:100D800080594000110D4000BC59400000B583B0AF
:100D900000F01F0040F020008DF804008DF80510D1
:100DA000022101A8034B98479DF8040003B05DF8A9
:100DB00004FB00BF3914400000B583B002A8E22351
:100DC00000F8013D0121034B98479DF8070003B04F
:100DD0005DF804FB3914400000B583B002A8E1239C
:100DE00000F8013D0121034B98479DF8070003B02F
:100DF0005DF804FB3914400000B583B002A8FF235E
:100E000000F8013D0121034B98479DF8070003B00E
:100E10005DF804FB3914400038B5054606200C4B3C
:100E2000984700F0F704012D0BD021460620094B0E
:100E300098470620064B9847844214BF00200120A3
:100E400038BD44F008044122034B1A60EDE700BFAF
:100E5000110D40008D0D4000E082402008B50620B5
:100E6000044B984700F02800082814BF00200120F8
:100E700008BD00BF110D400010B504460020074B0F
:100E8000984700F0F3012CB1012C0CBF41F0080190
:100E900041F00C010020024B984710BD110D40009D
:100EA0008D0D400038B50020084DA84704460120AC
:100EB000A84714F0080F02D108B9002038BD04F08B
:100EC0000404002C14BF0220012038BD110D400085
:100ED00010B504460620084B984700F0F801032C93
:100EE00008D86400013404F0FF0421430620034BBA
:100EF000984710BD0724F8E7110D40008D0D400004
:100F000008B50620024B9847C0F3410008BD00BF5A
:100F1000110D400070B584B0314B1968314BA3FB03
:100F20000131890C3048314DA847314B9847014673
:100F300000F001030293C0F340030193C0F30013D8
:100F40000093C0F34013C0F380122A48A84702223E
:100F50000A212948294EB04704220C212848294C4F
:100F6000A047012210212848B04706221121274816
:100F7000A047012203212648A04701221146254807
:100F8000A047012202212448A0470122052123482D
:100F9000A047012206212248A04701220021214822
:100FA000A04702221C212048A047204B9847204BF5
:100FB00053F820101F48A8471F492048A847204B36
:100FC0009847204B53F820101F48A8471F4B9847BD
:100FD0001F4B53F820101F48A84704B070BD00BF36
:100FE0001800402083DE1B437C584000092B400042
:100FF000F90D400094584000DC584000F50B4000CB
:10100000EC584000390D4000FC58400008594000A1
:1010100014594000205940002859400034594000DC
:101020003C59400048594000505940005D0E400076
:10103000045A400060594000105A40007459400062
:10104000A50E4000E059400084594000010F4000C7
:101050003C5A40009859400010B5023810F0FF008B
:1010600007D100210320084B98470222074B1A7032
:1010700010BD00F0030421460320034B9847A01C39
:10108000024B187010BD00BF8D0D4000D48240206F
:1010900000B583B0054B1B8802A820F8043D02214F
:1010A000034B984703B05DF804FB00BF785840003D
:1010B0003914400008B57D288CBF7D2101460520EC
:1010C000014B984708BD00BF8D0D400008B50020BA
:1010D000074B984710F0020F00D008BD40F0020106
:1010E000C9B20020034B98470348044B9847F4E7E4
:1010F000110D40008D0D4000C2DB030001004020B7
:1011000038B54FF40072214B5A63214B19680029FE
:1011100034D0204A0023204C00252048E0FB014524
:10112000204629461E4CA0471E4B98471D201E4BAB
:10113000984710F0020F11D0154B196811B3154ADA
:101140000023154C00251548E0FB014520462946A3
:10115000134CA047134B9847144B98470020124D4F
:10116000A84700F0FE010020114CA0470220A8472C
:1011700040F00101C9B20220A04738BD3320094B1D
:101180009847D3E73320074B9847E5E700120E4016
:10119000E0824020E0835A00DF835A0000A3E1117F
:1011A000A927400001004020110D4000D90D40004A
:1011B0008D0D400038B51A4B4FF400721A61C3F818
:1011C000A0205A630C210020164CA0475F21042068
:1011D000A0470020144B98470220144B9847144B0B
:1011E000984770210720A0474C20124B98470420B5
:1011F000114B9847114B9847114B9847114B984703
:101200000020114DA84700F0FE010020A047062055
:10121000A8470138C0B2FD288CBF0020012038BD8E
:1012200000120E408D0D4000190E4000790E400056
:1012300091104000B510400059104000B90D400019
:10124000D90D4000CD104000110D400070B582B0A6
:1012500002AC64E90201084E327821460A20074DAB
:10126000A847327821461020A847054B197811204D
:10127000044B984702B070BDD4824020C50C40009A
:10128000160040208D0D4000F8B500AF6E46244B8F
:101290001B7853BB234B1B785B1ADBB2013119441B
:1012A000C9B2CB1D23F00703ADEB030DEE46A0231F
:1012B0008DF8003001290BD9431E0DF101028D1E5E
:1012C00050FA85F513F8014F02F8014BAB42F9D102
:1012D0007046154B9847B5464FF40072134B1A638E
:1012E000134C41F2C236134D03E00023D6E73046DB
:1012F000A847A04710F0300FF9D04FF400720B4B05
:101300005A63702107200C4B984710F0100F02D140
:101310000120BD46F8BD094B98470020F9E700BF02
:1013200024724020160040203914400000120E4064
:10133000F90D4000010040208D0D4000D90D400006
:1013400070B52C4B4FF40012C3F88021C3F88020F5
:10135000BFF34F8FBFF36F8F002583F815531A60CB
:10136000254E31682548264B98472648264B9847F6
:10137000264C2046264B9847022323608023236077
:101380004FF080732360636843F001036360636818
:1013900043F0100363600D2120461E4B98472A46F8
:1013A000012120461C4B9847052120461B4B98479E
:1013B0002A46012120461A4B984701221146204611
:1013C000184B98472A4601212046174B9847336807
:1013D000164AB2FBF3F2D2B201212046144B9847D1
:1013E0000823202201212046124DA8470123236013
:1013F00070BD00BF00E100E0180040204C5A4000E2
:10140000092B40006C5A4000FD2D40000080004038
:101410008D074000B907400081084000CF07400019
:101420004508400063084000C708400080D1F0082C
:10143000DB084000030940002DE9F04383B0D9B137
:101440008846054680440F4CDFF848900E4E2F46E4
:1014500000231A4629782046C847236913F0010F54
:10146000FBD00DF1070231462046084B98473388E0
:101470003B7001354545EAD16620054B984703B0DE
:10148000BDE8F0830080004026724020E107400064
:1014900001004020110840000138022815D82DE92C
:1014A000F0410E4614469AB10D46DFF838800C4FD5
:1014B000D8F8000015F8011B3B68984700280ADBA4
:1014C000A81B013CF4D1BDE8F0814FF0FF3070471C
:1014D0001046BDE8F0814FF0FF30BDE8F08100BF5D
:1014E000E4824020E8824020F0B583B004460F46F5
:1014F0001646036843F01003036001AB0122364D2A
:10150000A84758B9019B13F0040F0DD1236823F0AD
:1015100010032360FF23184603B0F0BD0346226882
:1015200022F010022260F6E72EB9236823F01003A0
:1015300023603346EFE76B461E2239462046264D90
:10154000A847034650B9019A12F4805F0BD0009966
:1015500011F0050F0CBF0121002105E0226822F0E7
:1015600010022260D7E7012112F4005F03D0009837
:1015700010F0020F27D112F4006F03D0009A12F07E
:10158000010F11D191B10122616841F00101616047
:10159000A2B1626842F002026260226822F0100288
:1015A0002260B8E71A46EFE71A4600E001226168B8
:1015B00021F001016160EBE71A46F8E7626822F06A
:1015C00002026260E9E712F4006FEBD0009A12F0B9
:1015D000010FF1D11A46D7E7F51A40002DE9F04185
:1015E00082B004460D46036843F01003036001AB6C
:1015F00000225D4EB04740B10346226822F010023F
:101600002260184602B0BDE8F081019B23F4B0438C
:1016100043F480630193002229462046534EB0478D
:10162000034620B1226822F010022260E9E740F26E
:10163000E1130422294620464C4EB047034620B110
:10164000226822F010022260DBE701AB002229466B
:101650002046454EB047034620B1226822F01002D2
:101660002260CEE7019B43F44453019300222946B4
:1016700020463E4EB047034620B1226822F01002B9
:101680002260BEE7019B23F4806343F4007301935F
:10169000002229462046354EB0470346B0B9344EA5
:1016A0004FF00108304F01AB424629462046B8476B
:1016B000034680B9019B13F0200F11D1013EF2D1F6
:1016C000236823F01003236001239AE7226822F0A5
:1016D0001002226095E7226822F01002226090E753
:1016E0006B460522294620461F4DA847034680B970
:1016F000009A12F4807F13D112F0400F2CD112F017
:10170000800F08BF024609D1616821F001016160C4
:101710000BE0226822F01002226072E7024600E02D
:101720000122616841F001016160BAB1626842F072
:1017300002026260E26822F00102E2600D4A116872
:1017400041F008011160116841F004011160226844
:1017500022F01002226054E70122D5E7626822F0ED
:1017600002026260E6E700BFF51A4000551B400028
:1017700040420F00000005402DE9F04383B00546CC
:101780008946036843F0100303604FF4004302AE40
:1017900046F8043D00220E4CA0470A244FF00008F2
:1017A0000C4F3346424649462846B847013C019B08
:1017B00013F4004F01D0002CF3D12B6823F0100359
:1017C0002B60B4FA84F0400903B0BDE8F08300BF99
:1017D000551B4000F51A40002DE9F04385B0064640
:1017E0008846154601240094002322464FF4806168
:1017F0004348444FB84722464FF480414248434B48
:10180000984740F2FF324FF000614148414B984702
:1018100041464148414B9847414B9D425DD8414B21
:101820009D420FD8404B9D423ED8404B9D423ED8F2
:101830003F4B9D423ED83F4B9D428CBF4FF480238F
:10184000002301E04FF4A013726822F4E0127260EA
:1018500075681D43756004AB002243F8042D32689F
:1018600042F010023260022241463046324CA0471C
:10187000039B222B35D0444620254FF002092E4FE2
:10188000013404F01F0403AB4A4621463046B847F2
:10189000039B222B11D06B1E13F0FF05F0D1336890
:1018A00023F01003336018E04FF48013CCE74FF4BB
:1018B0004023C9E74FF40023C6E7336823F0100341
:1018C000336003AB0122214630461B4DA847A0459B
:1018D00003D041463046114B9847002005B0BDE883
:1018E000F083336823F010033360B8F1FF0FF4D0B6
:1018F00003AB0122414630460F4CA047EDE700BF45
:1019000000120E40B91E4000000E0E40831E400023
:1019100000140E40F11D4000000005407917400002
:10192000001C4E0E00688909000E270700B4C4048D
:10193000005A6202002D3101F51A4000284B9942ED
:101940004BD8A3F57A5399422DD910B4254CA4FB5A
:101950000234A40B033C244B0B449B00B2FBF3F278
:10196000033AFF2C1DD9002101316408FF2C01D955
:101970000629F9D9FF2A07D9062905D801315208C5
:10198000FF2A01D90629F9D913029BB2090401F4EF
:10199000E0210B43E4B22343036100205DF8044BD4
:1019A00070470021E6E74900B2FBF1F2033AFF2A53
:1019B00011D9002301335208FF2A01D9062BF9D986
:1019C000110289B21B0403F4E0230B43D2B21A4381
:1019D0000261002070470023F2E70120704700BF3A
:1019E000801A0600F11976050012FD3F08B54FF088
:1019F000FF328262026A80220260026B0822026069
:101A000020220260042202600A684968034B98475A
:101A1000012814BF0020012008BD00BF3D1940006F
:101A2000CB68002B4BD070B48C68002646604A68A7
:101A3000120202F4407242F480520D7C2D0405F42F
:101A4000FE052A434260C6604D685DB10A78012DEB
:101A500002DD4E7846EA0222022D04DD897841EA51
:101A6000022200E00022C2600122026006E0012B97
:101A700019D0026B04F8012B013B18D0026A12F452
:101A8000807F22D112F0020FF1D147F23052016A69
:101A900011F4807F15D1013A15D011F0020FE6D173
:101AA000002BF4D103E002230360036B2370036A6D
:101AB00013F0010FFBD0036A002070BC70470120B7
:101AC00070470520F9E70920F7E70520F5E74369A6
:101AD00013F0020F02D0C16100207047012070474F
:101AE000436913F0010F03D083690B700020704726
:101AF0000120704710B483B0846814F0040FFBD049
:101B0000920402F4F804114A2243C90501F07861F5
:101B10000A434263002201920D49826812F0040FC9
:101B200007D1019A01320192019A8A42F5D9012026
:101B300007E0826812F0040FFBD0426B92B21A6089
:101B4000002003B05DF8044B704700BF0000026046
:101B50003F420F0010B483B0846814F0040FFBD030
:101B6000920402F4F8040E4A2243C90501F0786198
:101B70000A439BB21A43426300230193094A8368D4
:101B800013F0040F07D1019B01330193019B934292
:101B9000F5D9012000E0002003B05DF8044B704748
:101BA000000002503F420F0010B51048104B9847FC
:101BB0003E2100200F4B98470F4CA0470028FCD037
:101BC0000E4B98470E4A0F4B9A620F4CA0470028C5
:101BD000FCD002200D4B984700200D4B98470D4B31
:101BE00098470248024B984710BD00BF80D1F008CB
:101BF000B5224000392040008D2040009D2040004B
:101C0000013F182000060E40AD2040009D1F4000FF
:101C1000D51F4000A921400010B54FF400426E4B83
:101C20005A60A3F545636D4A5A60A2F580725A6006
:101C3000BFF34F8FBFF36F8F694BD3F8902222F021
:101C40000102C3F89022D3F8942222F00102C3F8D3
:101C50009422BFF34F8FBFF36F8F0A20614CA047D0
:101C60000B20A0470C20A0471020A0471120A04720
:101C70005D4B4FF480721A61C3F8A0201A63A3F57C
:101C800080634FF400625A61C3F8A0205A66C3F81B
:101C900090205A651A62C3F88420196F21F40061FC
:101CA0001967596F21F400615967C3F8C020C3F860
:101CB000D420C3F8B0204FF400121A66C3F8902065
:101CC0005A655A62C3F88020196F21F40011196710
:101CD000596F21F4001159675A604448D0F8141123
:101CE00041F01001C0F8141100F5B2201021016676
:101CF000C0F8901041654162C0F88010046F0C4339
:101D00000467446F0C434467416008201866C3F8B9
:101D1000900058655862C3F880001C6F24F00804D6
:101D20001C675C6F24F008045C6758601966C3F890
:101D3000901059655962C3F88010186F20F0100098
:101D40001867586F20F010005867596003F5C0639A
:101D50004FF480111966C3F8901059655962C3F8A1
:101D60008010186F08431867586F20F48010586768
:101D700059601A66C3F890205A655A62C3F88020E9
:101D8000196F11431967596F21F4001159675A608F
:101D90004FF480021A66C3F890205A655A62C3F85D
:101DA0008020196F11431967596F21F48001596719
:101DB0005A604FF000721A66C3F890205A655A6252
:101DC000C3F88020196F11431967596F21F0007112
:101DD00059675A6010BD00BF50180E400C08005AD9
:101DE00000ED00E0BD20400000120E4000800840E1
:101DF0004264B1F1C05F3AD013D8B1F1006F25D081
:101E0000B1F1805F0AD1036F13430367436F416FE2
:101E10000B4023EA02034367426070470029FBD16D
:101E20007047B1F1205F21D009D8B1F1005FF3D143
:101E3000036F13430367436F13434367ECE7B1F149
:101E4000405F13D0B1F1605F10D0E5E710B4016FCF
:101E5000046FD34321401C4619400167436F416F13
:101E60000B402340436742605DF8044B7047036FAB
:101E7000016F0B4023EA02030367436F1343436779
:101E8000CAE7416412F0010F0DD1016612F00A0F8A
:101E90000BD0016212F0020F09D112F0080F08D026
:101EA000C0F8841005E04166F0E74162F2E7C0F84F
:101EB000801041610160704710B4019C41644CB9CD
:101EC00001664BB101654AB94163016101605DF88A
:101ED000044B70474166F4E74165F4E70163F4E7BA
:101EE000C06C7047806C70472DE9F041044688460D
:101EF0000E4B9847054620460D4B9847054013D09A
:101F00000C4C04F1600603E0B4420DD010345DB116
:101F100020684045F8D161682942F5D0E3689847C8
:101F2000636825EA0305EFE7BDE8F081E11E4000A4
:101F3000E51E40002872402008B50A210148024BE6
:101F4000984708BD000E0E40E91E400008B50B2161
:101F50000148024B984708BD00100E40E91E4000A2
:101F600008B50C210148024B984708BD00120E40ED
:101F7000E91E400008B510210148024B984708BDF2
:101F800000140E40E91E400008B511210148024B23
:101F9000984708BD00160E40E91E4000032811D0E6
:101FA000042812D002280CBF4FF480710021084A87
:101FB000136B23F440730B431363936E13F0080FFA
:101FC000FBD070474FF44071F1E74FF40071EEE73A
:101FD00000060E40174A136B23F07003184310637A
:101FE000936E13F0080F0AD14FF4805311498A6E93
:101FF00012F0080F03D1013BF9D1012070470D4ABF
:10200000136B23F0030343F002031363936E13F087
:10201000080F0AD14FF4805306498A6E12F0080F58
:1020200005D1013BF9D10120704700207047002005
:10203000704700BF00060E40A0B90E48036A0902AF
:1020400089B20D4A1A400D4B1343194301620246EF
:10205000936E13F0010FFBD0064A116A084B0B4335
:102060001362704703490B6A064A1A40064B134332
:102070000B62704700060E40FCFFC8FF01003700EE
:1020800000003701FCFFC8FE02003701024B986ECA
:1020900000F48030704700BF00060E404FF0005241
:1020A000014B9A62704700BF00060E40024B986ECB
:1020B00000F00200704700BF00060E4000F07F00F5
:1020C000054BC3F80C01D3F80C2142F01022C3F8E1
:1020D0000C210020704700BF00060E40FEE7000004
:1020E00000B583B0254B264A9A4210D0254B234A8F
:1020F0009A420CD2013B9B1A23F00303043313448E
:102100001F4951F8040B42F8040B9A42F9D11E4BB7
:102110001E4A9A420AD2013B9B1A23F0030304335E
:102120001344002142F8041B9342FBD1184A194B77
:1021300023F07F039360EFF31083B3FA83F35B091B
:10214000019372B6BFF35F8F0022134B1A7001998F
:10215000124A136843F470031360BFF34F8FBFF349
:102160006F8F29B101220C4B1A70BFF35F8F62B6DB
:102170000B4B98470B4B9847FEE700BF00004020F1
:10218000F85C4000D0094020FC844020D009402069
:1021900000ED00E0000040001C00402088ED00E061
:1021A000B92A4000A12540003B4B1B6B03F0030301
:1021B000012B1DD083B1022B36D0374B1B6B03F0A4
:1021C0007003702B5FD0344B1A6B3449C2F3021288
:1021D0000B68D3400B607047314B5B6913F0800F85
:1021E00014BF4FF400424FF4FA422C4B1A60E4E75C
:1021F000294B1B6A13F0807F03D02A4A274B1A60B1
:10220000DBE7294A254B1A60234B1B6A03F0700356
:10221000102B05D0202BD0D1224A204B1A60CCE7BE
:10222000224A1E4B1A60C8E71B4B1B6A13F0807FC3
:1022300016D01C4A194B1A60174B1B6B03F0030393
:10224000022BBAD1144A916A926A1448C1F30A4126
:10225000036801FB0333D2B2B3FBF2F30360ACE7D4
:10226000114A0E4B1A600C4B1B6A03F07003102BC3
:1022700005D0202BE0D10B4A084B1A60DCE70B4A53
:10228000064B1A60D8E7054A13680949A1FB0313F6
:102290005B081360704700BF00060E40200040201E
:1022A00010180E40001BB70000093D0000127A0014
:1022B000ABAAAAAA164B984213D9164B984215D925
:1022C000154B984216D9154B984217D9144B984282
:1022D00018D9144B984294BF134A144A144B1A60ED
:1022E00070474FF08062124B1A607047114A104BD2
:1022F0001A607047104A0E4B1A6070470F4A0C4B19
:102300001A6070474FF00422094B1A60704700BFF3
:10231000BFF35E017FE7BD023FDB1C04FFCE7B0500
:10232000BFC2DA067FB639080005000400060004C3
:10233000000C0E4000010004000200040003000431
:102340000A4B1B6853B1094B1B681A180849914284
:1023500008DB1046054A106018467047054A034BD3
:102360001A60F0E74FF0FF30704700BF98724020CE
:10237000FCFF452000A740204FF0FF3070474FF48E
:1023800000534B60002070470120704700207047C9
:10239000F0B583B005460C46002301932A4B9842C2
:1023A00013D02A4B984218D0294B98421DD0294B64
:1023B0009D4222D0284B9D4227D0284B9D422ED0B3
:1023C000274B9D4235D003B0F0BD1F46254E214618
:1023D0003846B0470028FAD1E9E71F46214E21468A
:1023E0003846B0470028FAD1E4E71F461D4E214683
:1023F0003846B0470028FAD1DFE71F46194E21467C
:102400003846B0470028FAD1DAE71E46164D01A932
:102410003046A8470028FAD1019B2370D3E71E4617
:10242000114D01A93046A8470028FAD1019B23701D
:10243000C9E71E460C4D01A93046A8470028FAD12D
:10244000019B2370BFE700BF00080E40000A0E404A
:10245000001A0E40001C0E40004002400080024066
:1024600000C00240E11A40001B0A400070B50C4653
:102470002A4B984213D02A4B984219D0294B9842A4
:102480001FD0294B984225D0284B98422BD0284B5F
:10249000984231D0274B984237D0002070BD1E465D
:1024A000254D21463046A8470028FAD1012070BDAD
:1024B0001E46214D21463046A8470028FAD101206A
:1024C00070BD1E461C4D21463046A8470028FAD153
:1024D000012070BD1E46184D21463046A8470028F1
:1024E000FAD1012070BD1E46144D21463046A84742
:1024F0000028FAD1012070BD1E46104D21463046FD
:10250000A8470028FAD1012070BD1E460B4D214678
:102510003046A8470028FAD1012070BD00080E40BF
:10252000000A0E40001A0E40001C0E4000400240FF
:102530000080024000C00240CF1A4000050A40005F
:1025400010B5044608220649064B984730B9637A0D
:10255000207A40EA032000B280B210BD0020FBE7E1
:1025600000834020312B400008B58289130A43EADA
:1025700002231BB2B3F5006F00D008BDC37D112B41
:10258000FBD12A29F9D92A30024B9847024B1880EF
:10259000F3E700BF41254000EC824020000000002E
:1025A0002DE9F0418AB0584B9847584B98470E2078
:1025B000574EB047574D584B1D60584A584B1A60FC
:1025C000584A594B1A604FF4E1330493C0230593E2
:1025D0004FF4006306930024079408940E20B0473C
:1025E000524A04A92846524B98472846514B9847CF
:1025F0002846514B9847514E336821469868504DB4
:10260000A847336821465868A8474E484E4B98471C
:102610004E4B984720B94FF0FF300AB0BDE8F0812B
:102620004B48837842780178447902940479019484
:10263000C07800904748484CA04748488378427883
:102640000178C07800904648A04746483E4B9847DE
:10265000454B9847454B98470220454B9847454B7B
:102660009847454B9847454D25A7D7E90067DFF8C0
:10267000348108E0A3F10B02D2B2092A1CD9653BD0
:10268000DCB2812C27D9A8470028FCD13C4B196823
:102690000029F8D03B483C4B98473C4B1B780A2B11
:1026A000E8D8304639463A4B98473A480023837178
:1026B0000821394B9847E6E730463946344B98476E
:1026C0003448012484710821334B9847214633480C
:1026D000214B9847D7E7304639462D4B9847C4EBF6
:1026E000042488FB0432E417C4EBE202294BD2B283
:1026F0009A800321997101212948174B9847C2E715
:10270000B13A3A3A00000000A91B4000191C4000F1
:10271000BD20400000800240E88240206D2440003F
:10272000E482402091234000D072402080D1F00804
:10273000A5094000F9094000FF094000240040209D
:102740000D2E40008C5A4000FD2D4000ED0A400047
:1027500010004020E05A4000092B40000C004020AF
:10276000FC5A4000145B400041134000B51140008A
:10277000D10E400001114000150F4000350A400005
:10278000C8824020CC75402069254000D47240208A
:102790004D124000F882402089124000245B400026
:1027A000405B4000813FE00F53B94AB9002908BFA0
:1027B00000281CBF4FF0FF314FF0FF3000F07AB916
:1027C000ADF1080C6DE904CE00F006F8DDF804E088
:1027D000DDE9022304B070472DE9F0478C460D4631
:1027E0000446089E002B51D18A4217466DD9B2FA91
:1027F00082FEBEF1000F0BD0CEF1200C01FA0EF5D7
:1028000020FA0CFC02FA0EF74CEA050C00FA0EF462
:102810004FEA174A250CBCFBFAF81FFA87F90AFBA6
:1028200018CC45EA0C4508FB09F3AB420AD9ED196F
:1028300008F1FF3280F02381AB4240F22081A8F101
:1028400002083D44ED1AA4B2B5FBFAF00AFB10559C
:1028500044EA054400FB09F9A14509D9E41900F14E
:10286000FF3380F00A81A14540F2078102383C44E1
:10287000A4EB090440EA08400021002E61D024FAAC
:102880000EF4002334607360BDE8F0878B4207D9F3
:10289000002E54D0002186E821000846BDE8F087CC
:1028A000B3FA83F1002940F08E80AB4202D382421A
:1028B00000F2FA80841A65EB03050120AC46002E75
:1028C0003FD086E81010BDE8F08712B90127B7FBAA
:1028D000F2F7B7FA87FEBEF1000F34D1EB1B3A0CCA
:1028E0001FFA87FC0121B3FBF2F8250C02FB183319
:1028F00045EA03450CFB08F3AB4207D9ED1908F193
:10290000FF3002D2AB4200F2D1808046ED1AA3B272
:10291000B5FBF2F002FB105543EA05440CFB00FC4A
:10292000A44507D9E41900F1FF3302D2A44500F20F
:10293000B8801846A4EB0C0440EA08409DE73146F5
:102940003046BDE8F087CEF1200405FA0EF307FA11
:102950000EF720FA04F83A0C25FA04F448EA0308C2
:10296000B4FBF2F14FEA184502FB11441FFA87FC51
:1029700045EA044501FB0CF3AB4200FA0EF409D919
:10298000ED1901F1FF3080F08A80AB4240F2878080
:1029900002393D44EB1A1FFA88F5B3FBF2F002FB53
:1029A000103345EA034500FB0CF3AB4207D9ED19A0
:1029B00000F1FF386FD2AB426DD902383D44EB1ABB
:1029C00040EA01418FE7C1F1200722FA07F88B4066
:1029D00005FA01F448EA030320FA07FE4FEA134C14
:1029E000FD404EEA040EB5FBFCF94FEA1E440CFB19
:1029F00019551FFA83F844EA054509FB08F4AC426F
:102A000002FA01F200FA01FA08D9ED1809F1FF30D3
:102A100043D2AC4241D9A9F102091D442D1B1FFA32
:102A20008EFEB5FBFCF00CFB10554EEA054400FB96
:102A300008F8A04507D9E41800F1FF3529D2A045D0
:102A400027D902381C4440EA0940A4EB0804A0FB43
:102A500002894C45C6464D4615D312D056B1BAEB45
:102A60000E0364EB050404FA07F7CB401F43CC4088
:102A7000376074600021BDE8F0871846F8E690469C
:102A8000E0E6C245EAD2B8EB020E69EB0305013875
:102A9000E4E72846D7E7404691E78146BEE701468E
:102AA00078E702383C4445E7084608E7A8F1020801
:102AB0003D442BE7704700BF70B50F4E0F4D761B9E
:102AC000B61018BF002405D0013455F8043B9847D0
:102AD000A642F9D10A4E0B4D761B03F0F7F8B6105B
:102AE00018BF002406D0013455F8043B9847A6428D
:102AF000F9D170BD70BD00BFD85C4000D85C40000B
:102B0000E05C4000D85C40000FB400B5074983B0DA
:102B100004AB086853F8042B8168019300F0FEFAB7
:102B200003B05DF804EB04B0704700BF2400402000
:102B3000032A70B422D940EA01039B0711D003781D
:102B40000C78A3421DD10A44013105E010F8013F81
:102B500011F8014BA34214D19142F7D1002070BC6F
:102B600070470D680668AE420C46034601F1040149
:102B700000F1040008D1043A032AF2D8002ADED179
:102B8000ECE7181B70BC704721461846D7E700BF1A
:102B9000844641EA000313F003036DD1403A41D368
:102BA00051F8043B40F8043B51F8043B40F8043B27
:102BB00051F8043B40F8043B51F8043B40F8043B17
:102BC00051F8043B40F8043B51F8043B40F8043B07
:102BD00051F8043B40F8043B51F8043B40F8043BF7
:102BE00051F8043B40F8043B51F8043B40F8043BE7
:102BF00051F8043B40F8043B51F8043B40F8043BD7
:102C000051F8043B40F8043B51F8043B40F8043BC6
:102C100051F8043B40F8043B51F8043B40F8043BB6
:102C2000403ABDD2303211D351F8043B40F8043B56
:102C300051F8043B40F8043B51F8043B40F8043B96
:102C400051F8043B40F8043B103AEDD20C3205D366
:102C500051F8043B40F8043B043AF9D2043208D05E
:102C6000D2071CBF11F8013B00F8013B01D30B88D0
:102C700003806046704700BF082A13D38B078DD0AE
:102C800010F003038AD0C3F10403D21ADB071CBF80
:102C900011F8013B00F8013B80D331F8023B20F8EA
:102CA000023B7BE7043AD9D3013A11F8013B00F823
:102CB000013BF9D20B7803704B7843708B788370AB
:102CC0006046704770B4860746D0541E002A41D033
:102CD000CAB2034602E014F1FF343BD303F8012BE0
:102CE0009D07F8D1032C2ED9CDB245EA05250F2C2E
:102CF00045EA054519D903F110022646103E0F2E6C
:102D000042F8105C42F80C5C42F8085C42F8045C43
:102D100002F11002F2D8A4F1100222F00F0204F026
:102D20000F041032032C13440DD91E462246043AD8
:102D3000032A46F8045BFAD8221F22F00302043269
:102D4000134404F003042CB1C9B21C4403F8011B62
:102D50009C42FBD170BC704714460346C2E700BFDB
:102D6000F0B5054689B008460C4600F029F9AB6B72
:102D7000214F04940126441C04A9022203940590C7
:102D8000AC68069707960191029253B3636E13F0F5
:102D9000010FB4F90C309AB201D1900525D59104F8
:102DA00006D4626E43F4005322F40052A38162669B
:102DB000284601AA214601F0B3FB636E00280CBF30
:102DC0000A254FF0FF35DA0702D4A3899B0502D507
:102DD000284609B0F0BDA06D01F058FD284609B0A5
:102DE000F0BD284601F090F9D0E7A06D01F04CFD50
:102DF000B4F90C309AB2D2E73C5B4000024B01467A
:102E00001868FFF7ADBF00BF2400402000290CBFA9
:102E1000022200224FF4806300F000B82DE9F04355
:102E2000614C256883B004460F4690461E4615B196
:102E3000AB6B002B64D0B8F1020F06D0B8F1010FD4
:102E400000F29F80002EC0F29C80636ED80734D5BC
:102E50002146284601F000F9216B41B104F14003FD
:102E6000994202D0284601F075FA00232363B4F991
:102E70000C300022A26162601A063AD423F44A633D
:102E800023F00303B8F1020FA3811DD001AB6A4602
:102E90002146284601F0FCFCA3891843A081002E9E
:102EA00032D1009E304601F06BFD074600286BD002
:102EB000A38943F08003A38128E0A3899905C7D49F
:102EC000A06D01F0E1FCC3E70025616E002604F16E
:102ED000430243F002030120A660CE07A3812260D3
:102EE0002261606101D498053ED5284603B0BDE853
:102EF000F0832169284601F02DFAB4F90C30BDE7C2
:102F0000284601F001F996E7002FCBD0AB6B002BE0
:102F100033D0009BB4F90C2027609E421CBF42F4C2
:102F20000062A281B8F1010F04BF42F00102A28148
:102F300092B212F00803276166610ED0D1071AD54C
:102F4000656E7642002315F00105A661A36009D0E5
:102F50000025284603B0BDE8F083A360656E15F038
:102F60000105F5D19305C0D4A06D01F08FFC284672
:102F700003B0BDE8F083A660F0E7284601F0C4F88E
:102F8000C7E74FF0FF35B0E7DDF80090B14504D05A
:102F9000484601F0F5FC074620B9B4F90C304FF073
:102FA000FF3592E74E4683E72400402000000000F2
:102FB0000000000000000000000000000000000011
:102FC00090F800F06DE9024520F007016FF0000C69
:102FD00010F0070491F820F040F049804FF0000411
:102FE0006FF00700D1E9002391F840F000F10800EC
:102FF00082FA4CF2A4FA8CF283FA4CF3A2FA8CF324
:103000004BBBD1E9022382FA4CF200F10800A4FA8A
:103010008CF283FA4CF3A2FA8CF3E3B9D1E90423DE
:1030200082FA4CF200F10800A4FA8CF283FA4CF315
:10303000A2FA8CF37BB9D1E9062301F1200182FACF
:103040004CF200F10800A4FA8CF283FA4CF3A2FAD5
:103050008CF3002BC6D0002A04BF04301A4612BAE3
:10306000B2FA82F2FDE8024500EBD2007047D1E9E6
:10307000002304F00305C4F100004FEAC50514F075
:10308000040F91F840F00CFA05F562EA05021CBF46
:1030900063EA050362464FF00004A9E72DE9F84F03
:1030A0004B6E9C0493462FD59368126853B30E461B
:1030B000074602F1080919E920045FEA9A0817D0C7
:1030C000043D002401E0A04510D0324655F8041F0D
:1030D000384601F0BBF8431C04F10104F3D100238E
:1030E000CBF80830CBF80430BDE8F88FDBF80830B7
:1030F0002AF0030AA3EB0A03CBF8083009F1080908
:10310000002BD8D10020EAE701F00AFA0023CBF81F
:103110000830CBF80430BDE8F88F00BF2DE9F04F40
:10312000ADB01D468B4690460793069018B1836B51
:10313000002B00F0F380DBF86430BBF90C00DF07F4
:1031400081B202D48E0540F1FC808C040AD4DBF8F5
:10315000643040F4005123F40053ABF80C10CBF86A
:10316000643089B2080740F1B380DBF81030002BDF
:1031700000F0AE8001F01A030A2B00F0B5800023A6
:103180000DF170090B93119310930393CDF83C90BC
:10319000CA46CDF810B098F800304446FBB1252B54
:1031A00002D11CE0252B03D014F8013F002BF9D1EC
:1031B000A4EB08059DB1109B119ACAF80080013359
:1031C0002A44072BCAF80450119210937ADD002A82
:1031D00040F0B084039B10922B44CA46039323789B
:1031E000002B00F0E08300204FF000038DF8373013
:1031F00004F1010862780546064603464FF0FF34A5
:1032000008F10108A2F12001582900F2DE82DFE86E
:1032100011F02102DC02DC022902DC02DC02DC0209
:10322000DC02DC02DC0289029502DC02A200BD02A3
:10323000DC029F01A401A401A401A401A401A40132
:10324000A401A401A401DC02DC02DC02DC02DC0239
:10325000DC02DC02DC02DC02DC02B201DC02DC02A9
:10326000DC02DC02DC02DC02DC02DC02DC02DC026E
:103270009701DC02DC02DC02DC02DC029B01DC02E6
:10328000DC025302DC02DC02DC02DC02DC02DC02D7
:10329000DC02DC02DC02DC025A021B02DC02DC0281
:1032A000DC026E021B02DC02DC027302DC02F501AE
:1032B00082010902D702DC029A02DC02A700DC02CA
:1032C000DC022E020AF1080A039B2B44039386E7D3
:1032D0005946069800F0ACFD18BBBBF80C1001F085
:1032E0001A030A2B7FF44BAFBBF90E30002BFFF60D
:1032F00046AFDBF86430DB0705D48F0503D4DBF879
:10330000580001F0C3FA2B4642465946069800F091
:103310004DFD039003982DB0BDE8F08F00F0F4FE52
:1033200009E7DBF86430D90704D4BBF80C309A0500
:1033300040F1AA844FF0FF33039303982DB0BDE80A
:10334000F08FDBF8580001F09FFABBF90C0081B256
:10335000FBE67642079243F0040398F800204FE71B
:1033600008969E0600F150840799DD060A4600F192
:10337000EF83580640F1EC830E88043100270122C8
:1033800007914FF000018DF837100025611C00F007
:10339000168123F08001029156EA070140F0148162
:1033A000002C40F05C83002A40F0B78313F0010347
:1033B000059300F057840DF1B00B30230BF8413D1D
:1033C000059BA342B8BF234601930DB1013301937E
:1033D000029B13F00203099302D0019B0233019375
:1033E000029B13F084030A9340F01782089B019A12
:1033F0009D1A002D40F31182102D40F39084109BF4
:10340000119AC44ED6461027A2461946069C07E0DC
:1034100001F1020C0EF1080E0146103D102D11DDD8
:10342000481C1032072811928EE8C0001090EFDD82
:10343000002A40F0E481103D102D11464FF0010CA0
:10344000CE46EDDC54466146F2462A4407291192E5
:10345000CAF80060CAF80450109100F3EC829DF89D
:1034600037500AF1080A481C002D40F0DE81099B04
:10347000002B00F0F88102320EA9022307281192D6
:1034800010908AE80A0040F3EA81002A40F08C8319
:103490000A9B802B4FF001001146CA4640F0E7819D
:1034A000089B019D5E1B002E40F3E181102E9A4D7A
:1034B00040F35084D4461027A246069C07E001F151
:1034C000020E0CF1080C0146103E102E11DD481CB6
:1034D0001032072811928CE8A0001090EFDD002A2E
:1034E00040F09D82103E102E4FF0010E1146CC464A
:1034F000EDDC5446E2463244BEF1070F11928AE8F1
:103500006000CDF840E000F369830AF1080A0EF18B
:1035100001007146ABE1089613F0200240F08C8365
:1035200013F0100140F01A8313F0400200F01683EC
:1035300007980A460146043106880791002720E7CC
:10354000089643F01003E7E7089643F0100308E7F6
:1035500043F0800398F8002052E6A2F130010026E3
:1035600018F8012B06EB860601EB4606A2F13001A6
:103570000929F5D946E60896002840F0088443F06A
:1035800010039E0600F14C83DD0600F1F38258061D
:1035900040F1F082079DB5F900602A46F717043222
:1035A000304639460792002871F10002C0F25D836F
:1035B000611C9DF837504FF001027FF4EAAE56EAE5
:1035C000070100F04D820293012A00F08C82022A4A
:1035D00040F05C820B98CB46330906F00F0143EABA
:1035E00007733A091E461746435C0BF8013D56EA3D
:1035F0000703F1D1A9EB0B030593E1E6002840F0A6
:10360000C083990600F16783DA0600F1F1805B065A
:1036100040F1EE80079A136804320792BDF80C203F
:103620001A80B8E507983D4A08960B9206687822FA
:10363000302104308DF8392043F002030790002731
:103640008DF8381002229CE60896002899D08DF853
:10365000375096E798F80020002D7FF4D1AD012077
:103660002025CDE543F0010398F80020C8E5089631
:10367000002840F0938329490B919F0600F1E882CE
:103680000798DE06014600F170825D0640F16D820A
:103690000431068807910027D80740F1228256EAB4
:1036A000070100F01E8230218DF8392043F002031B
:1036B0008DF83810022264E60896002840F06B83EB
:1036C00017490B91D9E7079908960A688DF84820A1
:1036D0004FF000000A468DF83700043201200190B7
:1036E000079205900DF1480B0293002470E643F019
:1036F000400398F8002083E598F800206C2A03BF67
:1037000098F8012043F0200308F1010843F010036A
:1037100076E500BF985B4000A85B40007C5B400002
:10372000685B400007990E680A46002E02F1040209
:10373000FFF60FAE079298F8002061E598F8002098
:1037400001202B255CE507990896D1F800B04FF0D1
:1037500000028DF837200E1DBBF1000F00F0E5824E
:10376000671C00F0C482224600215846019301F0F4
:10377000D7FB019B002800F0E582A0EB0B0205922D
:10378000079602939DF83750002419E698F8002018
:103790002A2A08F1010700F0E982A2F13001092983
:1037A000B8464FF000043FF62DAD18F8012B04EB9E
:1037B000840401EB4404A2F130010929F5D921E583
:1037C00043F0200398F800201AE50896002840F0FE
:1037D000DB82002A00F0E78001218DF848204FF0BD
:1037E000000201918DF8372005910DF1480B7BE720
:1037F000079A136804320792039A1A60CBE40FAA5F
:1038000004992046FFF74AFC002840F039811099BE
:10381000119A01F1010CCE46FFE51099119A481C4E
:103820009DF83750002D3FF422AE01320DF13705DF
:103830000121072811921090CAF80050CAF804100C
:1038400040F30881002A40F0BC81099B002B3FF423
:103850001FAE0EAB022208461C931D92CA460146BB
:103860000AF1080A01300A9B802B3FF419AE059B30
:10387000E41A002C2EDD102CB34D1EDDD64610268A
:10388000069FDDF810A006E0881C0EF1080E194610
:10389000103C102C10DD4B1C1032072B11928EE8BF
:1038A00060001093F0DD002A65D1103C102C4FF021
:1038B00001001146CE46EEDCF24622440728119262
:1038C000CAF80050CAF80440109000F385800AF14D
:1038D000080A01300599CAF800B00A440728119275
:1038E000CAF80410109040F38280002A40F018813A
:1038F000029B1092580735D5089B01995C1A002C41
:1039000040F3E780CA46102C40F3188210998F4E7E
:10391000069FDDF810B0102506E0881C0AF1080AA1
:103920001946103C102C11DD4B1C1032072B119244
:10393000CAF80060CAF804501093EEDD42BB103C98
:10394000102C4FF001001146CA46EDDC2244072836
:103950001192CAF80060CAF80440109051DD002AA4
:1039600040F09B81039B089A01998A42ACBF9B1847
:103970005B1803934EE00FAA51463846FFF78EFBC3
:10398000002840F03F811099119A481CCE467FE7ED
:103990000FAA59463846FFF781FB60B91099119A72
:1039A000481CCA46BDE7119BDDF810B0002B40F063
:1039B000D48100231093DBF8643013F0010FBBF8BF
:1039C0000C3002D19A0540F1DE805B063FF5B2ACC7
:1039D00003982DB0BDE8F08F002A40F00681059ACB
:1039E0001D9201231192CDF870B01093CA460AF1CE
:1039F000080A029B590704D5089B01995C1A002C00
:103A000081DC039B089901988142ACBF5B181B18AD
:103A1000039372BB00231093CA46FFF7BCBB0FAAE7
:103A200004992046FFF73AFB50BB1099119A01F117
:103A3000010ECC4648E5002A40F040819DF8371041
:103A4000002900F01B8101220DF1370110461D9263
:103A50001C91CA4601460AF1080A013007E5029B9B
:103A6000012A00F09880022A0DD102930026002737
:103A7000B0E50FAA04990698FFF710FB0028C9D0FB
:103A8000DDF810B097E7029300260027494600E0D2
:103A90005946F20842EA4772F80806F0070307465B
:103AA0001646303356EA070201F8013C01F1FF3BAC
:103AB000EED1029AD6077FF59DAD302B3FF49AAD3B
:103AC000023930230BF8013CA9EB010305938B4627
:103AD00076E4039B089A8A42ACBF9B185B18039359
:103AE00098E702224DE4002F08BF0A2E52D3CB469E
:103AF000304639460A220023FEF756FE30320BF8D4
:103B0000012D3046394600230A22FEF74DFE0646B7
:103B10000F4656EA0703EBD16CE50594CB464FE41C
:103B20000FAA04990698FFF7B9FA0028A8D1119AAC
:103B3000CA465EE70FAA04990698FFF7AFFA002875
:103B40009ED1CA46FFF7C0BBA85B4000985B40000F
:103B50000431166807910122002712E407980146F4
:103B600004310668079100270BE40E6804310791C1
:103B7000002791E507990E680A46F7170432079265
:103B8000304639460FE5DBF8580000F07FFEBBF801
:103B90000C301AE7029B02930DF1B00B3036012373
:103BA0000BF8416D05930BE40FAA04990698FFF7F3
:103BB00075FA00287FF464AF1099119A481CCA4620
:103BC00051E60FAA04990698FFF768FA00287FF4D7
:103BD00057AF1099119A481CCA4648E4002A40F091
:103BE000918001201146CA4641E60FAA0499069821
:103BF000FFF754FA00287FF443AF1098119A013070
:103C0000CA4667E6D346D6E6079E073626F0070281
:103C100002F10801D2E9006707910122FFF7B1BB69
:103C2000079E073626F00706D6E9000106F10802CE
:103C3000079206460F46B6E4079E073626F00702AF
:103C400002F10801D2E9006707910022FFF799BB52
:103C5000079E073626F0070101F108000790D1E919
:103C6000006719E5CB46FFF7ABBB2D25764267EB26
:103C700047078DF837500122FFF788BB099BB3B97E
:103C800011460120CA46F2E5DBF8580000F0FEFDBF
:103C90004FF0FF330393FFF750BB0FAA0499069828
:103CA000FFF7FCF900287FF4EBAE119AA9E60EAB02
:103CB00002221C931D920120CA46D0E50FAA049946
:103CC0000698FFF7EBF900287FF4DAAE1099119A05
:103CD000481CCA46A4E5079A03991368CD170846FD
:103CE000043229460792C3E90001FFF754BA584647
:103CF00007960293FFF764F9002405909DF837506A
:103D0000FFF75EBB0FAA04990698FFF7C7F90028D2
:103D10007FF4B6AE1099119A481CCA46A7E51099CF
:103D2000119A204E0131FFF790BB062C28BF0624C4
:103D3000059407960194DFF870B0D5E41098194EF9
:103D4000013003E605949DF8375007960293044628
:103D5000FFF736BB8646FFF7CEBB06980FAA59463B
:103D6000FFF79CF900283FF424AE24E6079998F861
:103D700001200C68043144EAE474B8460791FFF767
:103D80003FBA8DF837503CE48DF8375021E58DF877
:103D90003750FFF7F4BB8DF8375091E48DF837506A
:103DA00069E400BF985B4000905B40002DE9F04162
:103DB0000C46ADF58D6D8989666EE589199621F001
:103DC00002010646E069ADF80C1017464FF4806119
:103DD000626AADF80E5098461AAD0023079016A8F7
:103DE00009920693009504950291059100F048FD13
:103DF00043463A4669463046FFF790F9051E07DB11
:103E00003046694600F028F9002818BF4FF0FF350A
:103E1000BDF80C305B0603D5A38943F04003A381B2
:103E2000169800F02FFD28460DF58D6DBDE8F08148
:103E300038B5304B1B6805460C4613B19A6B002A07
:103E400038D0B4F90C2093B218070CD52069A8B16A
:103E500013F001021ED0636900225B42A361A260DD
:103E6000F0B1002038BDD9063CD5580726D42069CA
:103E700042F00803A3819BB20028E9D103F4207229
:103E8000B2F5007FE4D02846214600F02FFDA3893B
:103E90002069DDE7990758BF6269A2600028E0D178
:103EA000B4F90C301A06DDD543F04003A3814FF07E
:103EB000FF3038BD184600F027F9C2E7216B51B139
:103EC00004F14003994204D0284600F043FAB4F9C3
:103ED0000C200023236300232069636022F0240266
:103EE0002060C5E742F0400209232B604FF0FF300D
:103EF000A28138BD24004020024B13B1024800F0DB
:103F000005B87047000000007941400000230146D9
:103F10001A46184601F066BBB1F90C309AB22DE989
:103F2000F0410D46110780463AD46A6843F40063B5
:103F3000002AAB816FDDAC6A002C49D000229BB215
:103F4000D8F80060C8F8002013F4805267D02A6DBA
:103F50005F0705D569682B6B521A0BB1EB6BD21A50
:103F60000023E9694046A047441C3CD0B5F90C3019
:103F70002A692A6023F400630022AB81DB046A60B3
:103F800047D4296BC8F8006011B305F1400399428A
:103F900002D0404600F0DEF900202863BDE8F08141
:103FA0002E69AEB12C682E6091070CBF6B6900239F
:103FB000A41BAB600AE0234632466F6AE9694046BB
:103FC000B8470028A4EB0004064404DD002CF2DC12
:103FD0000020BDE8F081AB8943F04003AB814FF096
:103FE000FF30BDE8F081D8F800401D2CF3D8194B04
:103FF000E340DB4313F00103EDD1B5F90C206B6016
:1040000022F400632969AB81DA042960B9D5002C58
:10401000B7D12865B5E7EA6B002A8CDCD8E7012325
:10402000E9694046A047431C024602D0AB89AC6A0E
:104030008EE7D8F80030002BF8D01D2B01D0162BBE
:1040400002D1C8F80060C3E7AB8943F04003AB81FD
:10405000BDE8F0810100402038B50D46044608B1A6
:10406000836BBBB1B5F90C0088B16B6EDB0701D473
:10407000810517D520462946FFF74EFF6B6EDA07FC
:10408000044602D4AB899B0507D5204638BD0446BB
:10409000204638BD00F038F8E4E7A86D00F0F6FBE4
:1040A000204638BDA86D00F0EFFBE3E7014900F0C2
:1040B000AFBB00BFCD56400010B500230446818140
:1040C000C28103604360836043660361436183612F
:1040D000194608225C30FEF7F5FD07480749084AF3
:1040E000084B2062E4616162A262E36204F158005D
:1040F000BDE8104000F0C4BB1154400035544000EE
:10410000715440009154400010B50446124800F02C
:10411000BBFBA26BD2B904F53B731048C4F8E8327C
:104120000321C4F8E022E063C4F8E41260680421CB
:10413000FFF7C2FF01220921A068FFF7BDFF02229D
:104140001221E068FFF7B8FF0123A3630248BDE82E
:10415000104000F09BBB00BFE0844020AD40400019
:10416000014800F091BB00BFF4844020014800F0FA
:104170008DBB00BFF484402038B50A4C0A4D641B47
:10418000A4100AD004F18043013B05EB8305013CF8
:1041900055F804399847002CF9D1BDE8384001F0B2
:1041A0009FBD00BFF05C4000EC5C40002DE9F04793
:1041B00082B080468946144600F054FB012836D070
:1041C0004A4604F15C0301A9404601F0BDF9421CD6
:1041D000064625D0A8B39DF804E000250DF1040A99
:1041E00009E023685A1C226083F800E00135B542DB
:1041F00027D215F80AE0A368013B002BA360F0DA90
:10420000A769BB4271462246404602DBBEF10A0F57
:10421000E7D101F041F9431CE8D102B0BDE8F087D5
:10422000A38943F04003A38102B0BDE8F08709F100
:10423000FF33FE2BC4D85FFA89FE06468DF804E0F2
:10424000CBE7484602B0BDE8F08700BF30B5536EFB
:1042500013F0010FB2F90C30144683B005469AB240
:1042600001D190051CD5900406D4626E43F400532E
:1042700042F40052A381626628462246FFF796FF69
:10428000636EDA07054602D4A3899B0502D528464A
:1042900003B030BDA06D00F0F9FA284603B030BD80
:1042A000A06D019100F0F0FAB4F90C3001999AB2C6
:1042B000D9E700BFF8B5244F0C46064600F0E4FEEF
:1042C000BB685D68C4F57E610F3125F003052944A4
:1042D00021F47F6121F00F01A1F58054B4F5805FD6
:1042E00007DB0021304601F081F8BB682B4498427F
:1042F00004D0304600F0CEFE0020F8BD61423046CA
:1043000001F074F801300DD0104BBA6819682D1BFC
:1043100045F001053046091B5560196000F0BAFEF2
:104320000120F8BD0021304601F060F8BA68831A18
:104330000F2BDEDD064C0549246843F00103001B0A
:1043400053600860D5E700BFC00540209C72402044
:10435000C8094020002944D02DE9F0410D4680468F
:1043600000F092FE55F8047C694927F00103A5F19D
:104370000804E2188E685068B24220F003005ED054
:10438000FE0750600BD455F8087CE41B01F1080EC1
:10439000A56875453B446DD0E768EF60BD601518B2
:1043A0006D68ED073ED543F001026260E350B3F55E
:1043B000007F17D2DB08581C9A104D6851F83070F6
:1043C000A7600123934001EBC0022B43083AE2604F
:1043D0004B6041F83040FC604046BDE8F04100F0E1
:1043E00059BE70475A0A042A52D89A0902F139076D
:1043F000FF0002F13805C819CA59083890424FD059
:10440000516821F003018B4232D292689042F7D179
:10441000C368A060E3609C60C4604046BDE8F041B2
:1044200000F038BE95683B4FBD42034440D0D06891
:10443000E86043F0010285606260E350B7E7FF0780
:10444000034407D455F8082CA41A1344A068E26862
:10445000C2609060304A126843F00100934260608D
:104460008C60B9D32D4B40461968FFF723FFB3E7A3
:104470001046CDE711184968C90744D49168D2683D
:10448000CA60034443F0010091606060E350A3E719
:10449000142A16D802F15C07FF0002F15B05AAE7B7
:1044A000AA1001234D6893402B434B600346B0E7AD
:1044B00043F001024C610C61E560A5606260E3506D
:1044C0008AE7542A06D81A0B02F16F07FF0002F19F
:1044D0006E0590E7B2F5AA7F06D8DA0B02F17807ED
:1044E000FF0002F1770586E740F25450824206D879
:1044F0009A0C02F17D07FF0002F17C057BE74FF487
:104500007E777E2577E743F001016160136063E702
:10451000C0054020C8054020CC094020CC72402076
:104520009368002B73D02DE9F04F8B8983B00C4634
:1045300019070090164626D5226922B313F002000F
:1045400035682CD04FF00009B04FC846B246B84588
:1045500043464A4628BF3B460098B8F1000F50D06A
:10456000E169666AB047002858DDDAF808301B1A9E
:104570008144A8EB0008CAF80830002BE7D10020DE
:1045800003B0BDE8F08F21460098FFF751FC0028EA
:1045900040F03381A389356813F00200D2D113F0C3
:1045A000010945D14F46019637B39A05D4F80880E2
:1045B00040F183804745C346C0F0AB8013F4906F51
:1045C00040F0AC802068BA465A46494600F0F8FCF4
:1045D000A2682368A2EB08025B44A2602360019AF0
:1045E0009368A3EB0A03D144A7EB0A079360002B5F
:1045F000C5D0A389002FD8D1D5F800906F680835B1
:10460000D2E7D5F80090D5F8048008359FE7002060
:10461000704721460098FFF71FFD70B3B4F90C30C6
:1046200043F040034FF0FF30A38103B0BDE8F08FAB
:10463000814633464E46A8469A464D464EB380B311
:10464000206823696269B145CB4628BFB3469842CA
:104650005F4604D9A36813449B4500F3A6809345A5
:104660004BDB1346676AE16900982A46B847071E84
:10467000D4DDB9EB0709CCD00120DAF80830DB1B18
:104680003D44F61BCAF80830002B3FF478AF002EEB
:10469000D5D108F1080313E9600098460833002ECD
:1046A000F9D032460A21284600F03AFC002800F0F2
:1046B000A1800130A0EB0509C2E720682369984278
:1046C00002D863699F425DD2B84528BFB8464246CA
:1046D000494600F075FCA3682268A3EB0803424436
:1046E000A36022600BB1C24679E721460098FFF72C
:1046F000B3FC002892D1C24671E75A46294600F021
:104700005FFCA2682368A2EB0B025B44A2602360FB
:10471000AFE72068B846BA46BB4655E762692068ED
:10472000216902EB4208A0EB010A08EBD8780AF1F4
:1047300001004FEA680838444045424684BF80463D
:1047400042465B0544D51146009800F021F98346A6
:10475000002855D052462169FEF71AFAA38923F49E
:10476000906343F08003A3810BEB0A00A8EB0A03DC
:10477000C4F810B0C4F814802060A360B846BA46EC
:10478000BB4621E76FF00041B94228BF39464A468F
:1047900091FBF3F10098666A03FB01F3E169B0470E
:1047A000B0F1000A3FF71BAF38E71A4629460193DC
:1047B00000F006FC2268019B00981A442260214602
:1047C000FFF74AFC019B00287FF428AF1F4650E703
:1047D000009800F065FC83460028C5D1009D216942
:1047E0002846FFF7B7FDB4F90C300C2223F0800304
:1047F0002A6015E706F1010922E74FF0FF30BFE616
:10480000009A0C231360B4F90C3009E700FCFF7F19
:104810002DE9F84310F538771FD0884606464FF04B
:1048200000097D68BC68013D11D4A389012B05F105
:10483000FF3508D9B4F90E3001332146304602D095
:10484000C04749EA00096B1C04F16804EDD13F68D8
:10485000002FE6D14846BDE8F883B9464846BDE892
:10486000F88300BF044B054A1B685B6B002B08BF35
:10487000134693F828017047240040205404402038
:10488000704700BF704700BF704700BF704700BF50
:1048900070B50C46B1F90E10002990B015461E46B1
:1048A00014DB01AA00F074FF00280FDB029A02F467
:1048B0007042A2F50052B2FA82F252094FF48063BC
:1048C0004FF4006032602B6010B070BDA2890023ED
:1048D00012F08000336004D0402218462A6010B0E5
:1048E00070BD4FF480632B6010B070BD8A89920751
:1048F0000B4606D501F1430201211A601A61596184
:104900007047F0B583B001AB6A460C460646FFF728
:10491000BFFF00990546304600F03AF8B4F90C3074
:10492000D8B1019A154F0099F76343F08003A38132
:104930002060206161611AB92B43A38103B0F0BDEF
:104940003046B4F90E1000F037FFA0B1A38923F070
:10495000030343F001031BB2EEE79A05EED423F004
:10496000030304F1430243F002030121A381226007
:1049700022616161E2E7B4F90C30DDE7AD4040004F
:10498000024B0146186800F003B800BF2400402025
:104990002DE9F04F01F10B06162E83B0054640F2CB
:1049A0009E8036F0070600F1BD80B14200F2BA8069
:1049B00000F06AFBB6F5FC7FC0F09382730A00F04A
:1049C000B880042B00F27981B30903F1390003F1B7
:1049D000380EC300BF4F3B44A3F108015C68A142FD
:1049E00006D10CE0002A80F2AA80E468A14206D039
:1049F000636823F003039A1B0F2AF3DD70463C69BA
:104A0000DFF8E4E2744500F0AB81636823F0030350
:104A10009A1B0F2A00F39081002AC7F814E0C7F808
:104A200010E080F29D80B3F5007F80F06181DB08AB
:104A300003F1010C99107A6857F83C80C4F808809B
:104A400001238B4007EBCC0113430839E1607B6005
:104A500047F83C40C8F80C408210012494409C4226
:104A600000F28B801C4206D120F0030064001C423F
:104A700000F10400FAD007EBC009CC468046DCF810
:104A80000C309C4507D16DE1002A80F27B81DB6808
:104A90009C4500F06781596821F003018A1B0F2AA9
:104AA000F2DDD3F80CC0D3F8088000939C19284697
:104AB00046F0010642F001055E60C8F80CC0CCF873
:104AC00008807C613C61C4F80CE0C4F808E06560D3
:104AD0005A5000F0DFFA009B03F108041EE0102991
:104AE00020D800F0D1FA102618230220794F3B4439
:104AF000A3F108025C68944200F03D816368E168BC
:104B0000A66823F00303234428465A68F16042F064
:104B100001028E605A6000F0BDFA0834204603B0EE
:104B2000BDE8F08F00240C2320462B6003B0BDE8C5
:104B3000F08F40204FF400734FF03F0E4AE72344BC
:104B4000E1685A68A66842F00102F16028468E606A
:104B50005A6000F09FFA0834204603B0BDE8F08F99
:104B6000234428465A6842F001025A6000F092FA43
:104B70000834204603B0BDE8F08FBC68636823F0BA
:104B80000308B04504D3A8EB06030F2B00F3858080
:104B9000DFF85891504BD9F800201B68013233449C
:104BA00004EB080A00F0558103F580530F3323F41A
:104BB0007F6B2BF00F0B5946284600F017FC411C69
:104BC000024600F0FC80824500F2F780434B1968F2
:104BD0005944196000F04D81D9F8000001301BBF25
:104BE000A2EB0A0A5144C9F80020196012F007012B
:104BF00000F01581C1F10800C1F58051024408316F
:104C000002EB0B09C9F30B09A1EB09094946284638
:104C10000193009200F0EAFB431C9DE80C0000F0B9
:104C20004381801A484440F001001968BA60494441
:104C3000BC425060196017D0B8F10F0F40F2FB80F2
:104C40006068A8F10C0222F0070204EB020E00F0EB
:104C500001004FF0050C10430F2A6060CEF804C02D
:104C6000CEF808C000F217811D4BBC681A6891424B
:104C700088BF19601B4B1A689142626888BF19602F
:104C800022F003029642A2EB060301D80F2B04DCAC
:104C9000284600F0FFF9002440E7A21943F0010381
:104CA00046F0010666602846BA60536000F0F2F9EB
:104CB0000834204603B0BDE8F08F142B71D9542B73
:104CC00000F2A380330B03F16F0003F16E0EC300FB
:104CD00080E600BFC0054020CC7240209C7240207E
:104CE000C4724020C8724020C8054020C809402036
:104CF0005A0A042A5BD9142A00F2AE8002F15C0140
:104D0000C9005B3207EB010C7958ACF1080C8C45FB
:104D100000F088804A6822F00302934273D28968C7
:104D20008C45F7D1DCF80C207B68E260C4F808C041
:104D30009460CCF80C408FE6A11946F0010C42F0CB
:104D40000106C4F804C0284679613961C1F80CE055
:104D5000C1F808E04E60E25000F09CF90834DDE64E
:104D60007B6879E608F1010818F0030F0CF1080CD4
:104D70007FF485AE2DE0DC68A34208BF02303FF42B
:104D80003EAEBBE619441C464A68DB6854F8086F1F
:104D900042F001024A602846F3609E6000F07AF912
:104DA000BCE603F15C0003F15B0EC30012E69A0956
:104DB00002F13901C9003832A4E7BC4254D0BC68C2
:104DC000626822F003025DE759F80839994540F01E
:104DD000868010F0030F00F1FF30F5D17B6823EAE5
:104DE00004037B6064009C423FF6C7AE002C3FF496
:104DF000C4AE1C4240467FF43EAE64001C4200F14B
:104E00000400FAD037E68C468CE7B3F5AA7F15D8B4
:104E1000F30B03F1780003F1770EC300DAE54FF4EA
:104E20008051EDE67B689210012101FA02F21343F2
:104E30007B60624679E70123536029E740F25452D0
:104E4000934222D8B30C03F17D0003F17C0EC30022
:104E5000C0E503F1100BAEE6542A29D81A0B02F173
:104E60006F01C9006E324DE7204B19685944196033
:104E7000B2E6CAF30B0000287FF4AEAE08EB0B03DA
:104E8000BA6843F001035360EEE67F204FF47E736F
:104E90004FF07E0E9EE504F1080128460093FFF7CF
:104EA00059FA009B1968DFE601204FF00009BCE6C3
:104EB000B2F5AA7F05D8DA0B02F17801C900773282
:104EC00020E740F254518A4205D89A0C02F17D0144
:104ED000C9007C3216E74FF47E717E2212E77B68B0
:104EE00080E7F00806F1080300E600BF9C7240204E
:104EF00082B049B15AB16BB113780B601278101CB3
:104F000018BF012002B0704701A9002AF3D1104652
:104F100002B070476FF00100F4E700BF000000002E
:104F200001F0FF01102A2BDB10F0070F08D010F85A
:104F3000013B013A8B422DD010F0070F42B3F6D15E
:104F4000F0B441EA012141EA014122F007047FF077
:104F500000070023F0E80256083C85EA010586EACE
:104F6000010685FA47F5A3FA87F586FA47F6A5FA0A
:104F700087F68EB9EED1F0BC01F0FF0102F0070216
:104F800032B110F8013B013A83EA010313B1F8D1C1
:104F90000020704701387047002D06BF35460338A2
:104FA000073815F0010F07D1013015F4807F02BFDB
:104FB000013015F4C03F0130F0BC0138704700BF2C
:104FC0008842F0B50DD98B1898420AD28418002A6D
:104FD00051D0224613F8014D02F8014D9942F9D102
:104FE000F0BD0F2A48D941EA00039B0746D100F1E2
:104FF000100401F11003154653F8106C44F8106CBE
:1050000053F80C6C44F80C6C53F8086C44F8086CBA
:10501000103D53F8046C44F8046C0F2D03F1100399
:1050200004F11004E8D8A2F1100323F00F0302F0FA
:105030000F0E1033BEF1030F1944034421D91E1F74
:105040000D467446043C55F8047B46F8047F032C57
:10505000F8D8AEF1040424F00304043421442344BA
:1050600002F0030262B1013B0A4411F8014B03F85C
:10507000014F8A42F9D1F0BD0346F3E70346F2E758
:10508000F0BD7246EEE700BF0148FFF7FDBB00BF71
:10509000E48440200148FFF7F9BB00BFE4844020CE
:1050A000002900F095802DE9F04F0D46164683B09B
:1050B000804606F10B07FFF7E7FF55F804EC162FC3
:1050C0002EF00304A5F108093CD810221746BE4271
:1050D0003DD8944243DAC44B996809EB04008842F6
:1050E00000F0B480436823F0010101444968C90716
:1050F0004CD51EF0010F00F09B8031464046FFF773
:1051000047FC064600283AD055F8043C23F001033A
:105110004B44A0F108029A4200F02181221F242A68
:1051200000F20781132A00F2DB8003462A46116849
:1051300019605168596092689A6029464046FFF7A5
:1051400009F91CE027F00707002F3A46BFDA0026CE
:105150000C233046C8F8003003B0BDE8F08F2E466F
:10516000E31B0F2B1ED8D9F8043003F001032343AF
:105170004C44C9F80430636843F00103636040465F
:10518000FFF788FF304603B0BDE8F08F23F003033C
:10519000E11891421FDBC36882682E46D3600C463B
:1051A0009A60DDE7D9F8042009EB070102F001025B
:1051B0004C4443F001031743C9F804704B60636823
:1051C00043F00103083163604046FFF7C3F8D6E7B8
:1051D0001146FFF7DDBB1EF0010F8ED155F8081CFC
:1051E000A9EB010ADAF8041021F003010B4423446F
:1051F000934225DBC26881685646CA609160DAF83E
:105200000C1056F8080F221F242AC160886000F293
:105210009480132A6FD92968CAF808106968CAF8F7
:105220000C101B2A00F2A28008350AF1100263E07C
:1052300055F8083CA9EB030ADAF8041021F0030141
:1052400063189342FFF659AF5646D8E7416821F0FC
:10525000030BA34407F11000834556DA1EF0010F3B
:105260007FF44BAF55F8081CA9EB010ADAF80410DB
:1052700021F003018B445845E2DC5646DAF80C1065
:1052800056F8080F221F242AC160886000F28F8020
:10529000132A40F28A802968CAF808106968CAF897
:1052A0000C101B2A00F28A8008350AF110022968C6
:1052B000116069685160A96891600AEB0701ABEB66
:1052C000070242F0010299604A60DAF8043003F004
:1052D00001031F434046CAF80470FFF7DBFE51E7A5
:1052E0002B6803606B6843601B2A2DD800F108030C
:1052F00005F108021BE732462968116069685160B0
:10530000A96891601C46D1462AE709EB0701ABEB7F
:10531000070B4BF0010299604A6055F8043C03F01A
:1053200001031F43404645F8047CFFF7B3FE2E46B9
:1053300028E72946FFF744FEFFE6294630461C468B
:10534000D146FFF73DFE0BE7AB688360EB68C360B7
:10535000242A17D000F1100305F11002E7E650F8F7
:10536000043C23F003031C442E46F9E6A968CAF85E
:105370001010E968CAF81410242A0CD010350AF16C
:105380001802B9E72B6903616B69436105F11802E3
:1053900000F11803CBE62A69CAF818206A69CAF82E
:1053A0001C2018350AF12002A6E732467FE729467D
:1053B00030460193FFF704FE019B7EE7A968CAF817
:1053C0001010E968CAF81410242A03D010350AF125
:1053D00018026CE72A69CAF818206A69CAF81C2002
:1053E00018350AF1200262E7C005402038B5074CA5
:1053F0000023054608462360FCF7A2FF431C00D0AB
:1054000038BD2368002BFBD02B6038BDF8844020CA
:1054100010B50C46B1F90E1000F0F6F9002803DBC8
:10542000236D0344236510BDA38923F48053A38116
:1054300010BD00BF2DE9F0411646B1F90C201F4602
:10544000D3050C46054607D500220223B1F90E10FC
:1054500000F0C4F9B4F90C20B4F90E1022F4805213
:10546000A2813B4632462846BDE8F04100F0A4B890
:1054700010B50C46B1F90E1000F0B0F9A389421C2A
:105480000EBF23F4805343F480532065A38110BDE5
:10549000B1F90E1000F008B9F8B50D4614460646ED
:1054A00010B1836B002B4BD0B4F90C20A369A3601F
:1054B00091B2080739D52369002B36D0EDB28904A3
:1054C0002F4615D522686169D31A8B421CDA013345
:1054D000A168501C0139A1602060157062699A4270
:1054E0001AD0A389DB0701D50A2D15D03846F8BD9F
:1054F000616E42F4005221F40051A281226861667B
:105500006169D31A8B42E2DB21463046FEF7A4FDE7
:1055100040B922680123DBE721463046FEF79CFDB7
:105520000028E3D04FF0FF37E0E721463046FEF792
:105530007FFC0028F6D1B4F90C20236991B2BDE7B5
:10554000FEF7E2FDB0E700BFF0B5064685B01F46A6
:1055500089B1104C104D2468646B002C08BF2C4698
:10556000D4F8E040A047431C03D100228A233A60CC
:10557000336005B0F0BD0C460649074A0968496B1F
:10558000002908BF11462246D1F8E04001A9A047F2
:10559000E9E700BF240040205404402021B1FF2A45
:1055A00004D80A7001207047084670478A230360B8
:1055B0004FF0FF30704700BF70B50D46084C1146E4
:1055C00006461A46284600232360FBF765FF431C66
:1055D00000D070BD2368002BFBD0336070BD00BFCE
:1055E000F88440202DE9F8432C4D0646286898465B
:1055F0000F469146FFF748F9294B1C68D4F848310B
:10560000002B3ED05A681F2A1CDC02F1010E76B135
:1056100003EB82010124C1F88890D3F888019440FB
:105620002043022EC3F88801C1F8088123D002323A
:10563000C3F804E0286843F82270FFF727F9002038
:10564000BDE8F883174B0BB34FF4C870FFF798F918
:105650000346D8B1D4F848210260002141600A46CF
:10566000C4F848014FF0010EC0F88811C0F88C1141
:10567000002EDCD0CCE7D3F88C110C43C3F88C415E
:10568000D5E704F5A673C4F84831BBE72868FFF7EF
:10569000FDF84FF0FF30BDE8F88300BF5004402014
:1056A000645B40008149400038B5074C0023054643
:1056B00008462360FCF760FE431C00D038BD236819
:1056C000002BFBD02B6038BDF884402070B559B159
:1056D00005460C4610B1836B002B3CD0636ED80797
:1056E00005D5B4F90C302BB90026304670BDA3891E
:1056F00099053CD521462846FEF70EFCE36A06468E
:1057000033B1E169284698470028B8BF4FF0FF360B
:10571000A3891A0622D4216B41B104F140039942B6
:1057200002D02846FEF716FE00232363616C21B1E8
:105730002846FEF70FFE00236364FEF711FD636E3B
:105740000022DB07A2810ED5A06DFFF79BF8FEF7C4
:105750000DFD304670BDFEF7D7FCBFE72169284636
:10576000FEF7F8FDD7E7A06DFFF790F8ECE7A06D26
:10577000FFF78AF8B4F90C30002BBBD1666E16F037
:105780000106B1D1A06DFFF781F8304670BD00BFB2
:1057900038B50B46074C05461146184600232360D2
:1057A000FCF7EDFD431C00D038BD2368002BFBD077
:1057B0002B6038BDF884402038B5074C00230546DF
:1057C00008462360FCF7E0FD431C00D038BD236889
:1057D000002BFBD02B6038BDF884402070B50D46FF
:1057E000084C114606461A46284600232360FCF75B
:1057F000CDFD431C00D070BD2368002BFBD033606F
:1058000070BD00BFF884402070B50D46084C1146AD
:1058100006461A46284600232360FAF7DBFC431CA1
:1058200000D070BD2368002BFBD0336070BD00BF7B
:10583000F884402050485920496E697469616C6948
:105840007A65204552524F52210D00004175746F08
:10585000204E65676F7469617465204552524F52DE
:10586000210D0000536574206C696E6B2045525207
:105870004F52210D0000000050730000535049208A
:10588000537065656409203D20256C64204D487A7D
:105890000D0A00005354415455530909203D20304E
:1058A00078253032782052585F44523D2578205474
:1058B000585F44533D2578204D41585F52543D2553
:1058C000782052585F505F4E4F3D25782054585FE6
:1058D00046554C4C3D25780D0A00000052585F415A
:1058E0004444525F50302D310000000052585F4157
:1058F0004444525F50322D350000000054585F413F
:10590000444452090000000052585F50575F503025
:105910002D35000053455455505F4157000000009D
:10592000454E5F4141090000454E5F525841444495
:105930005200000052465F434809000052465F5340
:105940004554555000000000434F4E46494709005A
:1059500044594E50442F464541545552450000008D
:1059600044617461205261746509203D2025730DE6
:105970000A0000004D6F64656C0909203D20257305
:105980000D0A0000435243204C656E67746809207D
:105990003D2025730D0A0000504120506F7765723D
:1059A00009203D2025730D0A000000002573090021
:1059B0002030780025303278000000002030782533
:1059C0003032780044697361626C656400000000E5
:1059D0003820626974730000313620626974730084
:1059E000C4594000D0594000D8594000314D425070
:1059F00053000000324D4250530000003235304B0E
:105A000042505300EC594000F4594000FC5940000A
:105A10006E524632344C30312B00000050415F4D05
:105A2000494E000050415F4C4F57000050415F48C5
:105A30004947480050415F4D415800001C5A400002
:105A4000245A40002C5A4000345A40005365747464
:105A5000696E672053504920636C6F636B20232568
:105A60006C75202E2E2E200A0D0000002D492D20B1
:105A7000496E697469616C697A6520535049206187
:105A800073206D61737465720D0000002D2D204D23
:105A900061737465724E6F64655F526576302D3147
:105AA000202D2D0D0A2D2D2053414D4537302D58D9
:105AB000504C44202D2D0D0A2D2D20436F6D706903
:105AC0006C65643A204D61722033302032303231BF
:105AD0002032313A31323A3235202D2D0D0000007E
