:100000000C943B010C94200D0C94F90C0C9463019E
:100010000C9463010C9463010C9463010C946301D0
:100020000C9463010C9463010C9463010C946301C0
:100030000C9463010C9463010C9463010C946301B0
:100040000C94AF0C0C9463010C947D0C0C94570C25
:100050000C9463010C9463010C9463010C94630190
:100060000C94470D0C94630150415F4D4158005072
:10007000415F484947480050415F4C4F570050414D
:100080005F4D494E0031362062697473003820623A
:100090006974730044697361626C6564006E5246F2
:1000A00032344C30312B006E524632344C303100F9
:1000B0003235304B42505300324D42505300314D97
:1000C0004250530000000000250028002B000000D3
:1000D0000008000201000003040700000000000007
:1000E000000000000000240027002A00010204088C
:1000F0001020408001020408102001020408102092
:1001000004040404040404040202020202020303BD
:10011000030303031112131415160A0B0C0D0E0F13
:100120005354415455530909203D2030782530322D
:10013000782052585F44523D25782054585F4453EC
:100140003D2578204D41585F52543D257820525826
:100150005F505F4E4F3D25782054585F46554C4CBC
:100160003D25780D0A004152430909203D202564B0
:100170000D0A00504120506F77657209203D2025FF
:10018000530D0A007E0077006F0068004352432041
:100190004C656E67746809203D2025530D0A009454
:1001A000008D0085004D6F64656C0909203D202598
:1001B000530D0A00A7009D004461746120526174D0
:1001C0006509203D2025530D0A00BE00B800B0008F
:1001D00044594E50442F4645415455524500434FD3
:1001E0004E464947090052465F5345545550005208
:1001F000465F43480900454E5F525841444452000F
:10020000454E5F4141090052585F50575F50302DB5
:10021000360054585F41444452090052585F4144EB
:1002200044525F50322D350052585F414444525F72
:1002300050302D31005350492053706565647A0960
:10024000203D202564204D687A0A00000102030445
:10025000050D0A002530327800203078002553093A
:10026000203D000D0A0020307825303278002553DB
:1002700009203D00660E11241FBECFEFD8E0DEBF7F
:10028000CDBF11E0A0E0B1E0EAEFF2E302C00590DB
:100290000D92A23BB107D9F723E0A2EBB1E001C078
:1002A0001D92A43FB207E1F711E0CBE3D1E004C017
:1002B0002197FE010E946719CA33D107C9F70E942E
:1002C000E50E0C947B190C940000EEEBF2E0A08993
:1002D000B18982E08C93A485B5851C92A685B785EB
:1002E00080E18C93108EA489B58986E08C93A289D5
:1002F000B3898C9180618C93A289B3898C91886039
:100300008C93A289B3898C9180688C930288F3893D
:10031000E02D80818F7D8083089580914C029091A3
:100320004D02891B990B0895AF92BF92CF92DF9235
:10033000EF92FF920F931F93CF93DF936C017B019A
:100340008B01040F151FEB015E01AE18BF08C0172B
:10035000D10759F06991D601ED91FC910190F0819E
:10036000E02DC6010995892B79F7C501DF91CF9161
:100370001F910F91FF90EF90DF90CF90BF90AF90C3
:100380000895089580E991E0089508950895FC0185
:10039000538D448D252F30E0842F90E0821B930BEA
:1003A000541710F0CF96089501970895FC01918D90
:1003B000828D981761F0A28DAE0FBF2FB11D5D9693
:1003C0008C91928D9F5F9F73928F90E008958FEF35
:1003D0009FEF0895FC01918D828D981731F0828DE9
:1003E000E80FF11D858D90E008958FEF9FEF089540
:1003F000FC01918D228D892F90E0805C9F4F821BA4
:1004000091098F73992708958EEB92E00E94F8016D
:1004100021E0892B09F420E0822F089580E090E00C
:10042000892B29F00E94040281110C940000089588
:10043000FC01A48DA80FB92FB11DA35ABF4F2C9159
:10044000848D90E001968F739927848FA689B78950
:100450002C93A089B1898C91837080648C93938D47
:10046000848D981306C00288F389E02D80818F7DEA
:1004700080830895EF92FF920F931F93CF93DF93A2
:10048000EC0181E0888F9B8D8C8D98131AC0E889D0
:10049000F989808185FF15C09FB7F894EE89FF899F
:1004A0006083E889F98980818370806480839FBF3D
:1004B00081E090E0DF91CF911F910F91FF90EF903D
:1004C0000895F62E0B8D10E00F5F1F4F0F7311274D
:1004D000E02E8C8D8E110CC00FB607FCFACFE88988
:1004E000F989808185FFF5CFCE010E941802F1CFF6
:1004F000EB8DEC0FFD2FF11DE35AFF4FF0829FB7FC
:10050000F8940B8FEA89FB8980818062CFCFCF93EB
:10051000DF93EC01888D8823B9F0AA89BB89E8892B
:10052000F9898C9185FD03C0808186FD0DC00FB6D1
:1005300007FCF7CF8C9185FFF2CF808185FFEDCF4F
:10054000CE010E941802E9CFDF91CF91089590E08B
:10055000FC01E253FF4F2491FC01E451FF4F349121
:10056000FC01E050FF4FE491EE23C9F0222339F063
:10057000233001F1A8F4213019F1223029F1F0E003
:10058000EE0FFF1FEC53FF4FA591B4918FB7F89476
:10059000EC91611126C030953E233C938FBF0895A6
:1005A0002730A9F02830C9F0243049F78091800025
:1005B0008F7D03C0809180008F7780938000DFCF94
:1005C00084B58F7784BDDBCF84B58F7DFBCF8091E1
:1005D000B0008F778093B000D2CF8091B0008F7D34
:1005E000F9CF3E2BDACF682F8091D1030E94A7026A
:1005F0008091E6039091E7038230910538F0880FEF
:10060000991F880F991F05970197F1F7089581E0C9
:100610000C94F302CF93DF9390E0FC01E451FF4F81
:10062000249180509F4FFC0184918823D1F090E069
:10063000880F991FFC01EE51FF4FA591B491FC0169
:10064000EC53FF4FC591D491623071F49FB7F89489
:100650003C91822F809583238C93E8812E2B2883D5
:100660009FBFDF91CF9108958FB7F894EC912E2B17
:100670002C938FBFF6CF3FB7F8948091FF019091F4
:100680000002A0910102B091020226B5A89B05C00C
:100690002F3F19F00196A11DB11D3FBFBA2FA92F01
:1006A000982F8827BC01CD01620F711D811D911DFE
:1006B00042E0660F771F881F991F4A95D1F708956A
:1006C0008F929F92AF92BF92CF92DF92EF92FF9262
:1006D0004B015C010E943B036B017C010E943B03C8
:1006E0006C197D098E099F09683E7340810591054B
:1006F000A8F321E0821A9108A108B10888EEC80E7B
:1007000083E0D81EE11CF11C81149104A104B10402
:1007100029F7FF90EF90DF90CF90BF90AF909F9020
:100720008F9008952FB7F8946091FB017091FC01B0
:100730008091FD019091FE012FBF089508952091B1
:10074000D701260F3327331F21323105ECF42091D6
:100750009402FC0190E080E0243069F082E008958A
:10076000A091D7012191AC0149545E4FA40FB52F40
:10077000B11D2C930196861798F38091D701680FCD
:100780006093D70180E0089581E00895109294026B
:1007900081E08093930210926E0261E082E10E94F8
:1007A000A70261E083E10E94A702E9EBF0E080810B
:1007B0008E7F808380818D7F808388E48093B800E2
:1007C00085E48093BC000895CF93DF9391E09093EC
:1007D000B6018823B9F0C091B800D091BA008091D9
:1007E000BC008A7B8093BC0060E082E10E94A7028B
:1007F00060E083E10E94A7020E94C603D093BA0082
:10080000C093B800DF91CF9108958F929F92AF92DD
:10081000BF92CF92DF92EF92FF920F931F93CF93ED
:10082000DF93D091BD02D13208F0D7C0182FC0910C
:10083000BC020E943B036B017C01809194028111F8
:100840006BC082E080939402109393028FEF8093A9
:10085000920210929102D0939002ACE9B2E0E0E7EC
:10086000F2E080E0D81391C010926F0280916F0285
:10087000CC0FC82BC0936F0280916E02813009F0BB
:1008800088C010926E020E943B036B017C01809134
:100890006F028093BB008091960290919702A09185
:1008A0009802B0919902892B8A2B8B2BA1F00E9480
:1008B0003B0300919602109197022091980230918B
:1008C00099026C197D098E099F09061717072807D9
:1008D000390708F442C08091BC0083FDD8CF85EC75
:1008E0008093BC000E943B036B017C0180919402C9
:1008F000823009F450C0809192028F3F09F46FC09A
:1009000080919202803209F46CC08091920280330F
:1009100009F469C084E026C0809196029091970204
:10092000A0919802B0919902892B8A2B8B2B09F404
:1009300084CF0E943B038090960290909702A090F3
:100940009802B09099026C197D098E099F0986164C
:100950009706A806B90608F070CF809195020E940C
:10096000E40385E010929B021092BD0210929A025D
:10097000DF91CF911F910F91FF90EF90DF90CF907B
:10098000BF90AF909F908F9008959D9191938F5FAE
:1009900069CF85EEA5CF8091960290919702A091A4
:1009A0009802B0919902892B8A2B8B2B09F49ECF48
:1009B0000E943B03009196021091970220919802A9
:1009C000309199026C197D098E099F090617170746
:1009D0002807390708F08ACFC0CF81E0C3CF80E075
:1009E000C1CF82E0BFCF83E0BDCFE0914D028091C7
:1009F0004C02E81730F4F0E0E25BFD4F808190E0BC
:100A000008958FEF9FEF089590914D0280914C02D1
:100A10002FEF3FEF981748F4E92FF0E0E25BFD4F2E
:100A2000208130E09F5F90934D02C9010895CF92DD
:100A3000DF92EF92FF920F931F93CF93DF937C018E
:100A4000CB018A0120919A02222389F0EB016B01EC
:100A5000C40ED51ECC15DD0569F06991D701ED9165
:100A6000FC910190F081E02DC7010995F3CF642F2F
:100A70000E949F03C801DF91CF911F910F91FF90BA
:100A8000EF90DF90CF900895CF93DF931F92CDB773
:100A9000DEB7698320919A022223F9F02091BD02EA
:100AA000203258F021E030E0FC013383228390E0D3
:100AB00080E00F90DF91CF91089580919B02E82F05
:100AC000F0E0E456FD4F998190838F5F80939B0205
:100AD0008093BD0281E090E0ECCF61E0CE01019611
:100AE0000E949F03F7CFCF93DF93EB019091CC034C
:100AF00021E020939A029093BC0210929B021092E4
:100B0000BD02682F8BE593E00E94440568818BE568
:100B100093E00E94440581E0DF91CF910C9405049D
:100B200090E080E008958EBD00000DB407FEFDCF7B
:100B30008EB508950F931F93CF93DF932091B50146
:100B40002F5F322F37703093B50120FF2BC020E884
:100B500031FD2064347009F02062205FFC01EC015B
:100B6000239600E011E06485662329F070E0C80157
:100B70000E942C196F5F6187322F369F030E30E081
:100B8000311D1124311110C01682662311F06150FD
:100B900061873196EC17FD0731F7DF91CF911F91F7
:100BA0000F91089520E0D4CF31503683EECF4F928D
:100BB0005F926F927F928F92AF92BF92CF92DF92AD
:100BC000EF920F931F93CF93DF933C01EB010E94B1
:100BD0003B03F30127853089621B730B6A30710573
:100BE000B0F3F894E881F9817BB170626BB16F7DED
:100BF0006BB9C9848E812C2D281B822F2E83BF8434
:100C00004A805B801C850D85DE841F5F0F5FD39457
:100C10009F813885AA84EB844081D20120E0C32FD4
:100C2000522F322F3081442788943111380F08F425
:100C30003FEF8195889410FD430F4795889411FDEF
:100C4000430F4795889412FD430F4795889413FDF1
:100C5000430F4795889414FD430F4795889415FDDD
:100C6000430F4795889416FD430F4795889417FDC9
:100C7000430F47958894232F1111242F8C0D422F59
:100C8000002C7BB900C047FF6BB9318122278894C3
:100C900000C000C0002C6BB93111390F00C0002C0E
:100CA0007BB900C046FF6BB908F43FEF919588947B
:100CB00000C000C0002C6BB900FD230F00C0002C49
:100CC0007BB900C045FF6BB92795889401FD230FC0
:100CD00000C000C0002C6BB92795889400C0002C80
:100CE0007BB900C044FF6BB902FD230F27958894A0
:100CF00000C000C0002C6BB903FD230F00C0002C06
:100D00007BB900C043FF6BB92795889404FD230F7E
:100D100000C000C0002C6BB92795889400C0002C3F
:100D20007BB900C042FF6BB905FD230F279588945E
:100D300000C000C0002C6BB906FD230F00C0002CC2
:100D40007BB900C041FF6BB92795889407FD230F3D
:100D500000C000C0002C6BB92795889400C0002CFF
:100D60007BB900C040FF6BB9432F0111422F9A0D90
:100D700000C000C0002C6BB900C000C0002C7BB9C3
:100D800000C047FF6BB932812227889400C000C0A1
:100D9000002C6BB931113C0F00C0002C7BB900C096
:100DA00046FF6BB908F43FEFEB0DF11D00C000C02A
:100DB000002C6BB9D0FC230F00C0002C7BB900C005
:100DC00045FF6BB927958894D1FC230F00C000C064
:100DD000002C6BB92795889400C0002C7BB900C00B
:100DE00044FF6BB9D2FC230F2795889400C000C044
:100DF000002C6BB9D3FC230F00C0002C7BB900C0C2
:100E000043FF6BB927958894D4FC230F00C000C022
:100E1000002C6BB92795889400C0002C7BB900C0CA
:100E200042FF6BB9D5FC230F2795889400C000C002
:100E3000002C6BB9D6FC230F00C0002C7BB900C07E
:100E400041FF6BB927958894D7FC230F00C000C0E1
:100E5000002C6BB92795889400C0002C7BB900C08A
:100E600040FF6BB9432FD110422FC19500C000C085
:100E7000002C6BB9CE0D00C000C07BB900C047FF8D
:100E80006BB930812227889400C000C0002C6BB958
:100E90003111380F00C0002C7BB900C046FF6BB980
:100EA00008F43FEF8195889400C000C0002C6BB916
:100EB00010FD230F00C0002C7BB900C045FF6BB9AB
:100EC0002795889411FD230F00C000C0002C6BB93A
:100ED0002795889400C0002C7BB900C044FF6BB9F3
:100EE00012FD230F2795889400C000C0002C6BB919
:100EF00013FD230F00C0002C7BB900C043FF6BB96A
:100F00002795889414FD230F00C000C0002C6BB9F6
:100F10002795889400C0002C7BB900C042FF6BB9B4
:100F200015FD230F2795889400C000C0002C6BB9D5
:100F300016FD230F00C0002C7BB900C041FF6BB928
:100F40002795889417FD230F00C000C0002C6BB9B3
:100F50002795889400C0002C7BB900C040FF6BB976
:100F6000432F1111422F8C0D00C000C0002C6BB913
:100F7000119709F086CE20EE31E0D2010E9440198F
:100F8000DC01CB01F4E0B695A79597958795FA9586
:100F9000D1F730E020E0B901EAE94E9E040C611D72
:100FA0005E9E600D711D1124650D711D860F971FCA
:100FB000A11DB11D893E43E09407A105B10508F4C8
:100FC00034C0885E9340A109B10942E0B695A79567
:100FD000979587954A95D1F747E0849F080E211D84
:100FE000949F200D311D1124290F311D6091B401F2
:100FF00070E0860F971F820F931F4091FB01509165
:10100000FC016091FD017091FE01292F3327420FF1
:10101000531F611D711D4093FB015093FC016093B0
:10102000FD017093FE018093B40178940E943B030C
:10103000F301708B6787DF91CF911F910F91EF9034
:10104000DF90CF90BF90AF908F907F906F905F9028
:101050004F900895559A08950F931F93CF93DF9360
:10106000CDB7DEB762970FB6F894DEBF0FBECDBF27
:101070008C01F901DC011C968C917A8369835C8375
:101080004B835E834D8390819D8791819E87928162
:101090009F878130F1F4CE0101960E949A0583E08A
:1010A000888B1A8A198AD801ED91FC910484F58500
:1010B000E02DBE016F5F7F4FC801099562960FB6A4
:1010C000F894DEBF0FBECDBFDF91CF911F910F917E
:1010D00008951C861B861A86198618861F82DFCF04
:1010E0000F931F93CF93DF93CDB7DEB762970FB601
:1010F000F894DEBF0FBECDBF8C01F901DC011C9658
:101100008C917A8369835C834B835E834D8390816A
:101110009D8791819E8792819F878130E9F4CE01DE
:1011200001960E949A05188A1A8A198AD801ED91A7
:10113000FC910484F585E02DBE016F5F7F4FC801EF
:10114000099562960FB6F894DEBF0FBECDBFDF9152
:10115000CF911F910F9108951C861B861A861986C0
:1011600018861F82E0CFCF93C82F682F8EEB92E0B6
:101170000E943A028C2FCC0F990BCF91089590E0EA
:1011800080E00895FC01858596850895CF93DF93CF
:1011900000D000D000D0CDB7DEB7AB011C821D82DD
:1011A0001E82DC01ED91FC910190F081E02D19820D
:1011B0001A821B829E012F5F3F4FBE016C5F7F4FE3
:1011C000099526960FB6F894DEBF0FBECDBFDF910E
:1011D000CF9108950F931F930091D3031091D403DF
:1011E0002091D5033091D60340E052E16AE770E0E8
:1011F00080E0041715072607370740F476956795B2
:10120000579547958F5F8630A1F787E0982F906AB2
:101210009695809581709CBD8DBD80E01F910F914A
:101220000C94F302CF93DF93C82FD62F0E94EA08C5
:101230008C2F8F7180620E949305C82F8D2F0E9482
:1012400093050E9407038C2FDF91CF910895609141
:10125000E00361FD0CC062606093E00380E00E94E7
:10126000120965E070E080E090E00C94600308955E
:10127000F89460E787E00E94120985FB992790F9AE
:101280009093B30184FB992790F99093B20186FB68
:10129000882780F98093470278940895CF93C82FC8
:1012A0000E94EA088C2F8F710E9493058FEF0E9495
:1012B0009305C82F0E9407038C2FCF9108950F9399
:1012C0001F93CF938C0186E00E944E09C82FC77DE3
:1012D00002301105E1F4C0628BE990E0A0E0B0E0DB
:1012E0008093E2039093E303A093E403B093E503B8
:1012F0006C2F86E00E94120986E00E944E0991E060
:10130000C81390E0892FCF911F910F91089585E523
:1013100090E0A0E0B0E00130110511F7C86081E471
:1013200090E0A0E0B0E0DCCFEF92FF920F931F932C
:10133000CF93DF93C82F7B01142F0E94EA088C2FD4
:101340008F7180620E949305082FE701115020F0F1
:1013500089910E949305FACF0E940703802FDF91A5
:10136000CF911F910F91FF90EF900895FC01019094
:101370000020E9F73197AF01481B590BBC018EEBF8
:1013800092E00C9494018F929F92AF92BF920F9330
:101390001F93CF93DF93CDB7DEB7A1970FB6F89425
:1013A000DEBF0FBECDBF19A2423008F44AE08E0165
:1013B0000F5D1F4F842E912CB12CA12CA5019401FF
:1013C0000E94C418E62FB901CA01EA30F4F4E05DC6
:1013D000D801EE938D01232B242B252B79F790E058
:1013E00080E0109719F0CD010E94B609A1960FB6C2
:1013F000F894DEBF0FBECDBFDF91CF911F910F914B
:10140000BF90AF909F908F900895E95CE1CFCF930C
:10141000DF930E94B609EC0180E591E00E94B609D5
:101420008C0F9D1FDF91CF9108951F93CF93DF9372
:1014300000D000D0CDB7DEB78EEB92E00E94D6018F
:101440008EEB92E00E94D60110E08A3379F0E1E061
:10145000F0E0EC0FFD1FE10FF11D17FDFA95808301
:101460001F5F8EEB92E00E94D601EFCFCE01019676
:101470000E946814182F8EEB92E00E94D6018053D0
:10148000990B8230910520F4682F812F0E94A702CA
:101490008EEB92E00E94D6018A3011F08D30C1F7B8
:1014A0008EEB92E00E94EA018A3021F48EEB92E00A
:1014B0000E94D6010F900F900F900F90DF91CF9167
:1014C0001F910895FF920F931F93CF93DF93C62F21
:1014D000D42F9F938F938EE692E09F938F930E94D9
:1014E000D914DC0F0F900F900F900F9006E612E0CA
:1014F000CD1791F0FF24F394FC0E8C2F0E944E091F
:101500001F928F931F930F930E94D9140F900F90E7
:101510000F900F90CF2DECCF83E692E09F938F93A7
:101520000E94D9140F900F90DF91CF911F910F91CE
:10153000FF9008952F923F924F925F926F927F9209
:101540008F929F92AF92BF92CF92DF92EF92FF92D3
:101550000F931F93CF93DF931F92CDB7DEB7962ED5
:10156000342E4DB65EB69F938F938DE592E09F9398
:101570008F930E94D914390C0F900F900F900F90F9
:1015800089E5C82E82E0D82E94E5A92E92E0B92EE6
:10159000931409F44AC06DB67EB62090DF03022D85
:1015A00010E08DB79EB7801B910B0FB6F8949EBFCD
:1015B0000FBE8DBFEDB7FEB731967F01F1E0F90D9B
:1015C000F9830E94EA08892D8F710E9493054701D3
:1015D0002A948FEF281631F00E949305F40181932D
:1015E0004F01F6CF0E940703DF92CF920E94D914D9
:1015F0000E0D1F1D0F900F90015011090E151F05A4
:1016000068F0F80180811F928F93BF92AF920E9481
:10161000D9140F900F900F900F90EECF0FB6F89453
:101620007EBE0FBE6DBE9980B3CF81E592E09F93E1
:101630008F930E94D9140F900F900FB6F8945EBE4E
:101640000FBE4DBE0F90DF91CF911F910F91FF9074
:10165000EF90DF90CF90BF90AF909F908F907F9052
:101660006F905F904F903F902F900895CF92DF92B0
:10167000EF92FF920F931F93CF939091CC0321E0B1
:1016800020939A029093BC0210929B021092BD028A
:10169000682F8BE593E00E94440580E00E940504DA
:1016A000C091CC030E943B036B017C0180919402AA
:1016B000811164C081E080939402809393029FEF34
:1016C00090939202109291021092900280936F0276
:1016D00080916F02CC0FC82BC0936F0280916E0275
:1016E000813009F078C010926E020E943B036B01BA
:1016F0007C0180916F028093BB0080919602909153
:101700009702A0919802B0919902892B8A2B8B2B7A
:10171000A1F00E943B030091960210919702209144
:101720009802309199026C197D098E099F0906175C
:1017300017072807390708F442C08091BC0083FDD1
:10174000D8CF85EC8093BC000E943B036B017C01E9
:1017500080919402813009F440C0809191028111FE
:101760005EC080919102A0E7B2E0EEE4F2E090E08A
:10177000981751F12D9121939F5FFACF8091960296
:1017800090919702A0919802B0919902892B8A2B8F
:101790008B2B09F48BCF0E943B0300919602109192
:1017A000970220919802309199026C197D098E0957
:1017B0009F09061717072807390708F077CF809188
:1017C00095020E94E40380E010924D0280934C0247
:1017D000811127C0FFCF85EEB5CF80919602909101
:1017E0009702A0919802B0919902892B8A2B8B2B9A
:1017F00009F4AECF0E943B0300919602109197022C
:1018000020919802309199026C197D098E099F09E7
:10181000061717072807390708F09ACFD0CF81E0BD
:10182000A2CF8BE593E00E940405CF911F910F9109
:10183000FF90EF90DF90CF9008950E946D1985ED95
:101840008093BC008091960290919702A09198029B
:10185000B09199020796A11DB11D23E0B695A795F9
:10186000979587952A95D1F72091BC0024FD03C058
:1018700010929402089540919602509197026091BF
:10188000980270919902452B462B472B69F30097DC
:10189000A105B10541F025E32A95F1F70000019774
:1018A000A109B109E1CF809195020C94E4031F9244
:1018B0000F920FB60F9211242F933F934F935F9384
:1018C0006F937F938F939F93AF93BF93EF93FF9308
:1018D0008EEB92E00E941802FF91EF91BF91AF91C1
:1018E0009F918F917F916F915F914F913F912F9138
:1018F0000F900FBE0F901F9018951F920F920FB66A
:101900000F9211242F938F939F93EF93FF93E09166
:10191000CE02F091CF028081E091D402F091D50205
:1019200082FD1BC090818091D7028F5F8F732091C1
:10193000D802821741F0E091D702F0E0E254FD4F67
:10194000958F8093D702FF91EF919F918F912F9167
:101950000F900FBE0F901F9018958081F4CF1F92AB
:101960000F920FB60F9211242F933F938F939F9353
:10197000AF93BF938091FB019091FC01A091FD0179
:10198000B091FE013091FA0123E0230F2D3758F575
:101990000196A11DB11D2093FA018093FB01909344
:1019A000FC01A093FD01B093FE018091FF01909195
:1019B0000002A0910102B09102020196A11DB11D89
:1019C0008093FF0190930002A0930102B093020262
:1019D000BF91AF919F918F913F912F910F900FBE2B
:1019E0000F901F90189526E8230F0296A11DB11D98
:1019F000D2CF1F920F920FB60F9211242F933F93C5
:101A00004F935F936F937F938F939F93AF93BF9306
:101A1000EF93FF93E0910201F09103010995FF918B
:101A2000EF91BF91AF919F918F917F916F915F9156
:101A30004F913F912F910F900FBE0F901F901895CF
:101A40001F920F920FB60F9211242F933F934F9333
:101A50005F936F937F938F939F93AF93BF93EF9316
:101A6000FF93E0910001F09101010995FF91EF9141
:101A7000BF91AF919F918F917F916F915F914F91A6
:101A80003F912F910F900FBE0F901F9018951F92AE
:101A90000F920FB60F9211242F933F934F935F93A2
:101AA0006F937F938F939F93AF93BF93EF93FF9326
:101AB0008091B900887F803609F44AC0F0F58832F9
:101AC00009F4A7C018F5803109F49BC0B8F4882345
:101AD00009F4F9C0883009F494C0FF91EF91BF91E7
:101AE000AF919F918F917F916F915F914F913F91B6
:101AF0002F910F900FBE0F901F901895883109F409
:101B000088C0803251F78093920214C0803409F467
:101B10009DC040F48033B9F38833F9F68093920284
:101B200085ECB0C0803509F485C0883509F496C0CD
:101B3000883499F60E941F0CD0CF883909F48CC0E4
:101B400038F5883729F050F4883611F0803729F6B7
:101B500083E0809394021092F90157C0883809F409
:101B60007BC0803919F0803809F0B7CF8091F90136
:101B7000803208F071C0E091F90181E08E0F80930E
:101B8000F9018091BB00F0E0E752FE4F80833DC039
:101B9000803B39F0E0F4803A09F479C0883A09F0E2
:101BA0009CCF84E0809394021092D8011092D701C8
:101BB000E0910602F091070209958091D701811109
:101BC0000FC081E08093D7011092B70109C0803C1B
:101BD00009F4A6CF883C09F4A3CF883B09F07DCF58
:101BE000E091D80181E08E0F8093D801F0E0E954B4
:101BF000FE4F80818093BB009091D8018091D701E6
:101C000029C080916F028093BB0085EC8093BC005B
:101C100064CF9091910280919002981758F5E091CD
:101C2000910281E08E0F80939102F0E0E059FD4F28
:101C30008081E9CFE091910281E08E0F8093910243
:101C40008091BB00F0E0E059FD4F808390919102BC
:101C5000809190029817C8F285E8D8CFE091910260
:101C600081E08E0F809391028091BB00F0E0E059FB
:101C7000FD4F80838091930281115CCF81E080933E
:101C80006E0284EA8093BC001092940226CF85EC09
:101C90008093BC00109294028091F901803230F45C
:101CA000E091F901F0E0E752FE4F10826091F901F6
:101CB00070E0E0910402F091050289ED91E0099550
:101CC0001092F9010ACF1092920234CFEEEBF2E0BB
:101CD0001382128288EE93E0A0E0B0E084839583C3
:101CE000A683B78320E331E03183208325EC30E005
:101CF0003587248724EC30E03787268720EC30E0D6
:101D0000318B208B21EC30E0338B228B22EC30E0C6
:101D1000358B248B26EC30E0378B268B118E128E80
:101D2000138E148EEBE5F3E0138212828483958385
:101D3000A683B78382E491E091838083E7E6F3E0B2
:101D40008FEF808312821182148613868FEF9FEFAC
:101D5000DC0187839087A187B287E4E7F3E01682EE
:101D600017821086118612861386148615861686AB
:101D70001786108A118A128A138A148A158AEFEC40
:101D8000F3E089E090E0918380838AE090E09383A0
:101D9000828380E49BE4ACE4B0E084839583A683F3
:101DA000B78380E28087118685E0808B85E090E0B4
:101DB000A0E0B0E0878B908FA18FB28F1386EAEB03
:101DC000F3E08DE1828B138A0895CF93DF93CDB733
:101DD000DEB72D970FB6F894DEBF0FBECDBF789457
:101DE00084B5826084BD84B5816084BD85B5826020
:101DF00085BD85B5816085BD80916E0081608093D1
:101E00006E00109281008091810082608093810039
:101E10008091810081608093810080918000816049
:101E2000809380008091B10084608093B1008091A4
:101E3000B00081608093B00080917A0084608093CC
:101E40007A0080917A00826080937A0080917A0093
:101E5000816080937A0080917A00806880937A0014
:101E60001092C1001092B6031092B7031092B803FB
:101E70001092B903109276031092770310927803B0
:101E8000109279030E9492036B017C014B015C016B
:101E900028EB820E2BE0921EA11CB11C0E94920323
:101EA0006C157D058E059F0528F086169706A806F9
:101EB000B906A0F768EE73E080E090E00E9460034E
:101EC0000E9465010E9492036093760370937703EA
:101ED000809378039093790383E591E00E94B6099B
:101EE0000E9492036B017C014B015C013AE0830E7E
:101EF000911CA11CB11C0E9492036C157D058E05DE
:101F00009F0528F086169706A806B906A0F781E077
:101F100080938A030E949203609376037093770301
:101F2000809378039093790384E691E00E94B60948
:101F300062E082E00E940A0388E399E09093010145
:101F400080930001809169008C7F80936900E89AFA
:101F50000E94650170E060E083EB98E00E948E14BF
:101F60008091CF039091D0032091D1033091D2037F
:101F70008217930741F061E00E940A0361E08091BB
:101F8000D1030E940A031FB7F894809103028111C4
:101F900027C0EAE0F1E08491E6EFF0E09491E82FC9
:101FA000F0E0EE0FFF1FEE51FF4FA591B491EC91C1
:101FB000E92321F461E08AE00E94A70261E08AE05F
:101FC0000E940A038CB580618CBD8CB580648CBD89
:101FD00061E08DE00E940A0361E08BE00E940A0349
:101FE000809103028F5F809303021FBF8091CF0314
:101FF0009091D0032091D1033091D203821793079F
:1020000019F060E00E94A70281E00E94F30265E0FF
:1020100070E080E090E00E9460036FE584E00E9441
:10202000120990E080E00E945F090E94EA0880E5C2
:102030000E94930583E70E9493050E94070360E0D6
:102040008DE10E94120960E08CE10E941209109259
:10205000D8031092D90360E787E00E9412096CE46C
:1020600085E00E9412090E94EA0882EE0E94930510
:102070000E9407030E94EA0881EE0E9493050E94D5
:1020800007036CE080E00E94120980E00E944E0984
:102090008093E0030E94270962E083E00E94120916
:1020A00084E08093DF0311EBD12E0AE3C02E8AE394
:1020B000B82E9AE3A92E712C612C512C412C10E0E2
:1020C00000E088248394912CD982CA82BB82AC829E
:1020D0007D826E825F824886A801465E5E4F7A01ED
:1020E0000111EFC34091DF0350E0BE016F5F7F4FEE
:1020F0008AED93E00E947219F70184914091DF0309
:10210000BE016F5F7F4F0E949409F801EC5EFE4FA5
:1021100084916091D7030E94120982E00E944E09C7
:10212000F801E55BFD4FE491B40101C0660FEA954B
:10213000EAF7682B82E00E9412090F5F1F4F2D2DD6
:102140003C2D4B2D5A2D672D762D852D942DA1E0FC
:102150000E944719D22EC32EB42EA52E762E672E9E
:10216000582E492E0430110509F0AECF86E00E94AA
:102170004E09887F682F616086E00E9412091092E4
:102180004D0210924C0210929B021092BD020E94CE
:10219000C60385EC91E0909307028093060286ECDB
:1021A00091E090930502809304028DE00E94360B2B
:1021B0008A3209F03FC00E94360B8E7F8C87BE01A9
:1021C000645F7F4F8AE20E9473058BE00E94360BAA
:1021D000811110C08EE00E94360B8C7F8B87BE0170
:1021E000655F7F4F8EE00E947305811103C082E01E
:1021F0008093CE038BE00E94360B81110CC08AE2E3
:102200000E94360B877C80628A87BE01665F7F4FA3
:102210008AE20E9473058CE20E94360B81608D87F2
:10222000BE01635F7F4F8CE20E9473058BE691E0F5
:102230000E94070A80911D02811145C010920F0271
:1022400010920E028FEF80931202809313028093FC
:10225000140280931502809316028093170281E086
:102260008093180210921A02109219021092110211
:102270001092100280910A0290910B02892B31F486
:102280008CE092E090930B0280930A02E0910802A6
:10229000F0910902309721F08CE092E095838483DD
:1022A0008CE092E0909309028093080210921C0245
:1022B00010921B028EE191E090930D0280930C022C
:1022C00081E080931D02559A85E292E090930F027F
:1022D00080930E0289E090E090931A028093190295
:1022E00080916A0390916B03A0916C03B0916D0390
:1022F000843CF9E09F07A105B10520F484EC99E046
:10230000A0E0B0E080936A0390936B03A0936C030A
:10231000B0936D038FEF8093120280EB80931302D2
:1023200080EF8093140280E8809367038AE20E9422
:10233000360B81608987BE01675F7F4F8AE20E940A
:102340007305811104C08DE791E00E94070A609136
:10235000D3037091D4038091D5039091D60320E4E8
:1023600032E44FE050E00E94C4181F922F9385E39F
:1023700092E09F938F930E94D9140E94EA088FEFF6
:102380000E949305182F0E940703812F90E0212FB0
:1023900021701F922F939C01359527952770332725
:1023A0003F932F9314FB992790F91F929F9315FB4E
:1023B000992790F91F929F9316FB882780F91F9207
:1023C0008F931F921F9380E291E09F938F930E94BF
:1023D000D91442E06AE088E292E00E949A0A44E05E
:1023E0006CE08BE192E00E94620A41E060E182E1F0
:1023F00092E00E949A0A46E061E187E092E00E9442
:10240000620A41E061E080E092E00E94620A41E0FD
:1024100062E086EF91E00E94620A41E065E08FEEA3
:1024200091E00E94620A41E066E086EE91E00E943F
:10243000620A41E060E08EED91E00E94620A42E0B3
:102440006CE180ED91E00E94620A86E00E944E09F4
:1024500088720FB6F894DEBF0FBECDBFE2E0F0E0A9
:10246000803239F021E090E0883009F020E0E22F5E
:10247000F92FEE0FFF1FE653FE4F859194919F9326
:102480008F9388EB91E09F938F930E94D91486E0FD
:102490000E944E0988720F900F900F900F9072E07B
:1024A000F72E00E0803231F091E000E0883009F052
:1024B00090E0F92E82E090E00E945F09182F8F2DA6
:1024C000902F0E945F09E12FF0E0EE0FFF1FEC5408
:1024D000FE4F859194919F938F9385EA91E09F930E
:1024E0008F930E94D91481E00E944E09182F80E03A
:1024F0000E944E098093E0030F900F900F900F9071
:1025000083FD04C0F0E0E0E0112331F0E2E0F0E010
:1025100082FD02C0E1E0F0E0EE0FFF1FE156FE4F4A
:10252000859194919F938F938CE891E09F938F93E3
:102530000E94D91486E00E944E09E82FF0E0F5953C
:10254000E795E370F0E0EE0FFF1FEC57FE4F85912B
:1025500094919F938F9383E791E09F938F930E9431
:10256000D91488E00E944E098F701F928F9386E6DF
:1025700091E09F938F930E94D9140E942709609144
:10258000E00361606093E00380E00E94120960E76D
:1025900087E00E9412098091CF039091D0030FB67B
:1025A000F894DEBF0FBECDBF2091D1033091D2038E
:1025B0008217930719F061E00E94A7028091DA0365
:1025C000882309F40EC14091DF036AED73E08AE0CD
:1025D0000E9494098091D903882339F00E94EA0867
:1025E00081EE0E9493050E94070390E0292E90E05F
:1025F000392E24EF822E99249394A12CB12C0E9481
:102600009203672B682B692B09F4FEC00E9492038A
:10261000009148021091490220914A0230914B02E8
:10262000601771078207930708F41AC100914802E6
:102630001091490220914A0230914B026B017C01BA
:10264000C01AD10AE20AF30A970186010A3F11056E
:102650002105310508F4E0C06093480270934902F7
:1026600080934A0290934B0280928203909283035C
:10267000A0928403B0928503109286031092870380
:10268000109288031092890380917A0390917B03C2
:10269000A0917C03B0917D0380937E0390937F0390
:1026A000A0938003B09381030E94920360937A0306
:1026B00070937B0380937C0390937D038EEB92E079
:1026C0000E94EA01843611F40E94150A0E949203C6
:1026D00060937603709377038093780390937903E4
:1026E0000E9492032B013C018AE891E00E94B60906
:1026F0004AE061E070E080E090E00E94C30981E977
:1027000091E00E94B6094AE0C301B2010E94C309E8
:1027100083E991E00E94B60980917A0390917B034E
:10272000A0917C03B0917D03A3019201281B390B7A
:102730004A0B5B0BCA01B9014AE00E94C30983E955
:1027400091E00E94B60960917A0370917B038091B9
:102750007C0390917D0300917E0310917F03209173
:10276000800330918103601B710B820B930B4AE055
:102770000E94C30985E991E00E94B6090E94920374
:102780004AE00E94C30987E991E00E94070A0E947B
:1027900092036B017C012B013C0135E0430E511C7F
:1027A000611C711C0E9492036C157D058E059F05AE
:1027B00028F04616570668067906A0F78EEB92E0D9
:1027C0000E94EA01843611F40E94150A0E949203C5
:1027D00060937A0370937B0380937C0390937D03D3
:1027E0001BC082E00E944E09EBE4F2E0E49121E09C
:1027F00030E001C0220FEA95EAF72095622F6823A6
:1028000082E00E941209E6CE0E94920362307105B6
:102810008105910508F0FACE80914702882309F4DA
:1028200044C0109247021091D70307E0173008F414
:10283000012F8091D803101B811110E00E94EA083B
:1028400081E60E94930580E4E82E82E0F82E015094
:1028500080F08FEF0E949305F70181937F01F7CFFE
:10286000609348027093490280934A0290934B020E
:10287000DDCE115020F08FEF0E949305FACF0E9419
:10288000070360E787E00E9412098EE991E00E9449
:10289000B6096091460270E090E080E04AE00E9454
:1028A000C30980E591E00E94B6092114310409F4BE
:1028B000A6CE0E940402882309F4A1CE0E94000043
:1028C0009ECE013009F418CCF701849141E018CC78
:1028D000FC0188279927E89421912032E9F32930D7
:1028E00010F02E30C8F32B3241F02D3239F46894B9
:1028F00004C00E948614820F911D219120532A301A
:10290000C0F31EF4909581959F4F08957AE0979FAC
:10291000902D879F802D910D112408950F931F9363
:10292000CF93DF93009759F46115710541F4F0E0FE
:10293000E0E0CF01DF91CF911F910F9108958B01BE
:10294000EC016EE070E081E090E00E94D816FC019E
:10295000892B69F380E883830115110571F01387D2
:10296000028781E883838091EA039091EB03892BAE
:1029700021F4F093EB03E093EA032097D1F2D1879F
:10298000C0878381826083838091EC039091ED0303
:10299000892B79F6F093ED03E093EC038091EE033D
:1029A0009091EF03892B29F6F093EF03E093EE0368
:1029B000C0CFB0E0A0E0EFEDF4E10C94F418AE016C
:1029C000495F5F4FDA016D917D91AD010AEE13E031
:1029D000F80182819381DC0113962C911397286072
:1029E00013962C930E94FE14D8011296ED91FC913F
:1029F0002381277F2383E4E00C941019ABE0B0E03F
:102A0000E4E0F5E10C94E6187C013B018A01FC014D
:102A100017821682838181FFC8C1CE0101965C01B5
:102A2000F7019381F30193FD859193FF81913F011C
:102A3000882309F453C1853239F493FD859193FFBE
:102A400081913F01853229F4B70190E00E94361848
:102A5000E7CF912C212C312CFFE1F31538F08B328C
:102A600011F190F4803209F1833229F137FC3CC036
:102A700020ED280F2A3050F536FE20C08AE0989EBF
:102A8000200D1124922E06C08D3291F0803371F703
:102A9000689430F8F30193FD859193FF81913F0194
:102AA0008111DACF21C0689431F8689432F8F2CFFE
:102AB000689433F8EFCF689434F8ECCFEAE02E9EB8
:102AC000200D1124222E689435F8E4CF8E3229F49B
:102AD00036FC04C1689436F8DDCF8C3619F468945E
:102AE00037F8D8CF8836B1F2982F9F7D9554933020
:102AF000E0F08336A1F18337C1F1833509F063C07B
:102B00002801F2E04F0E511CF801C080D180692DE0
:102B100070E036FC02C06FEF7FEFC6010E9419180B
:102B20004C01689437F882010AC00C5F1F4FFFE325
:102B3000F98388248394912C6501E89437F833FE57
:102B40002DC0522C8114910471F5552009F468CFE1
:102B5000B70180E290E00E9436185A94F6CFF8014F
:102B6000808189830E5F1F4FE4CF2801F2E04F0E72
:102B7000511CF801C080D180692D70E036FC02C084
:102B80006FEF7FEFC6010E942B184C018201D5CF59
:102B9000B70180E290E00E9436182A9428141904A4
:102BA00009F0B0F7CECFF60137FC859137FE819161
:102BB0006F01B70190E00E94361851105A94F1E06D
:102BC0008F1A9108BFCF843619F0893609F077C083
:102BD000F80137FE6BC060817181828193810C5F47
:102BE0001F4FF32DFF763F2E97FF09C090958095DC
:102BF000709561957F4F8F4F9F4F689437F82AE00B
:102C000030E0A5010E946618C82ECA188C2C432CEF
:102C100036FE0CC0E89440F8C91440F434FE05C0F8
:102C200032FC03C0F32DFE7E4F2E892C44FE95C04E
:102C3000FE01EC0DF11D8081803309F087C0242D49
:102C4000297E422E842D8870582E43FC95C040FE6C
:102C50008FC09C2C821418F42C0C922C981844FED3
:102C600091C0B70180E390E00E94361842FE09C08F
:102C700088E790E041FE02C088E590E0B7010E943D
:102C80003618C91408F48AC0CA94D12C9FEFC91A07
:102C9000D90ACA0CDB1CF60182916F01B70190E0E2
:102CA0000E943618AC14BD04B1F74FCF608171811A
:102CB000072E000C880B990B0E5F1F4F92CFD32C61
:102CC000E894D4F82AE030E0853739F1232D297FC4
:102CD000D22E8F3601F148F48835A9F0F7018681AC
:102CE00097812B96E2E10C940219803749F08837DE
:102CF000A9F7D4FE02C06894D2F820E130E00DC0FC
:102D00006894D4F8F6CF34FE03C0822F8660D82EA4
:102D100020E132E002C028E030E0F801D7FE0FC029
:102D200060817181828193810C5F1F4FA5010E9498
:102D30006618C82ECA183D2CE89437F867CF608112
:102D4000718190E080E00E5F1F4FF0CF42FC02C027
:102D5000839478CF8394839475CF842D867809F4F7
:102D600071CFF6CFB70180E290E00E9436188394CD
:102D70008214C0F3512C73CF522C5818821408F4CB
:102D80006ECFF8CF842D867809F47BCF8BE241FE9D
:102D900080E247FC8DE2B70190E071CFB70180E39C
:102DA00090E00E9436189A946CCF8FEF9FEF99CFE6
:102DB0000F931F93CF93DF93869F8001879F100D02
:102DC000969F100D1124C8010E94F416EC01009783
:102DD00029F0A80170E060E00E942418CE01DF9184
:102DE000CF911F910F9108950F931F93CF93DF936E
:102DF0008230910510F482E090E0E091F203F091CE
:102E0000F30330E020E0B0E0A0E0309799F4211522
:102E1000310509F44AC0281B390B24303105D8F597
:102E20008A819B816115710589F1FB0193838283FE
:102E3000FE0111C040815181028113814817590759
:102E4000E0F04817590799F4109761F012960C9327
:102E5000129713961C933296CF01DF91CF911F9159
:102E60000F9108950093F2031093F303F4CF21150B
:102E7000310551F04217530738F0A901DB019A01DF
:102E8000BD01DF01F801C1CFEF01F9CF9093F3034A
:102E90008093F203CDCFFE01E20FF31F8193919354
:102EA0002250310939832883D7CF2091F003309104
:102EB000F103232B41F42091060130910701309357
:102EC000F1032093F00320910401309105012115B5
:102ED000310541F42DB73EB74091080150910901E9
:102EE000241B350BE091F003F091F103E217F30797
:102EF000A0F42E1B3F0B2817390778F0AC014E5F6A
:102F00005F4F2417350748F04E0F5F1F5093F103B2
:102F10004093F003819391939FCFF0E0E0E09CCF4A
:102F2000CF93DF930097E9F0FC013297138212826E
:102F3000A091F203B091F303ED0130E020E010978F
:102F4000A1F420813181820F931F2091F0033091F1
:102F5000F1032817390709F061C0F093F103E093FA
:102F6000F003DF91CF910895EA01CE17DF07E8F56E
:102F70004A815B819E0141155105B1F7E901FB834F
:102F8000EA8349915991C40FD51FEC17FD0761F4ED
:102F9000808191810296840F951FE901998388832E
:102FA000828193819B838A83F0E0E0E012968D9189
:102FB0009C9113970097B9F52D913C911197CD01F4
:102FC0000296820F931F2091F0033091F10328178E
:102FD000390739F6309751F51092F3031092F20346
:102FE000B093F103A093F003BCCFD383C28340819D
:102FF0005181840F951FC817D90761F44E5F5F4F49
:1030000088819981480F591F518340838A819B8110
:10301000938382832115310509F0B0CFF093F30338
:10302000E093F2039ECFFD01DC01C0CF1382128238
:10303000D7CFFC010590615070400110D8F7809502
:1030400090958E0F9F1F0895DC0101C06D93415034
:103050005040E0F70895FC0161507040019001106C
:10306000D8F7809590958E0F9F1F08950F931F930B
:10307000CF93DF93182F092FEB018B8181FD09C0BE
:103080001FEF0FEF812F902FDF91CF911F910F91A5
:10309000089582FF14C02E813F818C819D81281765
:1030A00039073CF4E881F981CF010196998388833F
:1030B00010838E819F8101969F838E83E3CFE88565
:1030C000F985812F0995892BA1F3DACFFA01AA2777
:1030D000283051F1203181F1E8946F936E7F6E5F5B
:1030E0007F4F8F4F9F4FAF4FB1E03ED0B4E03CD009
:1030F000670F781F891F9A1FA11D680F791F8A1FEC
:10310000911DA11D6A0F711D811D911DA11D20D052
:1031100009F468943F912AE0269F11243019305D0C
:103120003193DEF6CF010895462F4770405D4193FD
:10313000B3E00FD0C9F7F6CF462F4F70405D4A334A
:1031400018F0495D31FD4052419302D0A9F7EACF12
:10315000B4E0A6959795879577956795BA95C9F741
:1031600000976105710508959B01AC010A2E069434
:103170005795479537952795BA95C9F7620F731FED
:10318000841F951FA01D0895A1E21A2EAA1BBB1B28
:10319000FD010DC0AA1FBB1FEE1FFF1FA217B30723
:1031A000E407F50720F0A21BB30BE40BF50B661F39
:1031B000771F881F991F1A9469F7609570958095FD
:1031C00090959B01AC01BD01CF0108952F923F92D4
:1031D0004F925F926F927F928F929F92AF92BF9227
:1031E000CF92DF92EF92FF920F931F93CF93DF93D3
:1031F000CDB7DEB7CA1BDB0B0FB6F894DEBF0FBE30
:10320000CDBF09942A88398848885F846E847D847C
:103210008C849B84AA84B984C884DF80EE80FD807E
:103220000C811B81AA81B981CE0FD11D0FB6F894F4
:10323000DEBF0FBECDBFED010895A29FB001B39FC9
:10324000C001A39F700D811D1124911DB29F700DAF
:10325000811D1124911D089597FB072E16F40094EB
:1032600007D077FD09D00E94531907FC05D03EF422
:10327000909581959F4F0895709561957F4F089522
:103280000E941D19B7FF0895821B930B0895002417
:10329000A7FD00942A0F301D401D501D601D701D9C
:1032A000801D901D0895AA1BBB1B51E107C0AA1FDA
:1032B000BB1FA617B70710F0A61BB70B881F991FD7
:1032C0005A95A9F780959095BC01CD010895EE0F10
:1032D000FF1F0590F491E02D099481E090E0F894AF
:1032E0000C947B19FB01DC0102C001900D9241504E
:0A32F0005040D8F70895F894FFCF7E
:1032FA009E039E030000F4038000000000001D0CE2
:10330A001D0C1D0CC608C208BF080000000070088A
:10331A002C082A08C608C208C201D7050000000006
:10332A003A029401C7018702F801D601EA010000B6
:10333A000000440517059005C1018D010405F50437
:10334A000D0A00564D4450565F317C315F564D444C
:10335A0050560A00564D4450525F00416363656CF3
:10336A0020496E697469616C69736564006163639D
:10337A00656C2061637469766500564D4450455FFB
:10338A00003A323A007C005F564D44504500496E7F
:10339A00636F6D6D696E6720636F6D6D616E643A00
:0233AA00200001
:00000001FF
