:100000000C9466000C94440C0C941D0C0C948E0003
:100010000C948E000C948E000C948E000C948E0028
:100020000C948E000C948E000C948E000C948E0018
:100030000C948E000C948E000C948E000C948E0008
:100040000C94D30B0C948E000C94A10B0C947B0B92
:100050000C948E000C948E000C948E000C948E00E8
:100060000C946B0C0C948E000000000025002800FE
:100070002B0000000008000201000003040700003C
:1000800000000000000000000000240027002A00FB
:10009000010204081020408001020408102001021F
:1000A00004081020040404040404040402020202EC
:1000B00002020303030303031112131415160A0BA0
:1000C0000C0D0E0F0001020304058A0D11241FBE42
:1000D000CFEFD8E0DEBFCDBF11E0A0E0B1E0E8E9AE
:1000E000FBE202C005900D92A639B107D9F723E0D3
:1000F000A6E9B1E001C01D92AD3DB207E1F710E005
:10010000C6E6D0E004C02197FE010E94B615C536B0
:10011000D107C9F70E94090E0C94CA150C9400006F
:1001200080913F0290914002891B990B089520E035
:10013000DC0160FF03C001C02D932D936250E0F7F6
:100140007040D0F70895AF92BF92CF92DF92EF92B6
:10015000FF920F931F93CF93DF936C017B018B0171
:10016000040F151FEB015E01AE18BF08C017D107C1
:1001700059F06991D601ED91FC910190F081E02D4B
:10018000C6010995892B79F7C501DF91CF911F91A0
:100190000F91FF90EF90DF90CF90BF90AF900895B8
:1001A00080E991E00895089508950895FC01538D24
:1001B000448D252F30E0842F90E0821B930B541741
:1001C00010F0CF96089501970895FC01918D828DCE
:1001D000981761F0A28DAE0FBF2FB11D5D968C9167
:1001E000928D9F5F9F73928F90E008958FEF9FEFA6
:1001F0000895FC01918D828D981731F0828DE80F62
:10020000F11D858D90E008958FEF9FEF0895FC011B
:10021000918D228D892F90E0805C9F4F821B9109E8
:100220008F739927089581EB92E00E94070121E0E6
:10023000892B09F420E0822F089580E090E0892B3B
:1002400029F00E94130181110C9400000895FC0113
:10025000A48DA80FB92FB11DA35ABF4F2C91848D27
:1002600090E001968F739927848FA689B7892C9384
:10027000A089B1898C91837080648C93938D848DD7
:10028000981306C00288F389E02D80818F7D8083DA
:100290000895EF92FF920F931F93CF93DF93EC019A
:1002A00081E0888F9B8D8C8D98131AC0E889F9891D
:1002B000808185FF15C09FB7F894EE89FF89608320
:1002C000E889F98980818370806480839FBF81E0A1
:1002D00090E0DF91CF911F910F91FF90EF900895E3
:1002E000F62E0B8D10E00F5F1F4F0F731127E02EBE
:1002F0008C8D8E110CC00FB607FCFACFE889F989F6
:10030000808185FFF5CFCE010E942701F1CFEB8DD3
:10031000EC0FFD2FF11DE35AFF4FF0829FB7F894C9
:100320000B8FEA89FB8980818062CFCFCF93DF93E7
:10033000EC01888D8823B9F0AA89BB89E889F989FD
:100340008C9185FD03C0808186FD0DC00FB607FC32
:10035000F7CF8C9185FFF2CF808185FFEDCFCE0165
:100360000E942701E9CFDF91CF91089590E0FC0131
:10037000EE58FF4F2491FC01E057FF4F3491FC01F0
:10038000EC55FF4FE491EE23C9F0222339F02330DE
:1003900001F1A8F4213019F1223029F1F0E0EE0F3B
:1003A000FF1FE859FF4FA591B4918FB7F894EC91D6
:1003B000611126C030953E233C938FBF08952730AE
:1003C000A9F02830C9F0243049F7809180008F7D52
:1003D00003C0809180008F7780938000DFCF84B549
:1003E0008F7784BDDBCF84B58F7DFBCF8091B0004C
:1003F0008F778093B000D2CF8091B0008F7DF9CFFE
:100400003E2BDACF2091C2033091C3034091C40345
:100410005091C5032417350721F0682F822F0C94C3
:10042000B6010895CF93DF9390E0FC01E057FF4FB2
:1004300024918C559F4FFC0184918823D1F090E04A
:10044000880F991FFC01EA57FF4FA591B491FC0159
:10045000E859FF4FC591D491623071F49FB7F89479
:100460003C91822F809583238C93E8812E2B2883C7
:100470009FBFDF91CF9108958FB7F894EC912E2B09
:100480002C938FBFF6CF8230910538F0880F991FDB
:10049000880F991F05970197F1F70895CF93DF9380
:1004A000C2ECD3E0682F8A810E94B6018F89988DB3
:1004B000DF91CF910C94430281E00C944E023FB740
:1004C000F8948091E3019091E401A091E501B0914D
:1004D000E60126B5A89B05C02F3F19F00196A11D86
:1004E000B11D3FBFBA2FA92F982F8827BC01CD017E
:1004F000620F711D811D911D42E0660F771F881FDD
:10050000991F4A95D1F708958F929F92AF92BF920B
:10051000CF92DF92EF92FF924B015C010E945F024B
:100520006B017C010E945F026C197D098E099F0995
:10053000683E734081059105A8F321E0821A910875
:10054000A108B10888EEC80E83E0D81EE11CF11C9A
:1005500081149104A104B10429F7FF90EF90DF907A
:10056000CF90BF90AF909F908F9008952FB7F89441
:100570006091DF017091E0018091E1019091E201D1
:100580002FBF089508952091BB01260F3327331FF5
:1005900021323105ECF42091AB02FC0190E080E0C7
:1005A000243069F082E00895A091BB012191AC0153
:1005B00045565E4FA40FB52FB11D2C93019686179B
:1005C00098F38091BB01680F6093BB0180E00895B0
:1005D00081E008951092AB0281E080938A0210922C
:1005E000850261E082E10E94B60161E083E10E9440
:1005F000B601E9EBF0E080818E7F808380818D7F82
:10060000808388E48093B80085E48093BC000895DB
:10061000CF93DF9391E090939A018823B9F0C09132
:10062000B800D091BA008091BC008A7B8093BC0056
:1006300060E082E10E94B60160E083E10E94B601C1
:100640000E94EA02D093BA00C093B800DF91CF9124
:100650000895CF92DF92EF92FF920F931F93CF9363
:10066000DF93D82FC62F613208F098C00E945F0236
:100670006B017C018091AB0281116BC081E08093A2
:10068000AB0280938A029FEF9093890210928802B6
:100690009C0F909387028093860280918602DD0FE3
:1006A000D82BD093860280918502813009F078C0E2
:1006B000109285020E945F026B017C01809186028C
:1006C0008093BB008091AD029091AE02A091AF02E9
:1006D000B091B002892B8A2B8B2BA1F00E945F0274
:1006E0000091AD021091AE022091AF023091B002A4
:1006F0006C197D098E099F09061717072807390706
:1007000008F448C08091BC0083FDD8CF85EC80936D
:10071000BC000E945F026B017C018091AB028130C2
:1007200009F440C0809188028C1710F4C0918802AF
:10073000E5E6F2E0ABE8B2E080E08C1355C08C2F28
:10074000DF91CF911F910F91FF90EF90DF90CF90AD
:1007500008958091AD029091AE02A091AF02B09148
:10076000B002892B8A2B8B2B09F484CF0E945F0265
:100770000091AD021091AE022091AF023091B00213
:100780006C197D098E099F09061717072807390775
:1007900008F070CF8091AC020E940803C0E0CFCF78
:1007A00085EEB5CF8091AD029091AE02A091AF02DF
:1007B000B091B002892B8A2B8B2B09F4AECF0E940B
:1007C0005F020091AD021091AE022091AF02309114
:1007D000B0026C197D098E099F09061717072807B3
:1007E000390708F09ACFD6CF91919D938F5FA5CF0F
:1007F0008F929F92AF92BF92CF92DF92EF92FF9231
:100800000F931F93CF93DF93D0916402D13208F0FE
:10081000D7C0182FC09163020E945F026B017C0158
:100820008091AB0281116BC082E08093AB02109388
:100830008A028FEF8093890210928802D0938702F8
:10084000A3E4B2E0E5E6F2E080E0D81391C01092B4
:10085000860280918602CC0FC82BC09386028091BD
:100860008502813009F088C0109285020E945F02E3
:100870006B017C01809186028093BB008091AD0268
:100880009091AE02A091AF02B091B002892B8A2B59
:100890008B2BA1F00E945F020091AD021091AE027D
:1008A0002091AF023091B0026C197D098E099F0929
:1008B000061717072807390708F442C08091BC00C3
:1008C00083FDD8CF85EC8093BC000E945F026B0152
:1008D0007C018091AB02823009F450C08091890282
:1008E0008F3F09F46FC080918902803209F46CC097
:1008F00080918902803309F469C084E026C0809128
:10090000AD029091AE02A091AF02B091B002892BDE
:100910008A2B8B2B09F484CF0E945F028090AD025A
:100920009090AE02A090AF02B090B0026C197D0919
:100930008E099F0986169706A806B90608F070CF9B
:100940008091AC020E94080385E01092420210924E
:10095000640210924102DF91CF911F910F91FF909D
:10096000EF90DF90CF90BF90AF909F908F900895C1
:100970009D9191938F5F69CF85EEA5CF8091AD0258
:100980009091AE02A091AF02B091B002892B8A2B58
:100990008B2B09F49ECF0E945F020091AD02109153
:1009A000AE022091AF023091B0026C197D098E0920
:1009B0009F09061717072807390708F08ACFC0CF05
:1009C00081E0C3CF80E0C1CF82E0BFCF83E0BDCF65
:1009D000E091400280913F02E81730F4F0E0E557E3
:1009E000FD4F808190E008958FEF9FEF08959091E3
:1009F000400280913F022FEF3FEF981748F4E92F14
:100A0000F0E0E557FD4F208130E09F5F909340027A
:100A1000C9010895CF92DF92EF92FF920F931F9337
:100A2000CF93DF937C01CB018A01209141022223E5
:100A300089F0EB016B01C40ED51ECC15DD0569F004
:100A40006991D701ED91FC910190F081E02DC701F2
:100A50000995F3CF642F0E94C302C801DF91CF91A3
:100A60001F910F91FF90EF90DF90CF900895CF935B
:100A7000DF931F92CDB7DEB7698320914102222315
:100A8000F9F020916402203258F021E030E0FC01BE
:100A90003383228390E080E00F90DF91CF9108951F
:100AA00080914202E82FF0E0ED5BFD4F9981908349
:100AB0008F5F809342028093640281E090E0ECCFEC
:100AC00061E0CE0101960E94C302F7CFCF93DF937E
:100AD000EB019091BF0321E02093410290936302C8
:100AE0001092420210926402682F8EE493E00E94FA
:100AF000370568818EE493E00E94370581E0DF913D
:100B0000CF910C94F80390E080E008958EBD000032
:100B10000DB407FEFDCF8EB508950F931F93CF93AD
:100B2000DF93209199012F5F322F37703093990115
:100B300020FF2BC020E831FD2064347009F02062D2
:100B4000205FFC01EC01239600E011E06485662340
:100B500029F070E0C8010E947B156F5F6187322F1A
:100B6000369F030E30E0311D1124311110C0168262
:100B7000662311F0615061873196EC17FD0731F75C
:100B8000DF91CF911F910F91089520E0D4CF315084
:100B90003683EECF4F925F926F927F928F92AF9299
:100BA000BF92CF92DF92EF920F931F93CF93DF9379
:100BB0003C01EB010E945F02F30127853089621B33
:100BC000730B6A307105B0F3F894E881F9817BB159
:100BD00070626BB16F7D6BB9CA848F812C2D281B1D
:100BE000822F2F83BF844A805B801D850C85DE8425
:100BF0001F5F0F5FD3949E813885A984EB84418168
:100C0000D20120E0C32F522F322F31814427889404
:100C10003111380F08F43FEF8195889410FD430F90
:100C20004795889411FD430F4795889412FD430F13
:100C30004795889413FD430F4795889414FD430FFF
:100C40004795889415FD430F4795889416FD430FEB
:100C50004795889417FD430F47958894232F1111CA
:100C6000242F8C0D422F002C7BB900C047FF6BB99D
:100C700030812227889400C000C0002C6BB931114C
:100C8000390F00C0002C7BB900C046FF6BB908F4D7
:100C90003FEF9195889400C000C0002C6BB900FD17
:100CA000230F00C0002C7BB900C045FF6BB927950E
:100CB000889401FD230F00C000C0002C6BB927955C
:100CC000889400C0002C7BB900C044FF6BB902FDC2
:100CD000230F2795889400C000C0002C6BB903FD3A
:100CE000230F00C0002C7BB900C043FF6BB92795D0
:100CF000889404FD230F00C000C0002C6BB9279519
:100D0000889400C0002C7BB900C042FF6BB905FD80
:100D1000230F2795889400C000C0002C6BB906FDF6
:100D2000230F00C0002C7BB900C041FF6BB9279591
:100D3000889407FD230F00C000C0002C6BB92795D5
:100D4000889400C0002C7BB900C040FF6BB9432FD2
:100D50000111422F9A0D00C000C0002C6BB900C0D9
:100D600000C0002C7BB900C047FF6BB9328122273D
:100D7000889400C000C0002C6BB931113C0F00C03A
:100D8000002C7BB900C046FF6BB908F43FEFEB0DB8
:100D9000F11D00C000C0002C6BB9D0FC230F00C0B7
:100DA000002C7BB900C045FF6BB927958894D1FC16
:100DB000230F00C000C0002C6BB92795889400C099
:100DC000002C7BB900C044FF6BB9D2FC230F2795E0
:100DD000889400C000C0002C6BB9D3FC230F00C066
:100DE000002C7BB900C043FF6BB927958894D4FCD5
:100DF000230F00C000C0002C6BB92795889400C059
:100E0000002C7BB900C042FF6BB9D5FC230F27959E
:100E1000889400C000C0002C6BB9D6FC230F00C022
:100E2000002C7BB900C041FF6BB927958894D7FC93
:100E3000230F00C000C0002C6BB92795889400C018
:100E4000002C7BB900C040FF6BB9432FD110422F5B
:100E5000C19500C000C0002C6BB9CE0D00C000C011
:100E60007BB900C047FF6BB931812227889400C04D
:100E700000C0002C6BB93111380F00C0002C7BB9B9
:100E800000C046FF6BB908F43FEF8195889400C01D
:100E900000C0002C6BB910FD230F00C0002C7BB9E3
:100EA00000C045FF6BB92795889411FD230F00C042
:100EB00000C0002C6BB92795889400C0002C7BB92A
:100EC00000C044FF6BB912FD230F2795889400C022
:100ED00000C0002C6BB913FD230F00C0002C7BB9A0
:100EE00000C043FF6BB92795889414FD230F00C001
:100EF00000C0002C6BB92795889400C0002C7BB9EA
:100F000000C042FF6BB915FD230F2795889400C0E0
:100F100000C0002C6BB916FD230F00C0002C7BB95C
:100F200000C041FF6BB92795889417FD230F00C0BF
:100F300000C0002C6BB92795889400C0002C7BB9A9
:100F400000C040FF6BB9432F1111422F8C0D00C020
:100F500000C0002C6BB9119709F086CE20EE31E06D
:100F6000D2010E948F15DC01CB01F4E0B695A79564
:100F700097958795FA95D1F730E020E0B901EAE935
:100F80004E9E040C611D5E9E600D711D1124650D49
:100F9000711D860F971FA11DB11D893E43E0940767
:100FA000A105B10508F434C0885E9340A109B109D8
:100FB00042E0B695A795979587954A95D1F747E072
:100FC000849F080E211D949F200D311D1124290F8F
:100FD000311D6091980170E0860F971F820F931F5B
:100FE0004091DF015091E0016091E1017091E201D7
:100FF000292F3327420F531F611D711D4093DF01BD
:101000005093E0016093E1017093E20180939801B5
:1010100078940E945F02F301708B6787DF91CF9114
:101020001F910F91EF90DF90CF90BF90AF908F9076
:101030007F906F905F904F900895559A08950F9309
:101040001F93CF93DF93CDB7DEB762970FB6F894B7
:10105000DEBF0FBECDBF8C01F901DC011C968C9167
:101060007A8369835C834B835E834D8390819D8704
:1010700091819E8792819F878130F1F4CE01019604
:101080000E948D0583E0888B1A8A198AD801ED9118
:10109000FC910484F585E02DBE016F5F7F4FC80190
:1010A000099562960FB6F894DEBF0FBECDBFDF91F3
:1010B000CF911F910F9108951C861B861A86198661
:1010C00018861F82DFCF0F931F93CF93DF93CDB787
:1010D000DEB762970FB6F894DEBF0FBECDBF8C01AE
:1010E000F901DC011C968C917A8369835C834B83C4
:1010F0005E834D8390819D8791819E8792819F879A
:101100008130E9F4CE0101960E948D05188A1A8A71
:10111000198AD801ED91FC910484F585E02DBE017A
:101120006F5F7F4FC801099562960FB6F894DEBFD6
:101130000FBECDBFDF91CF911F910F9108951C86F7
:101140001B861A86198618861F82E0CF90E080E001
:101150000895FC01858596850895CF93DF9300D08F
:1011600000D000D0CDB7DEB7AB011C821D821E823D
:10117000DC01ED91FC910190F081E02D19821A8241
:101180001B829E012F5F3F4FBE016C5F7F4F099511
:1011900026960FB6F894DEBF0FBECDBFDF91CF917C
:1011A00008950F931F930091C6031091C7032091D8
:1011B000C8033091C90340E052E16AE770E080E083
:1011C000041715072607370740F476956795579556
:1011D00047958F5F8630A1F787E0982F906A9695A4
:1011E000809581709CBD8DBD80E01F910F910C9406
:1011F0004E02CF93DF93C82FD62F0E94D1088C2F99
:101200008F7180620E948605C82F8D2F0E948605EF
:101210000E945C028C2FDF91CF9108956091D303DF
:1012200061FD0CC062606093D30380E00E94F90806
:1012300065E070E080E090E00C9484020895F894FA
:1012400060E787E00E94F90885FB992790F9909361
:10125000970184FB992790F99093960186FB882744
:1012600080F980933E0278940895CF93C82F0E940E
:10127000D1088C2F0E9486058FEF0E948605C82F0B
:101280000E945C028C2FCF910895CF930E94D108C9
:1012900081EE0E948605C82F0E945C028C2FCF91A0
:1012A0000895EF92FF920F931F93CF93DF93C82F70
:1012B0007B01142F0E94D1088C2F8F7180620E94B5
:1012C0008605082FE701115020F089910E948605BC
:1012D000FACF0E945C02802FDF91CF911F910F9176
:1012E000FF90EF9008950E940E096091D303616012
:1012F0006093D30380E00E94F90860E787E00E94D2
:10130000F90881E00E9402028091CD03882369F0F0
:101310004091D2036DEC73E08AE00E945109809104
:10132000CC038823A9F00C94450982E00E9435097A
:10133000E4ECF0E0E49121E030E001C0220FEA9516
:10134000EAF72095622F682382E00E94F908E7CF30
:101350000895EF92FF920F931F93CF93DF93082F7F
:10136000E92E162F8091BF0391E090934102809364
:101370006302109242021092640261E08EE493E0F4
:101380000E94370580E00E94F803612F8091BF031F
:101390000E9429031092400280933F028117F0F3CC
:1013A000F02EC02FDE2D8EE493E00E94F704899387
:1013B0008C2F8F198117B8F3DF91CF911F910F9167
:1013C000FF90EF9008954F925F926F927F928F926D
:1013D0009F92AF92BF92CF92DF92EF92FF92CF9304
:1013E000DF93CDB7DEB72A970FB6F894DEBF0FBEF6
:1013F000CDBF6091C10370E090E080E00E94A31334
:101400009B01AC0160E070E080E89FE30E94091559
:101410002091C0032111D0C020E030E040E055E42D
:101420000E94E0132B013C0166E0CE0101960E9470
:10143000A90989819A8198278927982734E0959569
:1014400087953A95E1F79093AE038093AD038B8136
:101450009C8198278927982744E0959587954A95F8
:10146000E1F79093B0038093AF038D819E8198271D
:101470008927982754E0959587955A95E1F7909399
:10148000B2038093B1038090AD039090AE03092C1A
:10149000000CAA08BB08C501B4010E94A513A30152
:1014A00092010E9409156093B3037093B403809373
:1014B000B5039093B603C090AF03D090B0030D2C4A
:1014C000000CEE08FF08C701B6010E94A513A30196
:1014D00092010E9409156093B7037093B80380933B
:1014E000B9039093BA032091B1033091B203C901BB
:1014F000330FAA0BBB0B8F839887A987BA87BC01D0
:10150000CD010E94A513A30192010E9409156093C9
:10151000BB037093BC038093BD039093BE03A501EE
:10152000940120553B4F4F4F5F4FAFEFB0E00E940B
:10153000EF1420E6822E29E0922EA12CB12CA501D9
:1015400094010E94D01420933502A70196012055E2
:101550003B4F4F4F5F4FAFEFB0E00E94EF14A5013C
:1015600094010E94D014209336022F81388549853A
:101570005A8520553B4F4F4F5F4FAFEFB0E00E9471
:10158000EF14A50194010E94D014209337022A96EB
:101590000FB6F894DEBF0FBECDBFDF91CF91FF90A5
:1015A000EF90DF90CF90BF90AF909F908F907F9003
:1015B0006F905F904F90089520E030E040E053E45A
:1015C0000E94E0132B013C0163E0CE0101960E94D2
:1015D000A9098981982F990F990B8093AD03909356
:1015E000AE038A81982F990F990B8093AF03909344
:1015F000B0038B81982F990F990B8093B10390932F
:10160000B20341CF9091BF0321E020934102909318
:1016100063021092420210926402682F8EE493E0FB
:101620000E94370580E00E94F80361E08091BF03CB
:101630000E9429031092400280933F02811101C051
:10164000FFCF8EE493E00E94F7040895FC0101901F
:101650000020E9F73197AF01481B590BBC0181EB22
:1016600092E00C94A300CF93DF930E94260BEC0131
:101670008AE491E00E94260B8C0F9D1FDF91CF9191
:1016800008950E94BC1585ED8093BC008091AD0249
:101690009091AE02A091AF02B091B0020796A11D49
:1016A000B11D23E0B695A795979587952A95D1F713
:1016B0002091BC0024FD03C01092AB02089540911C
:1016C000AD025091AE026091AF027091B002452B15
:1016D000462B472B69F30097A105B10541F025E39F
:1016E0002A95F1F700000197A109B109E1CF809196
:1016F000AC020C9408031F920F920FB60F921124A4
:101700002F933F934F935F936F937F938F939F9309
:10171000AF93BF93EF93FF9381EB92E00E94270179
:10172000FF91EF91BF91AF919F918F917F916F91B9
:101730005F914F913F912F910F900FBE0F901F908F
:1017400018951F920F920FB60F9211242F938F931B
:101750009F93EF93FF93E091C102F091C2028081C9
:10176000E091C702F091C80282FD1BC09081809178
:10177000CA028F5F8F732091CB02821741F0E091F4
:10178000CA02F0E0EF54FD4F958F8093CA02FF919B
:10179000EF919F918F912F910F900FBE0F901F90FF
:1017A00018958081F4CF1F920F920FB60F921124DB
:1017B0002F933F938F939F93AF93BF938091DF01BC
:1017C0009091E001A091E101B091E2013091DE0140
:1017D00023E0230F2D3758F50196A11DB11D20934D
:1017E000DE018093DF019093E001A093E101B093CB
:1017F000E2018091E3019091E401A091E501B091B3
:10180000E6010196A11DB11D8093E3019093E401CF
:10181000A093E501B093E601BF91AF919F918F91A5
:101820003F912F910F900FBE0F901F90189526E8B3
:10183000230F0296A11DB11DD2CF1F920F920FB69A
:101840000F9211242F933F934F935F936F937F9346
:101850008F939F93AF93BF93EF93FF93E091020118
:10186000F09103010995FF91EF91BF91AF919F9185
:101870008F917F916F915F914F913F912F910F9039
:101880000FBE0F901F9018951F920F920FB60F92D8
:1018900011242F933F934F935F936F937F938F9375
:1018A0009F93AF93BF93EF93FF93E0910001F0916B
:1018B00001010995FF91EF91BF91AF919F918F9198
:1018C0007F916F915F914F913F912F910F900FBE3C
:1018D0000F901F9018951F920F920FB60F92112420
:1018E0002F933F934F935F936F937F938F939F9328
:1018F000AF93BF93EF93FF938091B900887F8036B9
:1019000009F44AC0F0F5883209F4A7C018F580310F
:1019100009F49BC0B8F4882309F4F9C0883009F4AD
:1019200094C0FF91EF91BF91AF919F918F917F9163
:101930006F915F914F913F912F910F900FBE0F903C
:101940001F901895883109F488C0803251F7809330
:10195000890214C0803409F49DC040F48033B9F387
:101960008833F9F68093890285ECB0C0803509F49C
:1019700085C0883509F496C0883499F60E94430BD7
:10198000D0CF883909F48CC038F5883729F050F465
:10199000883611F0803729F683E08093AB021092ED
:1019A000DD0157C0883809F47BC0803919F08038D0
:1019B00009F0B7CF8091DD01803208F071C0E0916D
:1019C000DD0181E08E0F8093DD018091BB00F0E0AE
:1019D000E354FE4F80833DC0803B39F0E0F4803A11
:1019E00009F479C0883A09F09CCF84E08093AB0277
:1019F0001092BC011092BB01E091EA01F091EB0161
:101A000009958091BB0181110FC081E08093BB01DA
:101A100010929B0109C0803C09F4A6CF883C09F4D0
:101A2000A3CF883B09F07DCFE091BC0181E08E0F10
:101A30008093BC01F0E0E556FE4F80818093BB00AF
:101A40009091BC018091BB0129C080918602809356
:101A5000BB0085EC8093BC0064CF9091880280919C
:101A60008702981758F5E091880281E08E0F8093E5
:101A70008802F0E0EB59FD4F8081E9CFE0918802C8
:101A800081E08E0F809388028091BB00F0E0EB59DB
:101A9000FD4F808390918802809187029817C8F249
:101AA00085E8D8CFE091880281E08E0F809388028C
:101AB0008091BB00F0E0EB59FD4F808380918A025A
:101AC00081115CCF81E08093850284EA8093BC0021
:101AD0001092AB0226CF85EC8093BC001092AB0233
:101AE0008091DD01803230F4E091DD01F0E0E354DB
:101AF000FE4F10826091DD0170E0E091E801F0910D
:101B0000E9018DEB91E009951092DD010ACF109269
:101B1000890234CFE1EBF2E01382128288EE93E087
:101B2000A0E0B0E084839583A683B7832AE231E006
:101B30003183208325EC30E03587248724EC30E0A6
:101B40003787268720EC30E0318B208B21EC30E08A
:101B5000338B228B22EC30E0358B248B26EC30E06B
:101B6000378B268B118E128E138E148EEEE4F3E0DB
:101B70001382128284839583A683B7838CE391E0DA
:101B800091838083EAE5F3E08FEF808312821182F4
:101B9000148613868FEF9FEFDC0187839087A187E0
:101BA000B287E7E6F3E01682178210861186128666
:101BB00013861486158616861786108A118A128A4D
:101BC000138A148A158AE2ECF3E089E090E09183AD
:101BD00080838AE090E09383828380E49BE4ACE49A
:101BE000B0E084839583A683B78380E280871186E3
:101BF00085E0808B85E090E0A0E0B0E0878B908F5F
:101C0000A18FB28F1386EDEAF3E08DE1828B138A08
:101C10000895CF93DF93CDB7DEB76A970FB6F894E8
:101C2000DEBF0FBECDBF789484B5826084BD84B51D
:101C3000816084BD85B5826085BD85B5816085BDC7
:101C400080916E00816080936E001092810080917F
:101C50008100826080938100809181008160809307
:101C60008100809180008160809380008091B1002C
:101C700084608093B1008091B00081608093B00057
:101C800080917A00846080937A0080917A008260EB
:101C900080937A0080917A00816080937A008091AD
:101CA0007A00806880937A001092C1001092A90394
:101CB0001092AA031092AB031092AC031092690326
:101CC00010926A0310926B0310926C030E94B6028A
:101CD0006B017C014B015C0128EB820E2BE0921E14
:101CE000A11CB11C0E94B6026C157D058E059F05D6
:101CF00028F086169706A806B906A0F768EE73E0E6
:101D000080E090E00E948402E091C102F091C20262
:101D100082E08083E091BD02F091BE021082E091EA
:101D2000BF02F091C00280E180831092C902E0916D
:101D3000C502F091C60286E08083E091C302F09173
:101D4000C402808180618083E091C302F091C4026B
:101D5000808188608083E091C302F091C402808119
:101D600080688083E091C302F091C40280818F7DFE
:101D700080830E94B6026093690370936A03809324
:101D80006B0390936C038DE491E00E94260B0E94FC
:101D9000B6026B017C014B015C013AE0830E911CA1
:101DA000A11CB11C0E94B6026C157D058E059F0515
:101DB00028F086169706A806B906A0F781E080935A
:101DC0007D030E94B6026093690370936A03809357
:101DD0006B0390936C038EE591E00E94260B62E00A
:101DE00082E00E9412028FE199E0909301018093BA
:101DF0000001809169008C7F80936900E89A80914E
:101E0000C2039091C3032091C4033091C50382178C
:101E1000930741F061E00E94120261E08091C403E7
:101E20000E9412021FB7F8948091E701811127C028
:101E3000EEEAF0E08491EAE9F0E09491E82FF0E036
:101E4000EE0FFF1FEA57FF4FA591B491EC91E923E4
:101E500021F461E08AE00E94B60161E08AE00E941C
:101E600012028CB580618CBD8CB580648CBD61E044
:101E70008DE00E94120261E08BE00E9412028091CC
:101E8000E7018F5F8093E7011FBF80E00E9402029D
:101E900081E00E944E0265E070E080E090E00E94E8
:101EA00084026FE584E00E94F90886E00E9435090B
:101EB00045E550E060E070E04093D5035093D603D1
:101EC0006093D7037093D803682F677D86E00E94E4
:101ED000F90886E00E9435090E94D10880E50E9439
:101EE000860583E70E9486050E945C0260E08DE122
:101EF0000E94F90860E08CE10E94F9081092CB037F
:101F00001092CC0360E787E00E94F9086CE485E05A
:101F10000E94F9080E94D10882EE0E9486050E9464
:101F20005C020E9445096CE080E00E94F90880E0B4
:101F30000E9435098093D3030E940E098091D30338
:101F40008E3021F485E691E00E94330B62E083E05D
:101F50000E94F90884E08093D203E1EBDE2EFAE3DD
:101F6000CF2EAAE3BA2EBAE3AB2E712C612C512CE2
:101F7000412C10E000E088248394912CD986CA86F5
:101F8000BB86AC867D866E865F86488AC801825491
:101F90009F4F7C010111D0C34091D20350E0BE019C
:101FA000675F7F4F8DEC93E00E94C115F70184912C
:101FB0004091D203BE01675F7F4F0E945109F80133
:101FC000E854FF4F84916091CA030E94F90882E0AF
:101FD0000E943509F801EC53FF4FE491B40101C0B0
:101FE000660FEA95EAF7682B82E00E94F9080F5F16
:101FF0001F4F2D2D3C2D4B2D5A2D672D762D852DC8
:10200000942DA1E00E949615D22EC32EB42EA52E9B
:10201000762E672E582E492E0430110509F0AECFCA
:1020200086E00E943509887F682F656086E00E94FF
:10203000F9081092400210923F0210924202109250
:1020400064020E94EA0283ED90E09093EB0180939A
:10205000EA0184ED90E09093E9018093E8018DE03E
:102060000E94020B8A3209F03FC00E94020B8E7F51
:102070008F8BBE01695E7F4F8AE20E9466058BE00E
:102080000E94020B811110C08EE00E94020B8C7F17
:102090008E8BBE016A5E7F4F8EE00E9466058111C5
:1020A00003C082E08093C1038BE00E94020B811188
:1020B0000CC08AE20E94020B877C80628D8BBE017D
:1020C0006B5E7F4F8AE20E9466058CE20E94020BE3
:1020D0008160888FBE01685E7F4F8CE20E9466053A
:1020E00087E791E00E94330B8091FF01811145C089
:1020F0001092F1011092F0018FEF8093F401809320
:10210000F5018093F6018093F7018093F8018093A5
:10211000F90181E08093FA011092FC011092FB0119
:102120001092F3011092F20180911102909112022B
:10213000892B31F48EEE91E090931202809311027C
:10214000E091EC01F091ED01309721F08EEE91E0FD
:10215000958384838EEE91E09093ED018093EC0162
:102160001092FE011092FD0188E191E09093EF0141
:102170008093EE0181E08093FF01559A8AE192E01D
:102180009093F1018093F00189E090E09093FC013D
:102190008093FB0180915D0390915E03A0915F03AA
:1021A000B0916003843CF9E09F07A105B10520F4DC
:1021B00084EC99E0A0E0B0E080935D0390935E032F
:1021C000A0935F03B09360038FEF8093F40190EBD3
:1021D0009093F50190EF9093F60180935A038AE271
:1021E0000E94020B81608C8BBE016C5E7F4F8AE285
:1021F0000E946605811104C089E891E00E94330BBA
:102200000E94730971EB872E7AE3972EA92CB92CC3
:102210006BEAE62E80913E02882309F480C2109278
:102220003E028091CA0357E0D52E873008F4D82E9D
:102230009091CB03F82EFD189111F12C0E94D1083A
:1022400081E60E94860507E312E0DA942FEFD216AA
:1022500039F08FEF0E948605D8018D938D01F5CF5F
:10226000FA94BFEFFB1621F08FEF0E948605F8CF9E
:102270000E945C0260E787E00E94F90880913D02BD
:10228000813009F4D6C008F4B9C0823009F4E0C046
:10229000833009F49FC1F0905A0380915D039091BF
:1022A0005E03A0915F03B0916003892B8A2B8B2B77
:1022B000D9F00E945F0200910D0210910E02209150
:1022C0000F0230911002601B710B820B930B009177
:1022D0005D0310915E0320915F03309160036017EE
:1022E000710782079307C8F20E945F0260930D0294
:1022F00070930E0280930F0290931002E091650399
:10230000F0916603309759F0409161035091620358
:1023100060916303709164038F2D0995F82E0091ED
:102320001102109112024F2C512C712C612C0115AD
:10233000110509F4B1C1D8011C96BC91BA8F8091E6
:102340005B0390915C038436910510F4F8011486C8
:10235000D801ED91FC9122803380198A1A8A1B8A58
:10236000FF20A9F16801B6E0CB0ED11CF0E0E0E05F
:10237000D6012D916D01222331F11296BC91B98FB6
:10238000BB2309F130E050E040E02F5F3F4F4F4F5B
:102390005F4FC301B2010E949E149B01AC01698D85
:1023A000862F90E0B0E0A0E0BC01CD016F5F7F4FD1
:1023B0008F4F9F4F0E949E14A1E1B0E0AC0FBD1F54
:1023C000AE0FBF1F8C933196E330F10589F6D8012B
:1023D0001D964D915C911E9712966D917C919E0178
:1023E0002F5E3F4FC801F1010995EA8DD8011C9677
:1023F000EC931C9714960D911C9199CF00911102AA
:10240000109112020115110509F445CFF8018281DE
:102410009381009749F025853685B901660F771FAE
:10242000620F731F0E949700D80114960D911C91A2
:10243000E9CF0E94E30980913602EAE1F2E080836D
:10244000118212823396B2E0E533FB07C1F723CF46
:10245000E3E0E09319020E94E3098091360290E0E4
:1024600090931802809317028092130290921402A4
:10247000A0921502B092160280E00E9402028091A2
:10248000D5039091D6030E9443028DE10E94350945
:1024900081FF08C08091D5039091D6030E9443022A
:1024A0000E9445098091D3038E7F8093D30380E0FF
:1024B0000E943509682F6E7F80E00E94F90882E053
:1024C0000E943509E4ECF0E0949161E070E001C015
:1024D000660F9A95EAF7682B82E00E94F90800914E
:1024E0003702109138022091390230913A02098363
:1024F0001A832B833C831D821E821F821886409183
:10250000D203BE016F5F7F4F8AE00E945109409164
:10251000D203BE016F5F7F4F80E10E94510960913D
:10252000CA0381E10E94F9088091CA03D82E88303D
:1025300010F097E0D92E9091CB03F82EFD18911151
:10254000F12C0E94D10880EA0E94860503E112E086
:10255000DA94FFEFDF1631F0D8018D918D010E94E2
:102560008605F6CFFA94BFEFFB1621F080E00E94BB
:102570008605F8CF0E945C0281E00E9402020E9460
:10258000B6022B013C010E94D1088FEF0E94860504
:10259000182F0E945C02107389F40E94B60264191D
:1025A000750986099709603671058105910558F30B
:1025B00081E08093D4030E9473096DCE80E00E9475
:1025C000020260E787E00E94F90884FFF4CF0E94CE
:1025D0004509F1CF30913B02932F990F990F990F35
:1025E000292F45E5249F020E20E0211D1124822F72
:1025F000232F2074432F407237FD2DC0211117C0A7
:10260000411106C0982F9095382F892F90E004C073
:1026100035E5380F90E08BEAEAE1F2E08083318320
:102620009283339642E0E533F407C1F734CE41118B
:102630000CC0292F6AEA269F020E20E0211D1124DA
:102640009E2D921B3AEA380FE0CF90E0382F30955C
:10265000982F80E0E1CF211112C041110CC0292F29
:102660003AEA239F020E20E0211D11243E2D321B49
:1026700095E5920FEECF982F909530E0CDCF411198
:1026800006C025E5280F9E2D981B822FF6CF2AEA3B
:10269000280F90E095E5F8CF80910B0290910C0205
:1026A0008C010F5F1F4F10930C0200930B02499790
:1026B000B4F10E94B6024090070250900802609068
:1026C000090270900A029B01AC01241935094609E0
:1026D000570921F421E030E040E050E088EE93E03B
:1026E000089FB001099F700D189F700D1124072ECF
:1026F000000C880B990B0E94AE1430935C0320935E
:102700005B0310920C0210920B020E94B6026093BF
:102710000702709308028093090290930A02A0E0D6
:10272000B0E0AB2B09F476CD0E941301882309F4A5
:102730006FCD0E9400006CCD013009F437CCF70159
:10274000849141E037CCE89409C097FB3EF4909522
:102750008095709561957F4F8F4F9F4F9923A9F07A
:10276000F92F96E9BB279395F69587957795679509
:10277000B795F111F8CFFAF4BB0F11F460FF1BC04D
:102780006F5F7F4F8F4F9F4F16C0882311F096E9E0
:1027900011C0772321F09EE8872F762F05C066238E
:1027A00071F096E8862F70E060E02AF09A95660F47
:1027B000771F881FDAF7880F9695879597F9089500
:1027C0000E94F3130C9464140E94561438F00E9473
:1027D0005D1420F0952311F00C944D140C945314B7
:1027E00011240C9498140E94751470F3959FC1F3F2
:1027F000950F50E0551F629FF001729FBB27F00DAF
:10280000B11D639FAA27F00DB11DAA1F649F662703
:10281000B00DA11D661F829F2227B00DA11D621F52
:10282000739FB00DA11D621F839FA00D611D221F0C
:10283000749F3327A00D611D231F849F600D211DF0
:10284000822F762F6A2F11249F5750409AF0F1F073
:1028500088234AF0EE0FFF1FBB1F661F771F881FDC
:1028600091505040A9F79E3F510580F00C944D14B3
:102870000C9498145F3FE4F3983ED4F386957795D3
:102880006795B795F795E7959F5FC1F7FE2B880F82
:10289000911D9695879597F9089597F99F6780E818
:1028A00070E060E008959FEF80EC089500240A94A2
:1028B0001616170618060906089500240A9412161B
:1028C0001306140605060895092E0394000C11F44E
:1028D000882352F0BB0F40F4BF2B11F460FF04C0FB
:1028E0006F5F7F4F8F4F9F4F089557FD9058440F54
:1028F000551F59F05F3F71F04795880F97FB991F5F
:1029000061F09F3F79F0879508951216130614061B
:10291000551FF2CF4695F1DF08C0161617061806A8
:10292000991FF1CF86957105610508940895E89483
:10293000BB2766277727CB0197F90895DB018F9393
:102940009F930E94EF14BF91AF91A29F800D911DA4
:10295000A39F900DB29F900D11240895A1E21A2E0D
:10296000AA1BBB1BFD010DC0AA1FBB1FEE1FFF1F33
:10297000A217B307E407F50720F0A21BB30BE40B83
:10298000F50B661F771F881F991F1A9469F76095CA
:102990007095809590959B01AC01BD01CF01089584
:1029A000052E97FB1EF400940E94E71457FD07D0F4
:1029B0000E94AE1407FC03D04EF40C94E71450951B
:1029C0004095309521953F4F4F4F5F4F089590951B
:1029D0008095709561957F4F8F4F9F4F08950E940E
:1029E000FA14A59F900DB49F900DA49F800D911D8A
:1029F00011240895A29FB001B39FC001A39F700D41
:102A0000811D1124911DB29F700D811D1124911DF6
:102A100008950E941D150C9464140E945D1458F0D2
:102A20000E94561440F029F45F3F29F00C944D1495
:102A300051110C9498140C9453140E94751468F35B
:102A40009923B1F3552391F3951B550BBB27AA2767
:102A500062177307840738F09F5F5F4F220F331FA1
:102A6000441FAA1FA9F335D00E2E3AF0E0E832D069
:102A700091505040E695001CCAF72BD0FE2F29D06C
:102A8000660F771F881FBB1F261737074807AB073E
:102A9000B0E809F0BB0B802DBF01FF2793585F4FB3
:102AA0003AF09E3F510578F00C944D140C94981414
:102AB0005F3FE4F3983ED4F3869577956795B79595
:102AC000F7959F5FC9F7880F911D9695879597F9A0
:102AD0000895E1E0660F771F881FBB1F6217730719
:102AE0008407BA0720F0621B730B840BBA0BEE1F2E
:102AF00088F7E095089597FB072E16F4009407D009
:102B000077FD09D00E94A21507FC05D03EF49095F0
:102B100081959F4F0895709561957F4F08950E940C
:102B2000FA14B7FF0895821B930B08950024A7FDA4
:102B300000942A0F301D401D501D601D701D801D0A
:102B4000901D0895AA1BBB1B51E107C0AA1FBB1F04
:102B5000A617B70710F0A61BB70B881F991F5A9529
:102B6000A9F780959095BC01CD010895EE0FFF1F48
:102B70000590F491E02D099481E090E0F8940C9494
:102B8000CA15FB01DC0102C001900D92415050407A
:082B9000D8F70895F894FFCF77
:102B9800C202C20200000000410B410B410BAD080C
:102BA800A908A6080000000063081F081D08AD0852
:102BB800A908D000CA05000000004901A300D600FA
:102BC80096010701E500F9000000000037050A0535
:102BD8008305D5009000F704E8040D0A00564D441B
:102BE80050565F317C315F564D4450560A00564D61
:102BF8004450525F00726164696F20696E6974693C
:102C0800616C6973656400416363656C20496E6932
:102C18007469616C6973656400616363656C2061E4
:062C28006374697665008B
:107E0000112484B714BE81FFF0D085E080938100F7
:107E100082E08093C00088E18093C10086E0809377
:107E2000C20080E18093C4008EE0C9D0259A86E02C
:107E300020E33CEF91E0309385002093840096BBD3
:107E4000B09BFECF1D9AA8958150A9F7CC24DD24C4
:107E500088248394B5E0AB2EA1E19A2EF3E0BF2EE7
:107E6000A2D0813461F49FD0082FAFD0023811F036
:107E7000013811F484E001C083E08DD089C08234E0
:107E800011F484E103C0853419F485E0A6D080C0E4
:107E9000853579F488D0E82EFF2485D0082F10E0AE
:107EA000102F00270E291F29000F111F8ED06801E7
:107EB0006FC0863521F484E090D080E0DECF843638
:107EC00009F040C070D06FD0082F6DD080E0C81688
:107ED00080E7D80618F4F601B7BEE895C0E0D1E017
:107EE00062D089930C17E1F7F0E0CF16F0E7DF06D8
:107EF00018F0F601B7BEE89568D007B600FCFDCFD4
:107F0000A601A0E0B1E02C9130E011968C91119780
:107F100090E0982F8827822B932B1296FA010C0160
:107F200087BEE89511244E5F5F4FF1E0A038BF0790
:107F300051F7F601A7BEE89507B600FCFDCF97BE46
:107F4000E89526C08437B1F42ED02DD0F82E2BD052
:107F50003CD0F601EF2C8F010F5F1F4F84911BD097
:107F6000EA94F801C1F70894C11CD11CFA94CF0C13
:107F7000D11C0EC0853739F428D08EE10CD085E9AC
:107F80000AD08FE07ACF813511F488E018D01DD067
:107F900080E101D065CF982F8091C00085FFFCCF94
:107FA0009093C60008958091C00087FFFCCF809118
:107FB000C00084FD01C0A8958091C6000895E0E648
:107FC000F0E098E1908380830895EDDF803219F02E
:107FD00088E0F5DFFFCF84E1DECF1F93182FE3DFCA
:107FE0001150E9F7F2DF1F91089580E0E8DFEE27F6
:047FF000FF270994CA
:027FFE00040479
:0400000300007E007B
:00000001FF